:020000040802F0
:10000000C0A00020610202084F2A02088F260208C1
:100010004D2A020899080208493102080000000030
:10002000000000000000000000000000A101020824
:100030006509020800000000FD010208592A0208B3
:100040007B0202087B0202087B0202087B02020894
:100050007B0202087B0202087B0202087B02020884
:100060007B0202087B020208670902087B02020881
:100070009D0802087B0202087B0202087B0202083C
:100080007B0202087B0202087B0202087B02020854
:100090007B0202087B0202087B0202087B02020844
:1000A0007B0202087B0202087B0202087B02020834
:1000B0007B0202087B0202081D2B02087B02020859
:1000C0007B0202087B0202087B0202087B02020814
:1000D0007B020208D93002087B020208E5300208E0
:1000E0007B0202087B0202087B0202087B020208F4
:1000F0007B0202087B0202087B0202087B020208E4
:100100007B0202087B0202087B0202087B020208D3
:100110007B0202087B020208292B0208352B020809
:100120007B0202087B020208A9080208B50802083F
:100130007B0202087B0202087B0202087B020208A3
:100140007B0202087B0202087B0202087B02020893
:100150007B0202087B0202087B0202087B02020883
:100160007B0202087B0202087B0202087B02020873
:100170007B0202087B0202087B02020800000000EA
:100180007B0202087B020208DFF810D000F0D8FAE8
:100190000048004709420208AFF30080C0A00020D9
:1001A0002C4B19680868B0E8F04F80F30988BFF35A
:1001B0006F8F4FF0000080F311887047000000003F
:1001C00008480068006880F308884FF0000080F35A
:1001D000148862B661B6BFF34F8FBFF36F8F00DF35
:1001E00000BF00BF08ED00E0DFF80C00016841F43B
:1001F00070010160704700BF88ED00E0EFF30980F7
:10020000BFF36F8F134B1A681EF0100F08BF20ED5D
:10021000108A20E9F04F106009B44FF0500080F3CD
:100220001188BFF34F8FBFF36F8F05F037FA4FF090
:10023000000080F3118809BC19680868B0E8F04F25
:100240001EF0100F08BFB0EC108A80F30988BFF3CE
:100250006F8F7047C8000020EFF3058070470000E3
:100260000648804706480047FEE7FEE7FEE7FEE750
:10027000FEE7FEE7FEE7FEE7FEE7FEE70D2B0208DE
:10028000890102082DE9F05F0546002092469B4651
:1002900088460646814640241BE02846414647469C
:1002A000224600F020F853465A46C01A914110D316
:1002B00011461846224600F07CF82D1A67EB01081B
:1002C0004F4622460120002100F073F817EB000989
:1002D0004E41201EA4F10104DFDC484631462A4687
:1002E0004346BDE8F09F202A04DB203A21FA02F0C1
:1002F0000021704721FA02F3D040C2F12002914060
:1003000008431946704710B5431A934209D283181F
:10031000881803E010F8011D03F8011D521EF9D2E0
:1003200010BD40EA01039B0703D009E008C9121F72
:1003300008C0042AFAD203E011F8013B00F8013B9F
:10034000521EF9D210BDD2B201E000F8012B491EB5
:10035000FBD270470022F6E710B513460A46044662
:100360001946FFF7F0FF204610BD10B5484304467C
:1003700003F072FF002805D00021002C02D0641E7B
:100380000155FAE710BD30B50B460146002020228A
:10039000012409E021FA02F59D4205D303FA02F592
:1003A000491B04FA02F52844151EA2F10102F1DCF2
:1003B00030BD202A04DB203A00FA02F10020704709
:1003C0009140C2F1200320FA03F319439040704793
:1003D0002DE9FE4F804681EA0300C00F0C460090D5
:1003E00021F0004123F00045B8EB0200A94105D2FD
:1003F0004046214690461C460B46024623F00040EC
:10040000104347D0270DC7F30A00C3F30A510290E7
:10041000401A019040286BDAC3F3130040F4801BAC
:100420000098924620B10023D2EB030A63EB0B0B3A
:1004300001985946C0F140025046FFF7BAFF064600
:100440000D4650465946019A00F08CF910EB080011
:100450006141002487EA115284EAE7731A4340D0CD
:10046000009A62B3019A012A4FEA075215DC001B79
:1004700061EB02014FF0004202EA0752CDE900426F
:10048000001C41F5801132462B4600F08CF903B078
:10049000BDE8F08F40462146F9E7001B61EB020101
:1004A000001C41F5801300185B412018A2F50017CD
:1004B00047EB030140EAD570B6196D4111E06D08B4
:1004C0004FEA360645EAC0754FEA0752001B61EB5A
:1004D0000201001C41F5801149084FEA3000001963
:1004E000514132462B4603B0BDE8F04F00F04CB905
:1004F0000098012240000023D0EB020263EBE0737E
:10050000009821464FEAE074B8EB000061EB04016B
:10051000E9E783F000435BE781F0004158E72DE90C
:10052000FE4F81EA030404F0004421F000410094EE
:100530004FF0000B23F0004350EA01045ED052EA72
:1005400003045BD0C3F30A54C1F30A552C44A4F24C
:10055000F3340194A0FB0254C1F3130141F4801160
:10056000C3F3130343F4801301FB024400FB034E67
:10057000840A970A44EA815447EA8357A4FB076830
:1005800002958D0A05FB07854FEA932C04FB0C545A
:100590002705029D4FEA065847EA1637B5EB0805CE
:1005A0006EEB070C870E920E47EA811742EA831220
:1005B000A7FB0201B6EB0B0164EB00042B0D43EA31
:1005C0000C335E1844EB1C50DA465146E7FB02013F
:1005D000C5F313044FEA0B3343EA14534FEA0432D2
:1005E000019C43EA0603A4F10C040294009CCDE9AB
:1005F00000B400F0D8F803B0BDE8F08F0020014649
:10060000F9E72DE9F04D81EA030404F0004B21F0F5
:10061000004514464FF0000A23F0004150EA05025D
:1006200020D054EA01021DD0C5F30A570246C5F393
:100630001303C1F31300C1F30A5640F4801543F4C9
:100640008013A7EB0608101BD64608F2FD3873EBA3
:10065000050002D308F1010801E092185B41B8F1EE
:10066000000F03DA00200146BDE8F08D00204FF4B2
:100670008011064684460EE0171B73EB050705D371
:10068000121B63EB050306434CEA010C49084FEAD1
:10069000300092185B4150EA0107EDD152EA0300A5
:1006A00012D082EA040083EA0501084305D0101B3A
:1006B000AB4106D20122002306E000224FF00043A6
:1006C00002E06FF0010253101AEB06004CEB0851E8
:1006D00010EB0A0041EB0B01BDE8F04D00F054B8FF
:1006E000C1F30A52C1F3130140F2FF3341F4801108
:1006F0009A4202DA00200146704740F233439A42A0
:10070000A2F2334202DC5242FFF7EDBDFFF751BEC9
:1007100030B5041E71F1000404DB4FF00044404288
:1007200064EB0101141E73F1000405DB1C464FF05D
:100730000043524263EB0403994208BF904230BD2C
:10074000064C074D06E0E06840F0010394E807001E
:1007500098471034AC42F6D3FFF71AFD386502080B
:1007600058650208202A06DBCB17203A41FA02F02E
:1007700043EAE07306E041FA02F3D040C2F12002FE
:10078000914008431946704710B5141E73F10004D8
:1007900008DA401C41F1000192185B411A4301D173
:1007A00020F0010010BD2DE9F04D92469B4611B19D
:1007B000B1FA81F202E0B0FA80F220329046FFF7FF
:1007C000F8FD04460F4640EA0A0041EA0B01534691
:1007D0005A46084313D0114653EA010019D0C8F114
:1007E00040025046FFF77FFD05460E4650465946EB
:1007F0004246FFF7DEFD084305D0012004E0204615
:100800003946BDE8F08D0020054346EAE0762C43EA
:1008100037430A986305E40AA0EB08000022FD0AAA
:1008200044EA47540A3002D500200146E9E70105B1
:1008300010196941DDE9084500196941BDE8F04D2D
:10084000A2E770B58C1810F8015B15F0070301D111
:1008500010F8013B2A1106D110F8012B03E010F823
:10086000016B01F8016B5B1EF9D12B0705D4002346
:10087000521E0DD401F8013BFAE710F8013BCB1AE8
:10088000921C03E013F8015B01F8015B521EF9D5DD
:10089000A142D8D3002070BDFEE70000014800F05F
:1008A000CFB9000098040020014800F0C9B9000049
:1008B00038040020014800F0C3B900007002002095
:1008C00001681823CAB2103AB2FBF3F2054B6FF37A
:1008D0000901032A9B5CC36500D9091D816508468F
:1008E000704700005C61020810B5014600208B696A
:1008F0008A6A4FF0C07453B1B3F5005F15D072B17E
:10090000012A0CD0022A0AD0032A09D104E01AB124
:10091000012A06D0022A03D1C96AC90100D50120E3
:1009200010BDC96AA142FAD010BD002AF7D0012A31
:10093000F2D0022AF3D0032AF3D010BD30B50468F8
:10094000256825F480252560046863608368402B52
:10095000036803D099600068C26030BD9A60006887
:10096000C16030BD7047102000F090BB72B6FEE74A
:10097000002229B101291AD002291BD04FF440725C
:100980000E490B6823F440730B600B6813430B6034
:100990000A6822F078020A600A68022303EBC000AA
:1009A00002430A60086840F48030086070474FF4E2
:1009B0008072E5E74FF40072E2E70000103C02406D
:1009C0001348016889050FD5016821F400710160A1
:1009D000016841F400610160016821F40061016077
:1009E000016841F400710160016849050FD5016893
:1009F00021F480610160016841F480510160016867
:100A000021F480510160016841F480610160704708
:100A1000003C024008490A6822F440720A600A68F1
:100A200042F004020A600A684FF4803343EA00206F
:100A300002430A6070470000103C0240064A1368F7
:100A400023F44073136013681360136843F00103C9
:100A50001360017070470000103C0240094910B556
:100A60000C6824F440740C600C6844F440740C600E
:100A70000C6844F001040C600260BFF36F8F4360A8
:100A800010BD0000103C0240074A136823F4407375
:100A90001360136843F480731360136843F0010319
:100AA0001360018070470000103C0240074A136841
:100AB00023F440731360136843F4007313601368E6
:100AC00043F001031360016070470000103C0240D6
:100AD00017490868C206174805D5C26942F01002D6
:100AE000C26110220A600A68920605D5C26942F006
:100AF0000802C26120220A600A68520605D5C2694E
:100B000042F00402C26140220A600A68120605D55A
:100B1000C26942F00202C26180220A600A6892073A
:100B200005D5C26942F02002C26102200860704708
:100B30000C3C02400400002070B51149044600201E
:100B4000C86100F0B1FB06460E4D09E0601C07D0FD
:100B500024B100F0A9FB801BA04201D9032070BD85
:100B60002868C003F2D42868C00701D0012028609B
:100B7000286810F0F200F2D0FFF7AAFF012070BD44
:100B8000040000200C3C02402DE9F0410446876D32
:100B900000F08AFB064694F835000025022806D0AE
:100BA0008020606584F834500120BDE8F081206821
:100BB000016821F0160101602068416921F080017F
:100BC0004161206C08B9A06C20B12068016821F057
:100BD000080101602068016821F0010101600CE05A
:100BE00000F062FB801B052807D9202060650320E8
:100BF00084F8350084F83450D7E720680068C007CF
:100C0000EED194F85C103F208840B860012084F851
:100C1000350084F834500020C7E790F835100229D9
:100C200003D08021416501207047052180F83510EF
:100C30000068016821F00101016000207047000098
:100C40002DE9F84304464FF00009CDF800906348C1
:100C50004FF41651A56D0068B0FBF1F72E6894F8BB
:100C60005C10082000FA01F131420FD021680A68B7
:100C700052070BD50A6822F004020A6094F85C104F
:100C80008840A860606D40F00100606594F85C10D9
:100C90004FF0010808FA01F0304208D02168496994
:100CA000090604D5A860606D40F00200606594F804
:100CB0005C1004208840304208D021680968890708
:100CC00004D5A860606D40F00400606594F85C1085
:100CD00010208840304218D021680968090714D5CF
:100CE000A86020680168490304D50068000308D59E
:100CF000A16C07E00168C90503D4016821F008016F
:100D00000160216C09B12046884794F85C102020CE
:100D10008840304231D021680968C9062DD5A860C5
:100D200094F8350005282068016806D0490347D5A6
:100D3000006800031DD4616C1CE021F01601016005
:100D40002068416921F080014161206C08B9A06CE4
:100D500020B12068016821F00801016094F85C105E
:100D60003F208840A86084F8358084F83490216D55
:100D70001FE0E16B09B120468847606D00282BD049
:100D8000606DC00714D0052084F835002068016824
:100D900021F0010101600098401C0090B84203D886
:100DA00020680068C007F6D184F8358084F8349054
:100DB000E16C002910D001B02046BDE8F04308479F
:100DC0000168C905D5D4016821F01001016084F8DB
:100DD000358084F83490CCE7BDE8F88330000020FB
:100DE0002DE9F041044600F05FFA06465CB10220AE
:100DF00084F83500002584F834502068016821F01B
:100E0000010101600DE00120BDE8F08100F04CFA25
:100E1000801B052805D920206065032084F8350053
:100E2000F2E720680068C007F0D122681168204806
:100E30000140D4E901031843D4E90336334318438E
:100E400063691843A3691843E3691843236A184385
:100E50000843616A042903D1D4E90B1319430843F9
:100E6000106020684069666A20F0070130460E4332
:100E7000012704280CD1A06A0643E06A40B120464D
:100E8000FFF732FD20B14020606584F83570BAE785
:100E9000206846612046FFF713FD94F85C203F214F
:100EA00091408160656584F835700020ACE70000F2
:100EB0003F8010F02DE9F0410446866D90F8340033
:100EC000002501280DD0012084F8340094F83570F5
:100ED0000020012F07D084F8340002252846BDE801
:100EE000F0810220FBE7022784F835706065204618
:100EF000FFF724FD94F85C103F208840B060206824
:100F0000016841F016010160206C20B12068016881
:100F100041F0080101602068016841F001010160B1
:100F2000DCE700002DE9F047044622480F46017E29
:100F300001290AD00121804601764CF250394846F9
:100F4000FFF7FAFD020003D02FE00220BDE8F08792
:100F50004FF0FF3038602068174D012801D0A66897
:100F60001CE0207C6168FFF755FD4846FFF7E4FD73
:100F70000246286820F00400286014E0217C3046F6
:100F8000FFF7F6FC4846FFF7D7FD0200286820F07F
:100F90007A00286001D03E6005E0761CD4E902109A
:100FA0000844B042EAD8FFF70BFD002188F818107A
:100FB0001046CBE704000020103C024003480168C3
:100FC00041F000410160002070470000103C0240E9
:100FD0002DE9F0471B4E05461446307E1F468946D4
:100FE000012808D0012030764CF250384046FFF7F7
:100FF000A3FD18B114E00220BDE8F0879DB1012DDA
:1010000016D0022D19D022463B464846FFF726FD52
:101010004046FFF791FD0C490A6822F001020A6080
:1010200000213176E8E7E1B24846FFF707FDEFE738
:10103000A1B24846FFF728FDEAE721464846FFF7F8
:1010400035FDE5E704000020103C02400749002080
:101050000A68002A09DA054A054B0C3A1360054B69
:1010600013600968002900DA01207047103C024033
:1010700023016745AB89EFCD102803D11021024829
:1010800000F008B970470000000C0240044910B598
:101090000A68024202D00860FFF7EEFF10BD0000B0
:1010A000143C01402DE9F84FDFF8BCA100220125D6
:1010B00003264FF00F090AF1040BAAF1040E00BF3A
:1010C0000B6805FA02F42340A34270D10F7907F0B0
:1010D0000307012F01D0022F16D187684FEA42087B
:1010E00006FA08FC27EA0C07D1F80CC00CFA08FC39
:1010F0004CEA070CC0F808C04768A7430C79C4F352
:10110000001494403C4344600C79E443A4070AD0A3
:10111000C4684FEA420C06FA0CF7BC438F6807FA22
:101120000CF72743C7600C7904F00304022C12D19A
:10113000D40800EB840CDCF820405707FF0E09FAB6
:1011400007F824EA0804D1F8108008FA07F848EAFA
:101150000408CCF8208004684FEA420C06FA0CF729
:10116000BC430F7907F0030707FA0CF72743076022
:101170004C6814F4403F70D03C4C276847F48047DB
:101180002760246822F0030704F480440094384C5C
:1011900007EB040CDCF8084897074FEA177809FAC0
:1011A00008F7BC43334FB84202D1002724E054E093
:1011B000314FB84201D101271EE0304FB84201D172
:1011C000022719E02E4FB84201D1032714E02D4F1A
:1011D000B84201D104270FE02B4FB84201D10527B7
:1011E0000AE02A4FB84201D1062705E0284FB8424D
:1011F00001D1072700E0082707FA08F72743CCF8B2
:101200000878DAF800405746D1F804C09C435FEAFA
:10121000CC2C00D51C433C60DBF800405F46D1F885
:1012200004C09C435FEA8C2C00D51C433C60DEF874
:1012300000407746D1F804C09C435FEA8C3C00D55F
:101240001C433C60084F083F3C68D1F804C09C43F5
:101250005FEACC3C00D51C433C60521C102AFFF4D2
:101260002FAFBDE8F88F0000083C01404438024031
:10127000003001400000024000040240000802402B
:10128000000C02400010024000140240001802400E
:10129000001C02400069084000D0012070470AB1DC
:1012A000816170470904FBE70148806870470000CE
:1012B0002400002070B5040013D021684CF6CC4007
:1012C0000860216845F255500860D4E9000141608A
:1012D0002168A0688860FFF7E7FF054641F6010630
:1012E0000DE0012070BD00BFFFF7DEFF401BB042E4
:1012F00005D92068C068800701D0032070BD206830
:10130000C0688007F0D121684AF6AA200860002052
:1013100070BD00684AF6AA210160002070470000F5
:1013200002488168027811448160704724000020DF
:101330000B4810B5016841F400710160016841F487
:1013400080610160016841F480710160032000F058
:101350009FF80F2000F006F800F050F8002010BDB4
:10136000003C024030B505461F4887B000240168A4
:1013700041F004010160006806A900F0040000903B
:1013800001A800F031F90498A8B100F04DF940002F
:101390001649174AB0FBF1F11648491E026040F2A7
:1013A000E732C0E90324C0E90114846100F07CFC49
:1013B000040003D015E000F037F9E9E70D4800F02C
:1013C000D3FC04000DD11E2000F034F8102D07D2FC
:1013D000002229461E2000F03BF80748056000E087
:1013E000012407B0204630BD4038024040420F0083
:1013F00000080040F8040020280000200C4882B0BB
:10140000016841F480410160006800F48040009070
:101410000748001F016841F0805101600068002208
:1014200000F0805000900F21901E02B000F010B824
:1014300044380240002809DB00F01F0201219140DE
:101440004009800000F1E020C0F800117047000062
:10145000F0B40E4B1B680C46C3F30223C3F107051F
:10146000042D00D90425191D072901D2002300E00D
:10147000DB1E012606FA05F1491E214099409E40D7
:10148000761E16403143F0BC01F078BE0CED00E052
:10149000064900F0070208684FF6FF03184040EACB
:1014A0000220034A10430860704700000CED00E082
:1014B0000000FA052DE9F0470E46050065D0DFF87B
:1014C0001481D8F80000F7B200F00700B04207D24C
:1014D00088F80070D8F8000000F00700B04254D13E
:1014E00028683D4C810712D5400703D5206840F499
:1014F000E05020602878000703D5206840F4604061
:1015000020602068A96820F0F00008432060287857
:10151000C0072DD0304968680839012812D0022848
:1015200013D0032811D00968890700292DDA216812
:1015300021F0030101432160FFF7B6FE814641F22D
:10154000883A0EE009688903EFE709688901ECE74A
:10155000FFF7AAFEA0EB0901514502D90320BDE81F
:10156000F0872068696800F00C00B0EB810FEFD1C4
:10157000D8F80010404601F00701B14207D90770C2
:10158000006800F00700B04201D00120E7E72878AA
:10159000400705D52068E96820F4E0500843206042
:1015A0002878000706D52068296920F4604040EAC1
:1015B000C100206000F058F82168084AC1F3031107
:1015C000515CC8400649086006480068FFF7CAFE3B
:1015D0000020C4E7003C0240083802406461020871
:1015E00030000020280000200F2202600C4A1368FF
:1015F00003F003034360136803F0F0038360136890
:1016000003F4E053C36012684FF4E05303EAD202DC
:1016100002610448006800F007000860704700009D
:1016200008380240003C0240044805490068096847
:10163000044AC1F38221515CC84070473000002049
:1016400008380240746102080448054900680968C6
:10165000044AC1F34231515CC84070473000002059
:101660000838024074610208154810B5006810F08F
:101670000C02144813D04110042A0FD0082A0ED1AE
:101680000F4C241F2268236802F03F025B0207D53B
:101690002068C0F38810A0FB010106E0084610BDD9
:1016A0002168C1F38811A1FB00010023FEF7EAFDC8
:1016B0002168C1F30141491C4900B0FBF1F010BDA4
:1016C000083802400024F4002DE9F84F04006ED0E1
:1016D0002078DFF84C93C007A9F104054AD009F13E
:1016E00004000168C1F38101012908D00068C0F33A
:1016F000810002280AD1D9F80000400206D52868E6
:10170000800337D560680028E1D033E06068B0F529
:10171000803F10D0B0F5A02F286810D020F4803082
:101720002860286820F4802028606068A8B1FFF74E
:10173000BBFD06460DE0286840F48030F4E740F435
:1017400080202860F7E700BFFFF7AEFD801B64280C
:1017500073D828688003F7D50CE0FFF7A5FD06468F
:1017600005E000BFFFF7A0FD801B6428F0D82868C3
:101770008003F7D42078DFF8AC8280074FF0000AAE
:101780003ED5A748001D016811F00C0F08D0006875
:10179000C0F3810002280BD1D9F80000400207D421
:1017A0002868800716D5E068012800D112E033E1EF
:1017B000E068B8B10120C8F80000FFF775FD0646E3
:1017C00005E000BFFFF770FD801B0228C0D8286825
:1017D0008007F7D52868216920F0F80040EAC100A9
:1017E00028600DE0C8F800A0FFF75EFD064604E0A3
:1017F000FFF75AFD801B02281FD828688007F7D4FE
:101800002078000722D5864F87486169703771B10B
:1018100001210160FFF748FD064604E0FFF744FDA3
:10182000801B022809D838688007F7D50EE0C0F879
:1018300000A0FFF739FD064605E082E0FFF734FD22
:10184000801B02287DD838688007F7D420784007AD
:1018500068D5DFF8CCB100270BF13C0BDBF80000BA
:10186000C0000BD4DBF8001041F08051CBF8001021
:10187000DBF80000012700F0805000906B4E3068CC
:10188000C00510D4306840F480703060FFF70CFD64
:10189000009005E0FFF708FD0099401A022850D893
:1018A0003068C005F6D55E4EA0686C3601280FD0B2
:1018B0000528306810D020F001003060306820F03A
:1018C00004003060A068B8B1FFF7EEFC00900FE0B4
:1018D000306840F00100F4E740F004003060F7E7C2
:1018E000FFF7E2FC0099411A41F28830814266D844
:1018F00030688007F4D50EE0FFF7D6FC009007E0D3
:10190000FFF7D2FC0099411A41F28830814256D843
:1019100030688007F4D42FB1DBF8001021F080513B
:10192000CBF80010A069C8B33D49091D0968C1F38F
:10193000810102294AD00228504607D0C8F8600029
:1019400000E03CE0FFF7B0FC04463BE04746C8F847
:101950006000FFF7A9FC064605E000BFFFF7A4FC06
:10196000801B02282BD828688001F7D4D4E907010E
:101970000843A16A2E4A490802EB0141626A41EA22
:101980008211084394F82C1040EA0161C9F8001054
:1019900001203866FFF788FC044606E03EE000BF01
:1019A000FFF782FC001B022809D828688001F7D5C0
:1019B00034E000BFFFF778FC001B022802D90320A7
:1019C000BDE8F88F28688001F4D427E00128F7D01B
:1019D000D9F80000E26900F4800191421CD1226A2A
:1019E00000F03F01914217D147F6C071626A014091
:1019F000B1EB821F10D1A26A4FF0FF3300F44031E7
:101A000003EB5202B1EB024F06D194F82C1000F018
:101A10007060B0EB016F01D00120D1E70020CFE76B
:101A20000438024000004742800E474200700040E8
:101A30000000FFFF70B5040009D0606A002540B1C6
:101A400025616561A56294F8510040B10CE0012068
:101A500070BD6068B0F5827FF4D0E561F2E784F88C
:101A60005050204600F044F8022084F851002068CD
:101A7000016821F040010160A088218900F4827092
:101A800001F404410843A18901F400610843217C69
:101A900001F002010843217D01F001010843218B7F
:101AA00001F400710843217F01F03801084394F8E4
:101AB000201001F080010843218D01F400510843FA
:101AC00021680860A069042101EA104094F82410FC
:101AD00001F010010843216848602068C16921F4C1
:101AE0000061C1616565012084F85100002070BD6E
:101AF000F0B587B0064614216846FEF72BFC3D483A
:101B0000D6F800C000253C4902230324052784455C
:101B100034D139481430026842F4805202600068BF
:101B200000F480500590086840F0010008600868E3
:101B3000694600F001000590E0208DE82900CDE91C
:101B400003472E48FFF7AEFA2E4C2D4820604FF089
:101B5000C06060604020C4E902050001C4E90405DA
:101B6000A561E561256220466562FFF739F908B194
:101B7000FEF7FCFEB464A66307B0F0BD1E4A224E19
:101B800010322248B44517D1166846F480461660D4
:101B9000126802F4804205920A6842F002020A606A
:101BA000096801F0020105914FF444418DE82A00D3
:101BB000CDE90347694619E0154EB445DCD11668F6
:101BC00046F400461660126802F4004205920A6864
:101BD00042F002020A60096801F002010591382111
:101BE0008DE82A000621CDE903416946FFF75AFA3C
:101BF000C2E70000003001403038024000000240DF
:101C00005864024070020020003800400004024086
:101C1000003C00407047704770B590F83C20012AA6
:101C200032D0012480F83C40022280F83D20036835
:101C30005A689D6822F070060A6832435A60134B56
:101C400002689A4214D0B2F1804F11D0104B9A42E0
:101C50000ED0104B9A420BD00F4B9A4208D00F4B2C
:101C60009A4205D00E4B9A4202D00E4B9A4204D1B2
:101C7000496825F080031943916080F83D400021B8
:101C800080F83C10084670BD022070BD0000014085
:101C90000004004000080040000C00400004014027
:101CA000004001400018004010B5040003D094F833
:101CB0003D0010B107E0012010BD002084F83C0079
:101CC000204600F01FF8022084F83D00211D206806
:101CD00000F036FF012084F8460084F83E0084F8C6
:101CE0003F0084F8400084F8410084F8420084F802
:101CF000430084F8440084F8450084F83D00002047
:101D000010BD000008B5154A0168154891420ED172
:101D1000016841F0100101600068002200F010002D
:101D2000009005213620FFF793FB362010E00D4A86
:101D3000914211D1016841F0200101600068002248
:101D400000F02000009005213720FFF781FB3720AD
:101D5000BDE80840FFF76EBB08BD00000010004062
:101D6000403802400014004090F83D10012901D095
:101D700001207047022180F83D100168CA6842F0D6
:101D80000102CA6000681149884214D0B0F1804F46
:101D900011D00F4988420ED00E4988420BD00E490F
:101DA000884208D00D49884205D00D49884202D0AA
:101DB0000C49884204D1816801F00701062903D04B
:101DC000016841F0010101600020704700000140FE
:101DD0000004004000080040000C004000040140E6
:101DE000004001400018004070472DE9F0410446D2
:101DF0000068C66805694FF00007A90713D5B10749
:101E000011D5F91E016101202077206880698007C3
:101E1000204602D0FFF7E8FF04E000F07EF82046FD
:101E200000F07CF82777680716D5700714D521686D
:101E30006FF004000861022020772068806910F4A8
:101E4000407F204602D0FFF7CFFF04E000F065F8A6
:101E5000204600F063F82777280715D5300713D5FB
:101E600021686FF008000861042020772068C069AD
:101E70008007204602D0FFF7B7FF04E000F04DF8DE
:101E8000204600F04BF82777E80616D5F00614D563
:101E900021686FF010000861082020772068C06971
:101EA00010F4407F204602D0FFF79EFF04E000F0D0
:101EB00034F8204600F032F82777E80708D0F0071A
:101EC00006D021686FF001000861204600F028F874
:101ED000280608D5300606D521686FF08000086115
:101EE0002046FFF797FE680608D5700606D52168DC
:101EF0006FF040000861204600F028F8A8060AD5D7
:101F0000B00608D521686FF0200008612046BDE8C2
:101F1000F041FFF780BEBDE8F081704770470000D8
:101F200010B5044600680749884201D1FFF7F8F967
:101F300005492068884204D1BDE81040012002F024
:101F400059B910BD000800400010004070477047AC
:101F500010B504460068406994F84110C0F3C01001
:101F6000212911D180B12068143050E8001F21F0E0
:101F7000800140E80012002AF5D1A06B08B1FEF7FD
:101F800003FE204600F00FFF2068406994F84210DD
:101F9000C0F38010222911D180B12068143050E89C
:101FA000001F21F0400140E80012002AF5D1E06B4B
:101FB00008B1FEF7E9FD204600F0CEFE002010BD7E
:101FC00070470000F8B5016804460868CA684B69A4
:101FD00010F00F0F4FF0000559D003F0010602F486
:101FE0009077374365D0C10705D0D10503D5616C23
:101FF00041F001016164410705D5D90703D0616C47
:1020000041F002016164810705D5D90703D0616CF5
:1020100041F004016164010707D502F0200131435A
:1020200003D0616C41F008016164616C00293AD011
:10203000800604D5900602D5204600F0C2FE206836
:102040004069616CC0F38010090700D460B320467A
:1020500000F082FE20684069400621D520681430D7
:1020600050E8001F21F0400140E80012002AF5D19D
:10207000E06BA8B172490165E06BFEF7CEFD002868
:1020800011D0E06B016D01B0BDE8F0400847830658
:102090000FD593060DD52046BDE8F84000F091BE5F
:1020A0002046FFF78DFFF8BD2046FFF789FF6564E6
:1020B000F8BD266B2023012E7ED1C6067CD5D60620
:1020C0007AD508684868009048694FF002064006D3
:1020D0004DD5E26B106840684FF480770004000C27
:1020E0003AD0A18D814237D9E085D069B8422DD050
:1020F00020680C3050E8001F21F4807140E8001285
:10210000002AF5D12068143050E8001F21F00101A9
:1021100040E80012002AF5D12068143050E8001F72
:1021200021F0400140E80012002AF5D184F8423045
:10213000256320680C3050E8001F21F0100140E8B2
:102140000012002AF5D1E06BFEF71EFD6663A08D3C
:10215000E18D401A81B206E0A18D8142A8D1D069FB
:10216000B842A5D166632046FFF7F1FEF8BDA08D09
:10217000E18D401A81B2E08D0028F7D00029F5D01A
:1021800020680C3050E8002F22F4907240E80027BD
:10219000002FF5D12068143050E8002F22F0010202
:1021A00040E80027002FF5D184F8423025632068ED
:1021B0000C3050E8002F00E006E022F0100240E86A
:1021C0000023002BF3D1CDE705062BD5150629D525
:1021D00094F841002128C9D1A068B0F5805F01D1F1
:1021E0002069B0B1206A411C2162216800784860F2
:1021F000E08C401E0004000CE084B7D12068C16868
:1022000021F08001C1602068C16841F04001C160D7
:10221000F8BD206A0088C0F308004860206A801C6E
:102220002062E5E74006F3D55006F1D5CA6820469E
:1022300022F04002CA6084F8413000F026FAF8BD6E
:10224000112C020870B5040004D094F84100002558
:1022500010B106E0012070BD84F84050204600F027
:1022600023F8242084F841002068C16821F400513B
:10227000C160204600F006FE2068016921F490410B
:1022800001612068416921F02A0141612068C1682B
:1022900041F40051C1606564202084F8410084F855
:1022A00042006563002070BD2DE9F04F87B00646FF
:1022B00014216846FEF74EF85949336800245948FE
:1022C0000222032507274FF000694FF4806A8B42F2
:1022D00033D1544914310B6843F010030B60096883
:1022E00001F010010591016841F0010101600068F1
:1022F000694600F00100059068028DE8B5004A4883
:10230000FEF7D0FE4A4D49482860C5E90194C5E969
:10231000034A6C61AC61EC612C6228466C62FEF78A
:102320005FFD08B1FEF722FBF563002205212520A1
:10233000AE63FFF78DF825206FE03A49DFF8F4C06F
:102340001031DFF8F4B0634519D10B6843F4003362
:102350000B60096801F400310591016841F0080142
:1023600001600068694600F00800059060208DE873
:10237000B5005846FEF796FE07B0BDE8F08FDFF8CF
:10238000BCC06345F8D10B6843F480230B60096837
:1023900001F480210591016841F0020101600168AA
:1023A00001F002010591016841F008010160006837
:1023B00002AB00F0080005904FF40060CDE9000288
:1023C00083E8B000904669461D48FEF76BFE4FF467
:1023D0008070CDE9000802AB694683E8B00058463A
:1023E000FEF760FE124D174860352860C5E901947C
:1023F000C5E9034A6C61AC61EC612C6228466C62F1
:10240000FEF7EEFC08B1FEF7B1FAF56300220521F4
:102410002720AE63FFF71CF82720FFF70BF8ABE788
:102420000010014030380240000002404064024089
:102430003804002000440040000C024000480040E6
:1024400000040240286002402DE9F84F044690F84D
:1024500042009A4616460D46202802D00220BDE8CA
:10246000F88FB5B1AEB100206064222184F842102B
:102470002063FEF719FFA6858146E685A0684FF424
:1024800080582027404501D1206920B12E460025E3
:1024900029E00120E3E7002625E04B460022202129
:1024A0002046CDF800A000F0DEFD18B184F842709F
:1024B0000320D4E726B1A06840451AD038B108E01F
:1024C00020684068C0F3080025F8020B08E0206986
:1024D00078B12068406800F07F0000BF06F8010B6B
:1024E000E08D401EE085E08D0028D6D184F8427052
:1024F000B5E720684068F1E790F84230202B01D022
:102500000220704721B11AB10023036300F040BDDF
:102510000120704790F84230202B01D002207047F4
:1025200021B11AB10023036300F082BD012070477E
:10253000704770472DE9F843044690F841009846EB
:1025400016460D46202802D00220BDE8F88385B14A
:102550007EB100206064212084F84100FEF7A4FED3
:10256000A6848146E684A0682027B0F5805F02D06B
:1025700003E00120E9E7206910B12E4600250EE0B6
:1025800000260CE08021204600F06DFDA8B9C6B100
:1025900016F8010B21684860E08C401EE084E08C56
:1025A0004B464FF00002CDF800800028EAD14FF0F2
:1025B0004001204600F057FD40B184F841700320EF
:1025C000C3E735F8020BC0F30800E3E784F8417075
:1025D0000020BAE770B5044690F84100202801D0E9
:1025E000022070BD01B3FAB12162A284E28400200E
:1025F0006064212384F84130A56B144BEB63A56B19
:10260000134B2B64A56B134BEB64A36B186520680D
:102610001346A56B021D2846FEF74CFC30B1102076
:102620006064202084F84100012070BD21686FF0B3
:10263000400008602068143050E8001F41F080011D
:1026400040E80012002AF5D1002070BD0D2D0208CF
:102650004F2D02081F2C020890F84130202B01D08A
:102660000220704779B172B101628284C284002174
:102670004164212180F841100068C16841F0800167
:10268000C160002070470120704770477047FEE727
:10269000154808B5016841F480010160016801F442
:1026A00080010091016841F400110160006800227E
:1026B00000F40010009005210C20FEF7C9FE0C204C
:1026C000FEF7B8FE002205213A20FEF7C1FE3A20AF
:1026D000FEF7B0FE002205213B20FEF7B9FEBDE863
:1026E00008403B20FEF7A6BE3038024010B5054A30
:1026F0000021054801F022FE04490860BDE81040B1
:1027000001F014BA38610208512A020800000020C2
:102710002DE9F04387B014216846FDF71BFE3948C8
:102720000026016841F080010160016801F080012C
:102730000591016841F004010160016801F00401A4
:102740000591016841F001010160016801F001019A
:102750000591016841F002010160016801F0020188
:102760000591016841F0080101600068264F00F002
:102770000800059001220C213846FEF790FDDFF895
:102780008C80012248F21E014046FEF788FDDFF8EA
:10279000809001224FF450714846FEF780FD0225DB
:1027A0000C20012403958DE8510069463846FEF758
:1027B00079FC48F2060003958DE8510069464046D1
:1027C000FEF770FC1820CDE9000469464046CDE9CB
:1027D0000245FEF767FC402003958DE851006946ED
:1027E0004846FEF75FFC4FF44070009001AA1120AC
:1027F00082E8310069464846FEF754FC07B0BDE860
:10280000F08300003038024000080240000002401F
:1028100000040240094810B50749016006214160E3
:102820004FF47A718160FEF745FD002803D0BDE8C2
:102830001040FEF79BB810BD003000405C01002046
:10284000104810B50E4901604FF4827141600021BB
:1028500002228160C0E90312012242615202C0E9F2
:1028600006210162416281620A21C162FFF7E2F83A
:10287000002803D0BDE81040FEF778B810BD000076
:102880000030014068010020104810B50E49016079
:102890004FF482714160002102228160C0E903127D
:1028A00001224261520282611822C0E9072141627D
:1028B00081620A21C162FFF7BDF8002803D0BDE89C
:1028C0001040FEF753B810BD00380040C001002092
:1028D000104810B50E4901604FF48271416000212B
:1028E00002228160C0E90312012242615202826128
:1028F0000822C0E90721416281620A21C162FFF713
:1029000099F8002803D0BDE81040FEF72FB810BD9D
:10291000003C0040180200201CB500240F48009421
:102920000D490194016042F2CF01C0E9011409216F
:102930008461C160FFF7B8F908B1FEF717F8009499
:10294000694606480194FFF767F908B1FEF70EF8EB
:102950000248FFF709FA1CBD00100040D002002019
:102960001CB500240E4800940C490194016042F209
:10297000CF01C0E9011463218461C160FFF794F9BC
:1029800008B1FDF7F3FF0094694605480194FFF78D
:1029900043F9002801D0FDF7E9FF1CBD00140040F9
:1029A000180300200C4810B50A4901604FF4E131CA
:1029B0004160002181600C22C160C0E90412816184
:1029C000C161FFF73FFC002803D0BDE81040FDF7D0
:1029D000CDBF10BD00100140600300200C4810B5B1
:1029E0000A4901604FF4E1314160002181600C220D
:1029F000C160C0E904128161C161FFF723FC0028B6
:102A000003D0BDE81040FDF7B1BF10BD0044004049
:102A1000A80300200C4810B50A4901604FF4E131C9
:102A20004160002181600C22C160C0E90412816113
:102A3000C161FFF707FC002803D0BDE81040FDF797
:102A400095BF10BD00480040F0030020FEE7FEE700
:102A5000012001F037FCFBE710B54FF0E0200069E2
:102A600003F0B4F9012803D0BDE8104002F0C2BE63
:102A700010BD000030B593B030216846FDF76AFC08
:102A800014210CA8FDF766FC1E480025016841F0E2
:102A900080510160006800F0805011901A48016870
:102AA00041F4804101600068022400F480401190EC
:102AB000092000904FF4803001900120CDE90504F9
:102AC0008005079008AA0420A82182E813000B9033
:102AD0006846FEF7F9FD08B172B6FEE70CA90F20B3
:102AE00081E831004FF4A0500F904FF480501090C7
:102AF00005210CA8FEF7DEFC002801D072B6FEE727
:102B000013B030BD403802400070004002480168F8
:102B100041F470010160704788ED00E00148FFF763
:102B200064B90000F80400200148FFF75EB9000016
:102B3000D00200200148FFF758B900001803002018
:102B4000F0B50268274B284D284E294F294C4FF0ED
:102B5000804C984209D0604507D0A84205D0B042C9
:102B600003D0B84201D0A04204D122F0700E4A68CE
:102B700042EA0E0298421BD0604519D0A84217D0F5
:102B8000B04215D0B84213D0A04211D01A4DA8427D
:102B90000ED01A4DA8420BD0194DA84208D0194D9D
:102BA000A84205D0184DA84202D0184DA84203D122
:102BB00022F44075CA682A434D6922F080022A43F4
:102BC0008D68C5620D688562984201D0A04201D12E
:102BD00009690163016841F004010160012141615B
:102BE0000260F0BD00000140000400400008004009
:102BF000000C00400004014000400140004401403E
:102C00000048014000180040001C00400020004027
:102C100010B5806B0021C185FFF7D2F910BD70B5EA
:102C2000846B2068406994F84110C0F3C0100025FF
:102C3000212904D118B1E584204600F0B4F82068B9
:102C4000406994F84210C0F38010222904D118B1D1
:102C5000E585204600F080F8606C40F0100060646C
:102C60002046FFF7ADF970BD10B50146806B0968CD
:102C700009684FF00002C9052ED4C28501680C31E5
:102C800051E8003F23F4807341E80034002CF5D173
:102C90000168143151E8003F23F0010341E800349A
:102CA000002CF5D10168143151E8003F23F04003B6
:102CB00041E80034002CF5D1202180F84210016B4E
:102CC000012909D101680C3151E8003F23F01003BC
:102CD00041E80034002CF5D14263016B012902D098
:102CE000FFF726FC10BD818DFFF731F910BD10B53F
:102CF000806B01214163016B012902D0FFF719FCB0
:102D000010BD818D4908FFF722F910BD10B50146AD
:102D1000806B09680968C90516D40021C18401685F
:102D2000143151E8002F22F0800241E80023002BEB
:102D3000F5D101680C3151E8002F42F0400241E822
:102D40000023002BF5D110BDFFF79FFC10BD10B57F
:102D5000806BFFF79BFC10BD01680C3151E8002F20
:102D600022F4907241E80023002BF5D10168143160
:102D700051E8002F22F0010241E80023002BF5D199
:102D8000016B012909D101680C3151E8002F22F0B3
:102D9000100241E80023002BF5D1202180F84210D9
:102DA00000210163704701680C3151E8002F22F0C7
:102DB000C00241E80023002BF5D1202180F841100A
:102DC000704708B590F84210222901D0022008BDB2
:102DD00082684FF480539A4201D1016921B1816A1E
:102DE0009A421BD04AB10AE00268816A5268C2F373
:102DF00008020A80816A891C08E0026972B10268CF
:102E0000526802F07F020A70816A491C8162C18D9A
:102E1000491E0904090CC18503D01BE002685268F1
:102E2000F1E70168CA6822F02002CA600168CA6836
:102E300022F48072CA6001684A6922F001024A6184
:102E4000202180F8421000214163026B012A03D047
:102E5000FFF76EFB002008BD016301680C3151E8EB
:102E6000002F22F0100241E80023002BF5D1016869
:102E70000A68D20602D50A6849680091818DFFF779
:102E800066F8E7E770B5044600680169E26821F476
:102E90004051114301612169A068E26908436169F9
:102EA000114308432168CA6849F20C639A430243FC
:102EB000CA6020684169A26921F4407111434161EF
:102EC00031492068884202D03049884202D1FEF759
:102ED000BBFB01E0FEF7A8FBE26900231921642592
:102EE0003226B2F5004F626828D0A0FB0101930F93
:102EF0009200FDF7C7F90146B0FBF5F06FF018023C
:102F0000504301EB800006EB0010B0FBF5F000F041
:102F1000F002B1FBF5F002EB0012B1FBF5F06FF03F
:102F20001803584301EB800006EB0010B0FBF5F0EE
:102F300000F00F0021681044886070BDA0FB010103
:102F400092185B41FDF79EF90146B0FBF5F00201D6
:102F5000B1FBF5F06FF01803584301EB800006EB6E
:102F6000C000B0FBF5F000F0F80002EB4002B1FB4E
:102F7000F5F0584301EB800006EBC000B0FBF5F024
:102F800000F00700D6E700000010014000140140E7
:102F900038B581620446828500201346606422228F
:102FA00084F84220E56B1F4AEA63E56B1E4A2A64F7
:102FB000E56B1E4AEA64E26B10650A462168E06B25
:102FC000091DFDF777FF30B110206064202084F8E0
:102FD0004200012038BD20680168406800902069E7
:102FE00048B120680C3050E8001F41F4807140E87F
:102FF0000012002AF5D12068143050E8001F41F07B
:10300000010140E80012002AF5D12068143050E890
:10301000001F41F0400140E80012002AF5D10020D5
:1030200038BD0000692C0208EF2C02081F2C020892
:1030300081628285C28500214164222180F842108C
:10304000016921B10168CA6842F48072CA600168EE
:103050004A6942F001024A610068C16841F02001FA
:10306000C160002070472DE9F843984617460D4689
:103070000446089E24E0701C22D0FEF715F9A0EB50
:103080000800B0421AD8CEB12068C168490717D5E8
:10309000802D15D0402D13D00168C94309070FD4E6
:1030A00001680025406800902046FFF755FE082083
:1030B000606484F840500120BDE8F8830320FBE7FA
:1030C0002068006835EA000004D00020B842D2D061
:1030D0000020F1E70120F9E70148FEF773BF000087
:1030E000600300203EB51748FEF76CFF154C2068C2
:1030F0000068C043C00623D42068002501684068EA
:1031000002902046FEF724FF0195ADF80050002301
:103110006A4601A9022000F01FFEE06B00684068CB
:10312000BDF80010081A81B2022000F095FE0220BE
:1031300000F004FEBDF8002020460199FFF7DCF9FD
:103140003EBD0000F0030020FEE700000FB4054B79
:1031500010B503A9044A029800F0F2F810BC5DF81B
:1031600014FB00006D3E020850010020014B024A92
:1031700000F0E6B86D3E0208500100200907090E74
:10318000002804DB00F1E02080F80014704700F014
:103190000F0000F1E02080F8141D704702E008C81D
:1031A000121F08C1002AFAD170477047002001E0C1
:1031B00001C1121F002AFBD1704700002DE9FF5FFB
:1031C00082B00021DDE90430020DDDF840B0034398
:1031D00018D044F61050A2F2FF3242431514119851
:1031E00001281FD0A5EB0B00401C5FEA000A4FF03E
:1031F00000064E4FDFF83891B046504615D5CAF15B
:10320000000413E0119801244AA3012801D16FEAB8
:103210000B010298119AC0E90031C0E9024206B0E0
:10322000BDE8F09FCBF10000DFE704460021404AF3
:10323000491842EB0450CDE9001012E0E00707D036
:1032400032463B4640464946FDF769F98046894685
:1032500032463B4610461946FDF761F906460F46D1
:103260006410002CEAD1DDE90401DDE90023BAF1A4
:10327000000F06DAFDF753F942464B46FDF74FF9CA
:1032800005E0FDF7BEF942464B46FDF7BAF90446A4
:103290000E460022284BFDF73BFA03D84FF0FF30D3
:1032A000014607E00022254B20463146FDF790F805
:1032B000FDF716FA102409E0002C0ADB0A2200238D
:1032C000FCF7E0FF039B30321A55641E50EA0102FE
:1032D000F2D1641C039AC4F111031444119A012A17
:1032E00003D0012208430DD10AE0084304D0002096
:1032F0004FF0110B119072E7A3EB0B056D1E0DE063
:103300005B4504DD4FF0000205F1010504E003DA3E
:103310004FF00002A5F10105002AECD002981199A6
:10332000C0E90231C0E9004579E70000000014401F
:103330000000F03F300000000000F0430000E03FDC
:103340002DE9FF4F95B09A46884606460025EEE1E6
:10335000252877D100242746F94A0121039400E06B
:10336000044316F8013F203B01FA03F01042F7D165
:1033700030782A2811D06FF02F033078A0F1300276
:10338000092A16D8039A44F0020402EB820203EBE6
:1033900042021044761C0390EFE758F8042B039286
:1033A000002A03DA504244F40054039044F002042B
:1033B000761C30782E2816D116F8010F44F004043C
:1033C0002A280DD06FF02F023078A0F13003092B9E
:1033D00009D807EB870302EB4303C718761CF3E712
:1033E00058F8047B761C30786C280FD006DC4C280B
:1033F00017D068280DD06A2814D104E0742810D0A2
:103400007A280FD10DE044F400140AE044F480144B
:1034100001E044F440147278824202D104F5801431
:10342000761C761C307866280BD013DC582877D0B1
:1034300009DC002875D04528F6D04628F4D0472866
:103440001AD193E118E0632835D0642879D0652833
:1034500012D18BE1702873D008DC6728F1D069287D
:103460006FD06E280DD06F2806D1ACE073282CD019
:10347000752874D0782853D05246179990476D1C00
:1034800054E1C4F30250022809D003280DD0D8F823
:10349000001004280DD00D6008F1040846E1D8F8AA
:1034A0000010EA17C1E90052F6E7D8F800100D80C5
:1034B000F2E70D70F0E718F8041B8DF800100020FB
:1034C0008DF80100EB46012003E058F804BB4FF0F3
:1034D000FF3061074FF0000102D40DE009F1010156
:1034E0008946B9420FDA8145F8DB1BF8091000293B
:1034F000F4D108E009F1010189468142FADB1BF8A9
:1035000009100029F6D103985346A0EB090721467C
:103510003846179A00F080FA284400EB090507E0C6
:1035200044E008E10DE01BF8010B52461799904763
:10353000B9F10109F7D2534621463846179AF2E00D
:1035400039E00A21C4F302524FF0000B0091022A25
:1035500006D058F8040BC117032A09D00AE023E06B
:1035600008F1070020F00702F2E80201904605E0AA
:1035700000B2C117042A01D140B2C117002906DAEE
:103580000A460021404261EB02012D2202E02205A1
:1035900004D52B228DF80420012203E0E20701D09C
:1035A0002022F7E7914657E00A2100E010214FF072
:1035B000000B00910BE010214FF0000B44F00404CD
:1035C0000827009103E008204FF0000B0090C4F39F
:1035D0000252022A05D058F8040B0021032A08D011
:1035E00008E008F1070020F00702F2E80201904627
:1035F00003E080B2042A00D1C0B24FF000092207D4
:103600002AD53278702A07D0DDF800C08CF0100C73
:103610005CEA0B0C05D00EE040228DF8042001225C
:1036200008E050EA010306D030238DF804308DF80D
:10363000052002229146009B83F0080353EA0B0306
:103640000AD150EA010201D1620705D530228DF876
:1036500004204FF001097F1E3278582A04D039A285
:103660000C920CAA02920BE03BA2F9E75B46009A8F
:10367000FCF708FE0C9B9B5C029A521E0292137090
:1036800050EA0102F2D1029804A9081A00F1200BB5
:10369000600702D524F4803400E001275F4502DD95
:1036A000A7EB0B0000E0002000EB0B01009003985B
:1036B0004944401A0390E00306D453462146179A22
:1036C000039800F0A9F90544002706E001A8524636
:1036D000C05D179990476D1C7F1C4F45F6DBE003DA
:1036E0000CD553462146179A039800F095F90544E6
:1036F00004E030205246179990476D1C0099481EEF
:1037000000900029F5DC08E0029802995246007802
:10371000491C0291179990476D1CBBF10001ABF158
:10372000010BF1DC5BE100F065F90544761C3078B3
:1037300000287FF40DAE19B02846BDE8F08F0000D8
:103740000928010030313233343536373839616277
:10375000636465660000000030313233343536373B
:10376000383941424344454600000000600700D418
:10377000062708F1070020F00700F0E80223804642
:1037800003F0004C5FEA0C0001D097A009E020058F
:1037900001D596A005E0E00701D095A001E0AFF2C9
:1037A0004C001390307823F0004365280CD006DCE1
:1037B000452809D046281DD047287FD13BE0662800
:1037C00018D067287AD136E00021112F01DB1120B3
:1037D00000E0781CCDE9000104A90CA8FFF7EEFC7D
:1037E000DDE90D010C9A4FF0000B07F10109109271
:1037F00000914EE04FF000400097CDE9011004A980
:103800000CA8FFF7DBFCDDE90D020C9B0F994FF0D4
:10381000000B91461093009211B9791C00EB01093D
:10382000B7EB090003D4C0F1FF3B07F10109A9EB95
:103830000700019042E0012F00DA01270021112F3B
:1038400001DD112000E03846CDE9000104A90CA8F3
:10385000FFF7B4FCDDE90D010C9A00914FF0000B6D
:10386000B946109221070FD4009A4A4503DA9146CF
:1038700001E0A9F10109B9F1010F05DD109AA9F1E3
:103880000101515C3029F4D0B84202DA10F1040F82
:1038900003DA0121CDE9011010E0002803DC8344A4
:1038A000A9EB000102E0411C494500DD8946A0EB7F
:1038B0000B00401C01904FF000400290200705D4FF
:1038C0000198484502DB4FF0FF30019000208DF851
:1038D0004B0002980DF14B07B0F1004F25D00220AC
:1038E0000C902B200D90029800280CDA4042029098
:1038F0002D200D9007E00A210298FCF744FD30319D
:10390000029007F8011D0C99481E0C900029F2DC6A
:1039100002980028EFD1791E0D980870307800F0D9
:10392000200040F0450007F8020D11A8C01BC01D83
:1039300002901398007800B1012000EB0901019872
:1039400001EBE071029801440398401A401E039075
:10395000E00306D453462146179A039800F05CF81A
:1039600005441398007818B15246179990476D1C7A
:10397000E00323D553462146179A039800F04CF8EC
:1039800005441BE0BBF1000F07DB0098584504DD40
:103990001098179910F80B0001E017993020524643
:1039A000904701980BF1010B401E05F101050190B4
:1039B00004D12E205246179990476D1CB9F1000191
:1039C000A9F10109DEDC05E017F8010B5246179951
:1039D00090476D1C0299481E02900029F4DC534662
:1039E0002146179A03989EE62D0000002B00000048
:1039F000200000002DE9F041044600251E46174630
:103A0000880404D405E039462020B0476D1C641EAC
:103A1000F9D52846BDE8F0812DE9F041044600259E
:103A20001E469046C80301D5302700E020278804B1
:103A300004D505E041463846B0476D1C641EF9D5F3
:103A40002846BDE8F08110B50022835C8C5C6340A1
:103A50008354521C102AF8DB10BD2DE9F0431F4699
:103A60008BB013460E4680461022194604A8DDF896
:103A70004890FCF748FC002420E008EB04010D46C8
:103A800010226846FCF73FFC684600F023F800204F
:103A900004AA694612F800C00B5C83EA0C030B54BD
:103AA000401C1028F6DB2946102204A8FCF72BFC4A
:103AB000381910226946FCF726FC1034B442DCD3D6
:103AC000B9F1000003D0102204A9FCF71CFC0BB0D4
:103AD000BDE8F08370B5064600F016FB124930468B
:103AE000FFF7B1FF304600F0D6FA304600F000FB99
:103AF0000D4D0924B5F1A00505EB04113046FFF783
:103B0000A2FF304600F03CFA304600F0C4FA3046DE
:103B100000F0EEFA641E012CEEDA3046BDE870408B
:103B20000149A039FFF78FBF2C0600201CB5184CA7
:103B300015A20020216800F02BFB00F043F80022C2
:103B40000821052001F06CFE606000240320CDE90F
:103B5000000423464FF480720EA1114802F0DEF8F3
:103B60000220CDE90004002380220EA1104802F0BB
:103B7000D5F80120CDE90004002380220DA11048D2
:103B800002F0CCF81CBD00007465737400000000E6
:103B9000340000206F74615F7461736B000000007B
:103BA000BD520208646F6F725F7461736B00000036
:103BB0009D5202087764675F7461736B00000000B8
:103BC000A55202080648016841F08071016005486D
:103BD00000214160016841F001010160704700006F
:103BE000FCED00E0001000E070B586B000250E4648
:103BF000059500F01BF80446401C0FD0FDF726FA8F
:103C000001A90120009581E851000220049005A936
:103C10006846FDF787F920B1FDF7D0F9012006B01D
:103C200070BDFDF7CBF90020F9E700000021A0F1FD
:103C300000634FF48042934246D3244901449142A9
:103C400001D2012140E022490144914201D20221E6
:103C50003AE020490144914201D2032134E01E4957
:103C60000144B1F5803F01D204212DE01B494218E7
:103C70004FF400318A4201D2052125E0184A02445E
:103C80008A4201D206211FE0164A02448A4201D22A
:103C9000072119E0144A02448A4201D2082113E0A4
:103CA000124A02448A4201D209210DE0104A02441C
:103CB0008A4201D20A2107E00E4A1044884201D20A
:103CC0000B2101E04FF0FF310846704700C0FFF7BD
:103CD0000080FFF70040FFF70000FFF70000FEF74D
:103CE0000000FCF70000FAF70000F8F70000F6F714
:103CF0000000F4F70000F2F70B4601461846FCF707
:103D000002BB2DE9F04115460E460746FDF79EF928
:103D100000240CE00023325D39191846FDF758F9EC
:103D200020B1FDF74BF90120BDE8F081641CAC42E5
:103D3000F0D3FDF743F90020F6E70000054900EB5A
:103D4000400001EBC0004169002901D0006908472B
:103D5000704700008000002010B5084C00EB4000C8
:103D600004EBC00009B184680C600AB1818911803C
:103D7000002B01D0C089188010BD000080000020F9
:103D8000034A00EB400002EBC000416170470000B5
:103D90008000002078B4164B00EB400003EBC0031A
:103DA000186899609A815B795BB1012B0FD0022B67
:103DB00010D0032B19D103681D680E4CAC430CD0F6
:103DC0000EE001B04FF47A7370BCFEF73DBB78BCD7
:103DD000FEF7A0BB78BCFEF78FBB1C685C68009444
:103DE000DC6844F01004DC60F4E778BC7047000045
:103DF000800000201000001078B4154B00EB40004C
:103E000003EBC00318681B795BB1012B0FD0022BA9
:103E100010D0032B19D103681D680E4CAC430CD095
:103E20000EE001B04FF47A7370BCFEF783BB78BC30
:103E3000FEF712BC78BCFEF7CDBB1C685C68009432
:103E4000DC6844F01004DC60F4E778BC70470000E4
:103E50008000002010000010034A00EB400002EB3D
:103E6000C000C181704700008000002013B501220E
:103E700069460020FFF7C0FF00981CBD10B5002860
:103E800021D0114B0022001F196803E0814203D8A2
:103E90000A4649680029F9D152B11368841A9C4234
:103EA00004D1006818441060104602E0506000E041
:103EB000186039B102680B1A934203D10B681A4497
:103EC00002604968416010BD54010020C10900D062
:103ED0001B2181EA4000C0B2704701F07BB80000AE
:103EE00010B588B00446684600F05CFF00F0ACFFF7
:103EF0004021064801F06EF82021684601F06AF87A
:103F0000204600F04FFF08B010BD0000BC060020A6
:103F100070B50C46054640290DD900F095FF2146A5
:103F2000284601F057F840211448FCF713FA1348CB
:103F300000F038FF08E040211048FCF70BFA224659
:103F400029460E48FCF7DFF90C4A002002F1400434
:103F500002F18003115C81F03605255481F05C018B
:103F60001954401C4028F5DB00F06EFFBDE870409E
:103F700002484021403001F02DB800003C060020EE
:103F80002DE9F14F8AB000240A9800EB840510F85F
:103F9000249095F80180AF78EE784846FFF796FFB9
:103FA0000590FFF793FF0890FFF790FF8246404689
:103FB000FFF78CFF0190FFF789FF0290FFF786FF64
:103FC00000903846FFF782FF0490FFF77FFF0790CD
:103FD000FFF77CFF83463046FFF778FF0390FFF73B
:103FE00075FF0690FFF772FF089A01468AEA020001
:103FF000059A08905040DDE900235A40079B82EA69
:10400000080250408BEA030C8CEA0702504081EA18
:10401000060250400A9A02F82400029B009A8AEA9B
:1040200009005A40019B02925A40049B50408BEA7F
:1040300003027A405040069A641C81EA020E8EEA1E
:10404000060250406870049B0898009A8CEA030CA2
:10405000039B80EA090082EA08025040594080EA46
:104060000C0071404840A870059A039B8AEA020040
:10407000029A80EA090082EA080250408BEA0702AD
:1040800050408EEA03025040E870042CFFF67CAFEB
:104090000BB0BDE8F08F1FB50446014610226846FC
:1040A000FCF731F99DF80D0060709DF8010060711A
:1040B0009DF8050060729DF8090060739DF80A0084
:1040C000A0709DF80E00A0719DF80200A0729DF8EE
:1040D0000600A0739DF80700E0709DF80B00E071EA
:1040E0009DF80F00E0729DF80300E0731FBD000013
:1040F000044A0021435CD35C4354491C1029F9DB7A
:104100007047000087620208F8B510221C491D485C
:10411000FCF7F9F81B4A10206C46111851F8041CE2
:10412000009101071CD1C117174D00EB117105EB70
:1041300021119DF801600D7814499DF800308E5DC5
:1041400075408DF800509DF802504D5D8DF801507E
:104150009DF803504D5D8DF80250C95C8DF8031039
:10416000002143189D18665C15F8105C491C7540C9
:10417000D5540429F5DB001DB028CEDBF8BD0000C6
:10418000600000208C0500207C6202087C6102082F
:104190000FB470B50B460F4988B074C98DE8740030
:1041A00036C904AE86E8360004A95DF8202051F82F
:1041B000201009A40AA0FEF7C9FF0FA90E98FEF768
:1041C000D5FF214609A0FEF7C1FF08B070BC5DF81D
:1041D00014FB0000A86402081B5B306D00000000A7
:1041E00025735B25735D5B25735D200025730D0AC8
:1041F00000000000034900220A704A681044486029
:104200007047000048010020124911480860FDF77E
:104210008FF8FEF72FFCFEF77BFAFEF739FAFEF770
:104220007BFBFEF79DFBFEF753FBFEF7BBFBFEF7A8
:10423000D5FBFEF705FBFEF727FBFEF7EBFBFEF7D2
:10424000E9FA00F04DF8FEF751FA00F05BF8FEE7EE
:104250000000020808ED00E0F0B50B30154D20F02D
:1042600007010024144A0FE003688B420BD38B42F2
:1042700005D95E1A43184768C3E9006700E0436840
:10428000136002C004E0021D10680028ECD1204633
:10429000002802D1286808B10020F0BD064A07486E
:1042A0001060074A121A22F00702C0E90024012018
:1042B0002860D7E75801002054010020C450002096
:1042C000C090002010B5EFF3058111B16FF0050427
:1042D00003E0002408B101F02DF9204610BD0000D4
:1042E000EFF3058010B16FF00500704704480168D6
:1042F00011B14FF0FF30704701210160002070477D
:104300001801002010B5EFF3058010B16FF0050023
:1043100010BD08480168012902D04FF0FF3010BDE0
:10432000054A002182F8141D0221016001F06AF99A
:10433000002010BD180100200BE000E02DE9FF4136
:104340004FEA01034FF00005EFF30581039549BBE8
:1043500040B38027182100244AB3166806B13446BA
:1043600096691EB13146761E382E02D21679F607AE
:1043700003D0002004B0BDE8F081566906B1B7084B
:10438000D2F808C0BCF1000F0DD0D5685C2D18D351
:1043900012693AB136B18DE806103A46214601F06D
:1043A000EAFC03900DE0D6685EB912694AB903AA27
:1043B000CDE90012BAB2214601F0B0FC012800D0CC
:1043C00003950398D6E700002DE9F04104463048F4
:1043D000017831B10021017042681078552806D16A
:1043E00002E00220BDE8F0815078AA2801D0012027
:1043F000F8E79078961C811CCFB24FF6FF7100232E
:104400004AF2010C0DE0F55C694000255FEAC17ECF
:1044100002D08CEA510100E049086D1C082DF5DB43
:104420005B1CBB42EFDB031D13441B888B4202D095
:1044300000F05AF8DBE72081D07815492070121D72
:10444000091F62600968042805D005280CD00628D9
:1044500015D00020C6E70FA20020FFF799FE10221A
:1044600004F10A00616807E00BA20020FFF790FE4C
:10447000202204F11A006168FBF745FF05E013886C
:1044800007A20020E363FFF783FE00F023F8A8E70C
:1044900074000020697600007369676E00000000F8
:1044A00066696C652073697A6520697320256400EC
:1044B00010B506490220FFF763FC054802894168F0
:1044C000BDE810400220FFF765BC0000994D0208CE
:1044D0007400002008B506208DF80000012269460E
:1044E0000220FFF789FC08BD08B507208DF8000001
:1044F000012269460220FFF77FFC08BD2DE9F0414B
:10450000134C0F460546E6682068001D00F0DEFEED
:10451000681C07D137B12168BDE8F0410D48091D7D
:1045200000F024BF20683544B5424560216805D2BB
:10453000A06BBDE8F041091D00F000BF606B091DD4
:1045400000F0FCFEA06A854200D2A562BDE8F081C1
:10455000C8000020DC0C00202DE9F041054600F0E9
:1045600011FF2D4CA068401CA06020682B4F10B19B
:10457000606930B32BE02560A068012827D10026B0
:1045800006EB860007EB800000F0CAFE761C382E92
:10459000F6D3234800F0C4FE2148143000F0C0FEDA
:1045A0001F48283000F0BCFE1D483C3000F0B8FE2B
:1045B0001B48503000F0B4FE194860631430A0630B
:1045C00005E02068E96AC06A884200D82560606A10
:1045D000401C60626864E86A2169884200D92061F1
:1045E00000EB800007EB8000291D00F0BFFE00F00B
:1045F000E9FE606900280CD02068E96AC06A884238
:1046000007D208494FF080500860BFF34F8FBFF3C7
:104610006F8FBDE8F0810000C80000202C0800204A
:104620008C0C002004ED00E038B500F0ABFE104C1F
:104630002068C8B90F4800F073FE0E48143000F02F
:104640006FFE0C48E060143020610A4B0020F03B04
:10465000009003F1500210210A2001F002F92060BD
:1046600010B105A100F030FFBDE8384000F0AABE4F
:1046700004010020E00D0020546D72510000000084
:1046800030B4026C0B46002A0BD0C1681144C160E3
:104690008468A14201D30168C16030BC1846FBF7B1
:1046A00032BE30BC70472DE9F041856B1746044699
:1046B0000026026C82B1C7B1E068FBF724FEE16816
:1046C000206C091AE1602268914202D2A168081A9E
:1046D000E060022F16D017E02068A8B9A06801F0AA
:1046E000EDFB06460020A0600EE06068FBF70BFEC5
:1046F000216C606808446060A168884204D3206827
:10470000606001E005B16D1E6D1CA5633046BDE81B
:10471000F08110B5044690F8590058B101280CD02A
:1047200002280FD0502080F31188BFF34F8FBFF3C2
:104730006F8FFEE7206B00F059FE2046BDE8104069
:1047400000F054BE10BD000010484FF470514207F5
:1047500006D0C01D0D4920F00700411AC1F5705167
:104760000B4A00230144C2E900030839183A21F03A
:10477000070111604B600B600B1AC0E900139360D6
:104780004FF000405360506170470000C01400209B
:1047900034010020144E154CA6F29C474FF080586F
:1047A000DFF84C9012E000BF00F0ECFDF068C56847
:1047B000281D00F08BFDA068401EA0606068401EB0
:1047C000606000F0FFFD2846FFF7A3FF6068002847
:1047D000EAD138680128F9D9C9F80080BFF34F8FB2
:1047E000BFF36F8FF2E70000C80C0020C800002064
:1047F00004ED00E070B51D46049C51B1C4F80020E2
:10480000C4E90F010121204601F05EF884F84C5004
:1048100070BD2460F4E700002DE9F05F8846DDE913
:104820000B941546834691009A460A9EA522206B5A
:10483000FBF789FD6FF00301206B01EB8501084454
:1048400020F00707780707D0502080F31188BFF3C6
:104850004F8FBFF36F8FFEE70025B8F1000F0FD029
:104860005FF00000221818F8001082F8341018F8D1
:10487000001011B1401C1028F4D384F8435001E01B
:1048800084F83450382E00D33726E662C4E9136525
:10489000201D00F050FD04F1180000F04CFD2461D3
:1048A000C6F138006462A061656584F858505246CC
:1048B0005946384600F05AFA2060B9F1000F01D08D
:1048C000C9F80040BDE8F09F30B5114900E011463D
:1048D0000A688242FBD34B685C18844203D140686B
:1048E00018444860084643681C18944209D1084C93
:1048F000183C2468A24209D052681A4442600A68EF
:1049000012680260814200D0086030BD0460F9E79F
:104910003401002070B5002441600B4D00619142CC
:1049200006D8D11A8269914206D2011D286907E092
:104930009A4203D2994201D3012403E0011DE868A1
:1049400000F0FCFC204670BD0401002010B50446B8
:1049500000F018FDA06B28B15FF0000400F032FDFC
:10496000204610BD0124F9E730B589B03C4D6EE01A
:104970000498002806DADDE90601059A90470498B4
:10498000002864DB069C606910B1201D00F09EFCCD
:1049900003A800F0D7F8024604980A2857D2DFE8A7
:1049A00000F00505052D334A05052D3394F8280040
:1049B00040F0010084F828000599A069059B014496
:1049C0002046FFF7A7FF68B3216A2046884794F87E
:1049D000280040073BD5002000900598A1690023DE
:1049E00042181946204601F073FBD8B9502080F3D5
:1049F0001188BFF34F8FBFF36F8FFEE714F8280FB6
:104A000020F00100207022E094F8280040F001001E
:104A100084F828000598A06128B181181346204623
:104A2000FFF778FF13E0502080F31188BFF34F8F1A
:104A3000BFF36F8FFEE794F82800810703D4204668
:104A400000F0D4FC03E020F0010084F828000022EC
:104A500004A9286801F08CF8002889D109B030BD7C
:104A6000040100202DE9FC410F46054600F00EFE32
:104A700001A800F067F80446019818B101F096FA11
:104A8000BDE8FC81254EAFB130690068D0B3002786
:104A9000291B3A46306800F02BFD01F087FA002808
:104AA000EED11F494FF080500860BFF34F8FBFF326
:104AB0006F8FE5E7A542EBD801F078FAF06827465A
:104AC000C068C468201D00F001FC94F8280041076C
:104AD00019D5A0692B4641193A462046FFF71AFF1F
:104AE000A8B100200346014600902A46204601F066
:104AF000EFFA60B9502080F31188BFF34F8FBFF3F6
:104B00006F8FFEE707E020F0010084F82800216A9B
:104B100020468847B4E70127BAE7000004010020D7
:104B200004ED00E00648416B096829B1416BC96892
:104B3000C9684968816270474FF0FF31FAE70000A9
:104B4000C800002070B5054601F04EF9064E044637
:104B5000B068844203D200F009F8012000E0002090
:104B600028602046B46070BD04010020F8B5194DDE
:104B700020E0C068C4680668201D00F0A7FB216A19
:104B80002046884794F82800400713D5A069304490
:104B9000B04206D924616060211DE86800F0CEFBB8
:104BA00008E000200346014600903246204601F00E
:104BB0008FFA38B1E86801680029DAD12969C5E9B6
:104BC0000310F8BD502080F31188BFF34F8FBFF35F
:104BD0006F8FFEE70401002008484068401C4FF03A
:104BE000500080F3118804D0BFF34F8FBFF36F8F55
:104BF000FEE7BFF34F8FBFF36F8FFEE73C0100204E
:104C0000074CE068016841B1C0680021D0F800009D
:104C1000FFF728FFFFF7A8FEF3E701210020F7E7E1
:104C2000040100202DE9F041044600F0ABFB94F9AB
:104C3000455004F1240609E0606A48B1304601F0AD
:104C40007DF908B100F0A4FC6D1E6DB2002DF3DCFF
:104C50004FF0FF3684F8456000F0B4FB00F092FBA3
:104C600094F9445004F1100709E0206948B138462E
:104C700001F064F908B100F08BFC6D1E6DB2002DDF
:104C8000F3DC84F84460BDE8F04100F09BBB000019
:104C90002DE9F0410546002700F0F8FC324E30685F
:104CA00008B9FFF751FD706905424ED1C5B308350B
:104CB00068070ED005F00700C0F10800054468073A
:104CC00007D0502080F31188BFF34F8FBFF36F8F51
:104CD000FEE72DB37068854237D823481830014667
:104CE0000C6801E020460C466168A94202D22168A6
:104CF0000029F7D131688C4227D00768216801600C
:104D000060680837411B10290FD96019420708D085
:104D1000502080F31188BFF34F8FBFF36F8FFEE7F2
:104D200013E041606560FFF7CFFD61687068401A6D
:104D30007060B268904200D2B06070690143002098
:104D4000C4E90001F068401CF06001F02FF9780719
:104D500007D0502080F31188BFF34F8FBFF36F8FC0
:104D6000FEE73846BDE8F0811C01002010B5031FA6
:104D70004FF080741C601B1F21F001011960191F86
:104D8000044B0B6014390A60091F6FF002024438AB
:104D90000A6010BDD94B0208014901200870704714
:104DA000740000202DE9F047DFF898A00646DAF8F5
:104DB000647007F1090400E0641CA006FCD1012125
:104DC0002046FBF7D2FA1F4905463A462431FBF745
:104DD0009AFA8020E8554FF00009DAF820804F4613
:104DE000FA0040464946FBF77EFAE11B29447F1C46
:104DF00001F8010C082FF3DB002704E0E919114842
:104E000000F04AF84037A742F8D300204FEA0A01E1
:104E100051F82020120E06F8202051F82020130C03
:104E200006EB8002537031F820301B0A937011F8A2
:104E30002030401CD3700828EADB2846BDE8F04744
:104E4000FFF71CB8FC0600200B480A4901600B491B
:104E500041600B4981600B49C1600B4901610B49FD
:104E600041610B4981610B49C161002101624166C9
:104E70007047000067E6096AFC06002085AE67BB44
:104E800072F36E3C3AF54FA57F520E518C68059B2C
:104E9000ABD9831F19CDE05B2DE9F04FC8B0036893
:104EA0008A4647934168469184684594C268449213
:104EB00096460269439245694295A946856941959E
:104EC000C6694096B34600260AEB8607B7F800C0CD
:104ED00097F802809CFA9CFC4FEA0C4CFF784CEA55
:104EE000082C4CEA070C4DF826C0761C6F46102E95
:104EF000EADB102607EB860A5AF8087C4FEA774C63
:104F00008CEAF74C8CEA972C5AF83C7C4FEAF7185D
:104F100088EAB74888EAD707BC445AF81C8C5AF884
:104F2000407C4744BC444DF826C0761C6F46402E5A
:104F3000E0DB00264FEAB21787EAF22787EA726CB5
:104F400002EA090725EA020887EA0807BC44204F5D
:104F500057F8268008EB0B07BC445DF82670AB467B
:104F60000CEB070A4FEAB30787EA733787EAB35CAB
:104F700081EA04074D4601EA040891461F400EEB02
:104F80000A02A64687EA08070C46BC441946761C66
:104F90000AEB0C03402ECDDB479E33440360469B57
:104FA0001944416045992144816044997144C1602C
:104FB000439911440161429949444161419929440D
:104FC000816140995944C16148B0BDE8F08F00004B
:104FD000886302082DE9F0471E4D81460E46286A77
:104FE0000024C90040182862696E274605F124088C
:104FF000E1B1C1F14004284600F12401406EA6420F
:10500000084409D322464946FBF77DF94146284624
:10501000FFF742FF6F6609E03246494613E000BFE2
:1050200009EB04010B48FFF737FF3C4604F140074A
:10503000B742F5D9A6420BD96B6E321B164609EB67
:10504000040103EB0800FBF75EF9686E3044686604
:10505000BDE8F087FC0600201CB5684600F000F9AA
:1050600000208DF80500684600F004F91CBD000022
:105070002DE9F043584C8BB02078401E022805D211
:1050800004F10C00FFF7A0F9002821D120780127B6
:1050900008B3514DDFF84481DFF844910C35A8F195
:1050A000040601281AD0022831D0032810D101A803
:1050B000FEF716FF002001A92B180A5C9B7E9A427E
:1050C0006AD0D3B247A203203168FFF761F8277096
:1050D0000BB0BDE8F083FFF7EBF9F8E7287800287C
:1050E000F6D102202070002060602081D8F80020D6
:1050F00002214846904720B143A203203168FFF7C0
:1051000047F8364813210C30FEF702FF41E02B78B8
:10511000022B07D0012B3AD040A203203168FFF7C1
:1051200037F8D5E72C4A1632009268682989034679
:10513000FEF793FC2A4F20893F1DC3193AA2002095
:105140003168FFF725F82089D8F804302A893844D7
:105150006968984720B138A203203168FFF718F832
:1051600020892989EA6B4318934205D9111A686886
:10517000FEF7B3FEA88F05E06868FEF7AEFE208953
:105180002989084420816068401C606001E0032098
:105190002070FFF79FF99BE7401C20288CDB0E490D
:1051A0000422D8F8043048314846984720B122A25A
:1051B00003203168FEF7ECFF24A201203168FEF7DE
:1051C000E7FF09A800F04CF88DF8287009A800F056
:1051D00051F82770DDE70000400500204000002066
:1051E000000006087369676E6174757265207665E4
:1051F00072696669636174696F6E206572726F723D
:105200002025303278000000666C6173682065727A
:10521000617365206572726F72000000636D6420B7
:105220006973202564000000777269746520746FCB
:105230002030782538780000666C617368207772BA
:10524000697465206572726F72000000646F776E1A
:105250006C6F616420737563636573730000000095
:10526000024906228B680146014818474000002089
:1052700000C0000870B5074C074E054622680121A2
:1052800030469047294630466368BDE870400622A4
:10529000184700004000002000C00008322000F045
:1052A00049F9FBE74FF47A740348FCF732F82046DB
:1052B00000F040F9F8E700005C010020FFF7CCFEA9
:1052C000FFF7D6FE322000F035F9F9E7D0E90132D8
:1052D00001699A60D0E901235A604A68824201D18B
:1052E00082684A60002202610868401E08600868FF
:1052F00070470000034B036003F15C0008608020EE
:1053000010607047080E0020044B036003F15C003E
:1053100008604FF480701060704700006410002037
:1053200000F108014FF0FF32C0E90112C1600161D4
:1053300000210160704700210161704730B50B68A2
:105340005A1C02D000F1080202E0026904E0224681
:10535000546825689D42FAD953684B6099608A6009
:10536000516008610168491C016030BD42684A60B3
:1053700093688B6093685960916008610168491C6B
:1053800001607047502080F31188BFF34F8FBFF347
:105390006F8F0A494868401C486001280CD10848B2
:1053A000006810F0FF0F07D0502080F31188BFF382
:1053B0004F8FBFF36F8FFEE7704700003C01002066
:1053C00004ED00E00849486828B1401E486001D15A
:1053D00080F311887047502080F31188BFF34F8FFE
:1053E000BFF36F8FFEE700003C01002070B500287E
:1053F0002AD0164DA0F1080460686969084207D1F7
:10540000502080F31188BFF34F8FBFF36F8FFEE7FB
:1054100022683AB1502080F31188BFF34F8FBFF359
:105420006F8FFEE78843606000F030F9606869685C
:10543000084468602046FFF747FA2869401C286145
:10544000BDE8704000F0B2BD70BD00001C0100203E
:105450004FF0E02000210161816105494FF47A722B
:105460000968B1FBF2F1491E4161072101617047F2
:105470003000002010B5FAF7EFFE114910280ED3C6
:1054800000F1E02090F8F0030A78904207D2502013
:1054900080F31188BFF34F8FBFF36F8FFEE709488A
:1054A0000068896800F4E060884207D9502080F3E2
:1054B0001188BFF34F8FBFF36F8FFEE710BD000061
:1054C0003C0100200CED00E010B5084B002200BFAD
:1054D00053F832401CB1521C082AF9D310BD43F8CE
:1054E000321003EBC201486010BD0000EC07002041
:1054F00070B515460E460446FFF744FF94F9441074
:105500000020491C01D184F8440094F94510491C3D
:1055100001D184F84500FFF755FFA06B28B92A4652
:10552000314604F1240000F051F82046BDE87040F7
:10553000FFF778BB10B5020014D00F48006B38B1EC
:10554000502080F31188BFF34F8FBFF36F8FFEE7BA
:1055500000F09CF800211046FEF7D0FF00F026FD79
:10556000002807D105494FF080500860BFF34F8FE6
:10557000BFF36F8F10BD0000C800002004ED00E0F5
:1055800002490A6A0260C96841607047C800002089
:1055900001490120C8617047C800002010B50C46C1
:1055A00050B1094909681831FFF7C8FE2046BDE827
:1055B00010400121FEF7A2BF502080F31188BFF3F5
:1055C0004F8FBFF36F8FFEE7C800002070B5144601
:1055D0000D4668B10A4909681831FFF7C7FE0CB1DA
:1055E0004FF0FF3521462846BDE87040FEF786BFE4
:1055F000502080F31188BFF34F8FBFF36F8FFEE70A
:10560000C800002030B587B00024039405AA04A97F
:1056100003A80494FFF76EFEDDE903010094CDE9D1
:105620000110002315A11748059A00F0A4FB164DA0
:105630000028E8621FD000F01BFD012809D0401CA3
:1056400019D1502080F31188BFF34F8FBFF36F8FB4
:10565000FEE7502080F31188BFF34F8FBFF36F8FA9
:105660004FF0FF30A86201206861EC6007B0BDE830
:10567000304000F045B807B030BD000049444C450B
:105680000000000095470208C80000200248016B96
:10569000491C016370470000C8000020164810B57F
:1056A000016B11B10121C16110BD0021C16101690E
:1056B000124A01E0B9B1491E01EB810352F82330CF
:1056C000002BF7D001EB810302EB830202F1080407
:1056D00053685B685360A34201D15B685360DA682A
:1056E0000260016110BD502080F31188BFF34F8F1D
:1056F000BFF36F8FFEE70000C80000202C080020D9
:105700001CB537480168374A914207D1502080F3D1
:105710001188BFF34F8FBFF36F8FFEE700683149E9
:10572000491E884207D1502080F31188BFF34F8F64
:10573000BFF36F8FFEE72C4908780190FF200870B7
:1057400008788DF800009DF800009DF8002000F01A
:10575000F000904207D0502080F31188BFF34F8FA4
:10576000BFF36F8FFEE79DF80000204C00F0500063
:1057700020700720A06005E09DF8002052008DF801
:105780000020401E9DF800201206F5D4A0600328DA
:1057900007D0502080F31188BFF34F8FBFF36F8F76
:1057A000FEE74FF44070A060019808700C4820306C
:1057B000016841F470010160016841F070410160CD
:1057C000FFF746FE00206060FAF70EFD084801680A
:1057D00041F040410160FAF7F3FC00201CBD0000DD
:1057E00000ED00E071C20F4100E400E03C01002048
:1057F00034EF00E010B5502080F31188BFF34F8FD5
:10580000BFF36F8F00F0F6FA18B104494FF08050E3
:105810000860002080F3118810BD000004ED00E056
:10582000F8B517460E46050013D005FB06F05030BC
:10583000FFF72EFA04000AD0002084F8460004F195
:1058400050023B46314628460094FEF7D3FF2046DF
:10585000F8BD502080F31188BFF34F8FBFF36F8FD7
:10586000FEE738B5049D18B153B1CAB181B120E04B
:10587000502080F31188BFF34F8FBFF36F8FFEE787
:10588000502080F31188BFF34F8FBFF36F8FFEE777
:10589000502080F31188BFF34F8FBFF36F8FFEE767
:1058A00039B1502080F31188BFF34F8FBFF36F8F52
:1058B000FEE750241C46012384F846302B46009412
:1058C000FEF798FF204638BD70B50D46040025D080
:1058D000FFF758FDD4E90F20216802FB0011A160F9
:1058E0000021A163216861600A46D4E90F01401ECE
:1058F00000FB0121E16021464FF0FF3001F8440F29
:10590000487004F110008DB1FFF70AFD04F1240086
:10591000FFF706FDFFF756FD012070BD502080F314
:105920001188BFF34F8FBFF36F8FFEE72169002906
:10593000F0D000F003FB0028ECD004494FF0805079
:105940000860BFF34F8FBFF36F8FE3E704ED00E014
:105950002DE9FF4782B01D468A464FF0000804003B
:1059600003D0BAF1000F08D011E0502080F3118865
:10597000BFF34F8FBFF36F8FFEE7206C38B150201D
:1059800080F31188BFF34F8FBFF36F8FFEE7022DB7
:105990000AD1E06B012807D0502080F31188BFF3B3
:1059A0004F8FBFF36F8FFEE700F010FA3F4F4FF0BD
:1059B00000094FF0805648B9049838B1502080F360
:1059C0001188BFF34F8FBFF36F8FFEE7FFF7DAFC4D
:1059D000A06BE16B884207D3022D05D00498D0B1AB
:1059E000B8F1000F1AD01EE02A4651462046FEF7B5
:1059F0005AFE616A19B104F1240000F09FFA20B147
:105A00003E60BFF34F8FBFF36F8FFFF7DBFC0120CA
:105A100006B0BDE8F087FFF7D5FC22E06846FFF747
:105A2000AFFD4FF00108FFF7CDFCFFF72FFEFFF7AA
:105A3000A9FC94F94400401C01D184F8449094F9E5
:105A40004500401C01D184F84590FFF7BBFC04A938
:105A5000684600F029F930B12046FFF7E3F800F07E
:105A6000A5FA0020D4E7FFF78DFCA06BE16B88421C
:105A700013D1FFF7A7FC04F110000499FFF78EFD86
:105A80002046FFF7CFF800F091FA00289ED13E6043
:105A9000BFF34F8FBFF36F8F98E7FFF793FC20465C
:105AA000FFF7C0F800F082FA90E7000004ED00E094
:105AB0002DE9F0471F4690468946040003D0B9F10E
:105AC000000F08D011E0502080F31188BFF34F8FF2
:105AD000BFF36F8FFEE7206C38B1502080F3118840
