:020000040800F2
:10000000505B002061020008331B0008ED18000857
:10001000311B0008AD030008211F0008000000008C
:10002000000000000000000000000000A101000826
:100030003904000800000000FD0100083D1B000815
:100040007B0200087B0200087B0200087B0200089C
:100050007B0200087B0200087B0200087B0200088C
:100060007B0200087B0200083B0400087B020008BA
:100070007B0200087B0200087B0200087B0200086C
:100080007B0200087B0200087B0200087B0200085C
:100090007B0200087B0200087B0200087B0200084C
:1000A0007B0200087B0200087B0200087B0200083C
:1000B0007B0200087B020008FD1B00087B02000891
:1000C0007B0200087B0200087B0200087B0200081C
:1000D0007B020008151F00087B0200087B02000855
:1000E0007B0200087B0200087B0200087B020008FC
:1000F0007B0200087B0200087B0200087B020008EC
:100100007B0200087B0200087B0200087B020008DB
:100110007B0200087B020008091C0008151C00086F
:100120007B0200087B020008B10300087B02000884
:100130007B0200087B0200087B0200087B020008AB
:100140007B0200087B0200087B0200087B0200089B
:100150007B0200087B0200087B0200087B0200088B
:100160007B0200087B0200087B0200087B0200087B
:100170007B0200087B0200087B02000800000000F0
:100180007B0200087B020008DFF810D000F0FCF8CA
:1001900000480047611F0008AFF30080505B00205B
:1001A0002C4B19680868B0E8F04F80F30988BFF35A
:1001B0006F8F4FF0000080F311887047000000003F
:1001C00008480068006880F308884FF0000080F35A
:1001D000148862B661B6BFF34F8FBFF36F8F00DF35
:1001E00000BF00BF08ED00E0DFF80C00016841F43B
:1001F00070010160704700BF88ED00E0EFF30980F7
:10020000BFF36F8F134B1A681EF0100F08BF20ED5D
:10021000108A20E9F04F106009B44FF0500080F3CD
:100220001188BFF34F8FBFF36F8F02F075FD4FF052
:10023000000080F3118809BC19680868B0E8F04F25
:100240001EF0100F08BFB0EC108A80F30988BFF3CE
:100250006F8F704728000020EFF305807047000083
:100260000648804706480047FEE7FEE7FEE7FEE750
:10027000FEE7FEE7FEE7FEE7FEE7FEE7ED1B000810
:10028000890100082DE9F05F0546002092469B4653
:1002900088460646814640241BE02846414647469C
:1002A000224600F061F853465A46C01A914110D3D5
:1002B00011461846224600F048F82D1A67EB01084F
:1002C0004F4622460120002100F03FF817EB0009BD
:1002D0004E41201EA4F10104DFDC484631462A4687
:1002E0004346BDE8F09F10B5431A934209D28318E4
:1002F000881803E010F8011D03F8011D521EF9D201
:1003000010BD40EA01039B0703D009E008C9121F92
:1003100008C0042AFAD203E011F8013B00F8013BBF
:10032000521EF9D210BDD2B201E000F8012B491ED5
:10033000FBD270470022F6E710B513460A46044682
:100340001946FFF7F0FF204610BD202A04DB203AB3
:1003500000FA02F1002070479140C2F1200320FA18
:1003600003F3194390407047202A04DB203A21FA16
:1003700002F00021704721FA02F3D040C2F12002BE
:100380009140084319467047064C074D06E0E06867
:1003900040F0010394E8070098471034AC42F6D3CC
:1003A000FFF7F6FE1C3800083C380008FEE70000A6
:1003B000014800F0A3B80000D40100200168182310
:1003C000CAB2103AB2FBF3F2054B6FF30901032AEC
:1003D0009B5CC36500D9091D816508467047000014
:1003E000F037000810B5014600208B698A6A4FF08B
:1003F000C07453B1B3F5005F15D072B1012A0CD0AF
:10040000022A0AD0032A09D104E01AB1012A06D02F
:10041000022A03D1C96AC90100D5012010BDC96AE9
:10042000A142FAD010BD002AF7D0012AF2D0022A48
:10043000F3D0032AF3D010BD7047102000F0A2B90A
:1004400072B6FEE72DE9F0410446876D00F0A8FA88
:10045000064694F835000025022806D08020606505
:1004600084F834500120BDE8F0812068016821F053
:10047000160101602068416921F080014161206C12
:1004800008B9A06C20B12068016821F00801016062
:100490002068016821F0010101600CE000F080FAA1
:1004A000801B052807D920206065032084F83500CB
:1004B00084F83450D7E720680068C007EED194F87C
:1004C0005C103F208840B860012084F8350084F833
:1004D00034500020C7E790F83510022903D080215E
:1004E000416501207047052180F8351000680168DA
:1004F00021F0010101600020704700002DE9F84360
:1005000004464FF00009CDF8009063484FF41651AF
:10051000A56D0068B0FBF1F72E6894F85C10082018
:1005200000FA01F131420FD021680A6852070BD559
:100530000A6822F004020A6094F85C108840A860FF
:10054000606D40F00100606594F85C104FF00108A8
:1005500008FA01F0304208D021684969090604D53B
:10056000A860606D40F00200606594F85C100420A3
:100570008840304208D021680968890704D5A860FE
:10058000606D40F00400606594F85C1010208840B5
:10059000304218D021680968090714D5A86020687E
:1005A0000168490304D50068000308D5A16C07E081
:1005B0000168C90503D4016821F008010160216CBC
:1005C00009B12046884794F85C10202088403042CA
:1005D00031D021680968C9062DD5A86094F8350086
:1005E00005282068016806D0490347D50068000344
:1005F0001DD4616C1CE021F0160101602068416986
:1006000021F080014161206C08B9A06C20B1206804
:10061000016821F00801016094F85C103F208840D7
:10062000A86084F8358084F83490216D1FE0E16B78
:1006300009B120468847606D00282BD0606DC00747
:1006400014D0052084F835002068016821F00101EC
:1006500001600098401C0090B84203D820680068F0
:10066000C007F6D184F8358084F83490E16C002915
:1006700010D001B02046BDE8F04308470168C90525
:10068000D5D4016821F01001016084F8358084F828
:100690003490CCE7BDE8F883240000202DE9F04138
:1006A000044600F07DF906465CB1022084F835006E
:1006B000002584F834502068016821F001010160B0
:1006C0000DE00120BDE8F08100F06AF9801B0528EB
:1006D00005D920206065032084F83500F2E7206802
:1006E0000068C007F0D12268116820480140D4E9B1
:1006F00001031843D4E903363343184363691843AD
:10070000A3691843E3691843236A18430843616ADD
:10071000042903D1D4E90B1319430843106020685E
:100720004069666A20F0070130460E43012704281D
:100730000CD1A06A0643E06A40B12046FFF752FEA2
:1007400020B14020606584F83570BAE720684661C2
:100750002046FFF733FE94F85C203F2191408160F2
:10076000656584F835700020ACE700003F8010F02C
:10077000102803D11021024800F008B9704700008A
:10078000000C0240044910B50A68024202D0086019
:10079000FFF7EEFF10BD0000143C01402DE9F84FBB
:1007A000DFF8BCA10022012503264FF00F090AF152
:1007B000040BAAF1040E00BF0B6805FA02F42340F3
:1007C000A34270D10F7907F00307012F01D0022F48
:1007D00016D187684FEA420806FA08FC27EA0C0798
:1007E000D1F80CC00CFA08FC4CEA070CC0F808C0A1
:1007F0004768A7430C79C4F3001494403C43446019
:100800000C79E443A4070AD0C4684FEA420C06FA04
:100810000CF7BC438F6807FA0CF72743C7600C79C5
:1008200004F00304022C12D1D40800EB840CDCF891
:1008300020405707FF0E09FA07F824EA0804D1F808
:10084000108008FA07F848EA0408CCF82080046809
:100850004FEA420C06FA0CF7BC430F7907F0030786
:1008600007FA0CF7274307604C6814F4403F70D038
:100870003C4C276847F480472760246822F0030730
:1008800004F480440094384C07EB040CDCF808486E
:1008900097074FEA177809FA08F7BC43334FB84275
:1008A00002D1002724E054E0314FB84201D10127A2
:1008B0001EE0304FB84201D1022719E02E4FB84256
:1008C00001D1032714E02D4FB84201D104270FE0D6
:1008D0002B4FB84201D105270AE02A4FB84201D177
:1008E000062705E0284FB84201D1072700E0082776
:1008F00007FA08F72743CCF80878DAF8004057469B
:10090000D1F804C09C435FEACC2C00D51C433C606A
:10091000DBF800405F46D1F804C09C435FEA8C2CB2
:1009200000D51C433C60DEF800407746D1F804C097
:100930009C435FEA8C3C00D51C433C60084F083F59
:100940003C68D1F804C09C435FEACC3C00D51C4312
:100950003C60521C102AFFF42FAFBDE8F88F000056
:10096000083C014044380240003001400000024091
:100970000004024000080240000C02400010024047
:100980000014024000180240001C024000690840A8
:1009900000D0012070470AB1816170470904FBE76C
:1009A00001488068704700001800002002488168F4
:1009B0000278114481607047180000200B4810B580
:1009C000016841F400710160016841F480610160D7
:1009D000016841F480710160032000F09FF80F204E
:1009E00000F006F800F050F8002010BD003C024076
:1009F00030B505461F4887B00024016841F0040166
:100A00000160006806A900F00400009001A800F051
:100A100031F90498A8B100F04DF940001649174A81
:100A2000B0FBF1F11648491E026040F2E732C0E91E
:100A30000324C0E90114846100F034FC040003D0F5
:100A400015E000F037F9E9E70D4800F08BFC0400F1
:100A50000DD11E2000F034F8102D07D200222946B7
:100A60001E2000F03BF80748056000E0012407B0B5
:100A7000204630BD4038024040420F000008004090
:100A8000340200201C0000200C4882B0016841F4B0
:100A900080410160006800F4804000900748001F1A
:100AA000016841F0805101600068002200F0805030
:100AB00000900F21901E02B000F010B844380240A0
:100AC000002809DB00F01F0201219140400980004D
:100AD00000F1E020C0F8001170470000F0B40E4BA8
:100AE0001B680C46C3F30223C3F10705042D00D98C
:100AF0000425191D072901D2002300E0DB1E012671
:100B000006FA05F1491E214099409E40761E164086
:100B10003143F0BC01F005BA0CED00E0064900F0ED
:100B2000070208684FF6FF03184040EA0220034A14
:100B300010430860704700000CED00E00000FA056B
:100B40002DE9F0470E46050065D0DFF81481D8F88E
:100B50000000F7B200F00700B04207D288F800703A
:100B6000D8F8000000F00700B04254D128683D4C8E
:100B7000810712D5400703D5206840F4E05020607B
:100B80002878000703D5206840F460402060206882
:100B9000A96820F0F000084320602878C0072DD015
:100BA000304968680839012812D0022813D0032878
:100BB00011D00968890700292DDA216821F0030185
:100BC00001432160FFF7ECFE814641F2883A0EE0D6
:100BD00009688903EFE709688901ECE7FFF7E0FEA0
:100BE000A0EB0901514502D90320BDE8F087206838
:100BF000696800F00C00B0EB810FEFD1D8F800105D
:100C0000404601F00701B14207D90770006800F0C3
:100C10000700B04201D00120E7E72878400705D55A
:100C20002068E96820F4E050084320602878000735
:100C300006D52068296920F4604040EAC1002060A0
:100C400000F058F82168084AC1F30311515CC8400C
:100C50000649086006480068FFF7CAFE0020C4E79E
:100C6000003C024008380240F83700082400002009
:100C70001C0000200F2202600C4A136803F00303DB
:100C80004360136803F0F0038360136803F4E053D8
:100C9000C36012684FF4E05303EAD20202610448D1
:100CA000006800F007000860704700000838024044
:100CB000003C02400448054900680968044AC1F341
:100CC0008221515CC840704724000020083802404F
:100CD000083800080448054900680968044AC1F357
:100CE0004231515CC840704724000020083802405F
:100CF00008380008154810B5006810F00C021448B8
:100D000013D04110042A0FD0082A0ED10F4C241FF3
:100D10002268236802F03F025B0207D52068C0F317
:100D20008810A0FB010106E0084610BD2168C1F350
:100D30008811A1FB00010023FFF7A4FA2168C1F389
:100D40000141491C4900B0FBF1F010BD08380240D8
:100D50000024F4002DE9F84F04006ED02078DFF86D
:100D60004C93C007A9F104054AD009F104000168B9
:100D7000C1F38101012908D00068C0F38100022875
:100D80000AD1D9F80000400206D52868800337D57B
:100D900060680028E1D033E06068B0F5803F10D093
:100DA000B0F5A02F286810D020F480302860286883
:100DB00020F4802028606068A8B1FFF7F1FD0646A6
:100DC0000DE0286840F48030F4E740F4802028608B
:100DD000F7E700BFFFF7E4FD801B642873D828689D
:100DE0008003F7D50CE0FFF7DBFD064605E000BF0A
:100DF000FFF7D6FD801B6428F0D828688003F7D45D
:100E00002078DFF8AC8280074FF0000A3ED5A74873
:100E1000001D016811F00C0F08D00068C0F38100BC
:100E200002280BD1D9F80000400207D428688007B7
:100E300016D5E068012800D112E033E1E068B8B1CE
:100E40000120C8F80000FFF7ABFD064605E000BF33
:100E5000FFF7A6FD801B0228C0D828688007F7D5B9
:100E60002868216920F0F80040EAC10028600DE000
:100E7000C8F800A0FFF794FD064604E0FFF790FDD8
:100E8000801B02281FD828688007F7D42078000725
:100E900022D5864F87486169703771B101210160A1
:100EA000FFF77EFD064604E0FFF77AFD801B02286F
:100EB00009D838688007F7D50EE0C0F800A0FFF722
:100EC0006FFD064605E082E0FFF76AFD801B022801
:100ED0007DD838688007F7D42078400768D5DFF8D8
:100EE000CCB100270BF13C0BDBF80000C0000BD4A9
:100EF000DBF8001041F08051CBF80010DBF8000067
:100F0000012700F0805000906B4E3068C00510D46F
:100F1000306840F480703060FFF742FD009005E0DB
:100F2000FFF73EFD0099401A022850D83068C005EE
:100F3000F6D55E4EA0686C3601280FD005283068C3
:100F400010D020F001003060306820F004003060E4
:100F5000A068B8B1FFF724FD00900FE0306840F0C2
:100F60000100F4E740F004003060F7E7FFF718FDF8
:100F70000099411A41F28830814266D83068800772
:100F8000F4D50EE0FFF70CFD009007E0FFF708FD39
:100F90000099411A41F28830814256D83068800762
:100FA000F4D42FB1DBF8001021F08051CBF8001001
:100FB000A069C8B33D49091D0968C1F3810102292F
:100FC0004AD00228504607D0C8F8600000E03CE054
:100FD000FFF7E6FC04463BE04746C8F86000FFF731
:100FE000DFFC064605E000BFFFF7DAFC801B0228A5
:100FF0002BD828688001F7D4D4E907010843A16AF7
:101000002E4A490802EB0141626A41EA8211084313
:1010100094F82C1040EA0161C9F8001001203866EC
:10102000FFF7BEFC044606E03EE000BFFFF7B8FC59
:10103000001B022809D828688001F7D534E000BFDA
:10104000FFF7AEFC001B022802D90320BDE8F88F91
:1010500028688001F4D427E00128F7D0D9F80000EF
:10106000E26900F4800191421CD1226A00F03F0144
:10107000914217D147F6C071626A0140B1EB821FFD
:1010800010D1A26A4FF0FF3300F4403103EB52025B
:10109000B1EB024F06D194F82C1000F07060B0EB69
:1010A000016F01D00120D1E70020CFE704380240D2
:1010B00000004742800E4742007000400000FFFFE2
:1010C00070B5040009D0606A002540B125616561F2
:1010D000A56294F8510040B10CE0012070BD606839
:1010E000B0F5827FF4D0E561F2E784F850502046F5
:1010F00000F044F8022084F851002068016821F0D3
:1011000040010160A088218900F4827001F404414B
:101110000843A18901F400610843217C01F0020128
:101120000843217D01F001010843218B01F4007186
:101130000843217F01F03801084394F8201001F0A2
:1011400080010843218D01F40051084321680860A3
:10115000A069042101EA104094F8241001F0100164
:101160000843216848602068C16921F40061C161B9
:101170006565012084F85100002070BDF0B587B08E
:10118000044614216846FFF7D5F81D4920688842B7
:1011900033D11C480024016841F40041016000681B
:1011A00000F40040059017481038016841F0010133
:1011B0000160016801F001010591016841F002013F
:1011C00001600068022500F0020005904FF4004025
:1011D000CDE9000502AA0326062782E8D000694669
:1011E0000948FFF7DBFA3820CDE9000502AA694675
:1011F00082E8D0000548FFF7D1FA07B0F0BD000043
:10120000003C004040380240000002400004024020
:101210007047704770B590F83C20012A32D0012405
:1012200080F83C40022280F83D2003685A689D689F
:1012300022F070060A6832435A60134B02689A42E1
:1012400014D0B2F1804F11D0104B9A420ED0104BF7
:101250009A420BD00F4B9A4208D00F4B9A4205D0BE
:101260000E4B9A4202D00E4B9A4204D1496825F0A7
:1012700080031943916080F83D40002180F83C10C4
:10128000084670BD022070BD00000140000400400F
:1012900000080040000C00400004014000400140F4
:1012A0000018004010B5040003D094F83D0010B1C0
:1012B00007E0012010BD002084F83C00204600F02B
:1012C0001FF8022084F83D00211D206800F0A8FCD2
:1012D000012084F8460084F83E0084F83F0084F83A
:1012E000400084F8410084F8420084F8430084F808
:1012F000440084F8450084F83D00002010BD000043
:1013000008B5154A0168154891420ED1016841F0AF
:10131000100101600068002200F01000009005211B
:101320003620FFF7DBFB362010E00D4A914211D149
:10133000016841F0200101600068002200F02000F7
:10134000009005213720FFF7C9FB3720BDE8084092
:10135000FFF7B6BB08BD0000001000404038024057
:101360000014004090F83D10012901D00120704781
:10137000022180F83D100168CA6842F00102CA608B
:1013800000681149884214D0B0F1804F11D00F4944
:1013900088420ED00E4988420BD00E49884208D0B0
:1013A0000D49884205D00D49884202D00C49884237
:1013B00004D1816801F00701062903D0016841F0DA
:1013C000010101600020704700000140000400405E
:1013D00000080040000C00400004014000400140B3
:1013E00000180040704770B50446006801694FF06E
:1013F0000005C943890715D4C168C943890711D4B9
:10140000E91E01610120207720688069800720465D
:1014100002D0FFF7E7FF04E000F098F8204600F064
:1014200096F8257720680169C943490717D4C16830
:10143000C943490713D46FF00401016102202077EA
:101440002068806910F4407F204602D0FFF7CAFF71
:1014500004E000F07BF8204600F079F8257720685A
:101460000169C943090716D4C168C943090712D4E1
:101470006FF008010161042020772068C0698007AF
:10148000204602D0FFF7AEFF04E000F05FF82046F0
:1014900000F05DF8257720680169C943C90617D4B3
:1014A000C168C943C90613D46FF010010161082057
:1014B00020772068C06910F4407F204602D0FFF7F3
:1014C00091FF04E000F042F8204600F040F8257754
:1014D00020680169C943C90708D1C168C943C90760
:1014E00004D1891E0161204600F032F820680169AC
:1014F000C943090609D4C168C943090605D46FF078
:10150000800101612046FFF783FE20680169C9431D
:10151000490609D4C168C943490605D46FF04001A2
:101520000161204600F01EF820680169C943890660
:101530000BD4C168C943890607D46FF0200101614B
:101540002046BDE87040FFF764BE70BD704770472D
:1015500000680349884201D1FFF728BA70470000AC
:10156000000800407047704770470000F8B50168F8
:1015700004460868CA684B6910F00F0F4FF0000569
:1015800059D003F0010602F49077374365D0C107C4
:1015900005D0D10503D5216C41F00101216441073B
:1015A00005D5D90703D0216C41F0020121648107E0
:1015B00005D5D90703D0216C41F00401216401074E
:1015C00007D502F02001314303D0216C41F008011E
:1015D0002164216C00293AD0800604D5900602D5FA
:1015E000204600F0B0FB20684069216CC0F38010F9
:1015F000090700D460B3204600F07EFB20684069F4
:10160000400621D52068143050E8001F21F0400129
:1016100040E80012002AF5D1A06BA8B16C49016521
:10162000A06BFEF758FF002811D0A06B016D01B030
:10163000BDE8F040084783060FD593060DD5204638
:10164000BDE8F84000F07FBB2046FFF78DFFF8BDF6
:101650002046FFF789FF2564F8BD266B2023012E65
:1016600079D1C60677D5D60675D508684868009042
:101670004869400640D5A16B086840680004000C2A
:10168000EAD0A28D8242E7D9E085C869B0F5807FB3
:101690002DD020680C3050E8001F21F4807140E804
:1016A0000012002AF5D12068143050E8001F21F004
:1016B000010140E80012002AF5D12068143050E8FA
:1016C000001F21F0400140E80012002AF5D184F803
:1016D0003E30256320680C3050E8001F21F01001D7
:1016E00040E80012002AF5D1A06BFEF7ABFEA08DFA
:1016F000E18D401A81B229E0A08DE18D401A81B2BE
:10170000E08D0028A8D00029A6D020680C3050E831
:10171000002F22F4907240E80026002EF5D12068B8
:10172000143050E8002F22F0010240E80026002E7D
:10173000F5D184F83E30256320680C3050E8002F46
:1017400022F0100240E80023002BF5D12046FFF7DD
:101750000AFFF8BDFFE705062BD5150629D594F835
:101760003D002128F5D1A068B0F5805F01D1206946
:10177000B0B1206A411C2162216800784860E08C89
:10178000401E0004000CE084E3D12068C16821F011
:101790008001C1602068C16841F04001C160D8E7A4
:1017A000206A0088C0F308004860206A801C20621C
:1017B000E5E74006CDD55006CBD5CA68204622F0D5
:1017C0004002CA6084F83D3000F08FF8C1E70000A5
:1017D000E91C000870B5040004D094F83D00002511
:1017E00010B106E0012070BD84F83C50204600F0A6
:1017F00023F8242084F83D002068C16821F40051BA
:10180000C160204600F000FB2068016921F490418E
:1018100001612068416921F02A0141612068C168A5
:1018200041F40051C1602564202084F83D0084F813
:101830003E00002070BD000070B586B00646142141
:101840006846FEF777FD23493068884240D1224838
:101850000025016841F010010160006800F01000EF
:1018600005901D481438016841F0010101600068CD
:10187000694600F0010005904FF4C060009002201E
:10188000CDE9010503200390072004901348FEF7DB
:1018900085FF144C124820604FF00060C4E9010538
:1018A0004014C4E903506561A561E56125622046E5
:1018B0006562FEF7F3FE08B1FEF7C2FDB4630022D5
:1018C00005212520A663FFF709F92520FFF7F8F881
:1018D00006B070BD001001404438024000000240D4
:1018E00040640240D401002070477047FEE70000CA
:1018F000094808B5016841F48001016000680022D0
:1019000000F48000009005213A20FFF7E7F8BDE8D9
:1019100008403A20FFF7D4B8303802401CB5012007
:1019200001F0BCFA164C00220821E060052001F00D
:10193000C0FA2061134A0021134800F063FB606184
:1019400020460324CDE90040002380220FA1124845
:1019500001F02EFD0A480023001DCDE90040802241
:101960000EA1104801F024FD054800230830CDE900
:1019700000404FF400720CA10E4801F019FD1CBD8F
:1019800000000020CC370008351B00085043445F9E
:101990005461736B000000004529000846505F54F5
:1019A00061736B00472900084C56474C5F546173C4
:1019B0006B0000004929000830B587B01421684643
:1019C000FEF7B8FC1648016841F08001016001682B
:1019D00001F080010591016841F001010160016899
:1019E00001F001010591016841F002010160006808
:1019F0000C4D00F002004FF4407405900122214686
:101A00002846FEF7C8FF01210220CDE90210CDE9EA
:101A1000004169462846FEF7C1FE07B030BD000010
:101A20003038024000040240104810B50E490160F1
:101A30004FF482714160002102228160C0E90312EB
:101A400001224261520282610822C0E907214162FB
:101A500081620A21C162FFF733FB002803D0BDE891
:101A60001040FEF7EDBC10BD003C0040A800002077
:101A70001CB500240E4800940C490194016042F208
:101A8000CF01C0E9011409218461C160FFF70AFC9C
:101A900008B1FEF7D5FC0094694605480194FFF7AC
:101AA000B9FB002801D0FEF7CBFC1CBD00100040A4
:101AB000000100201CB500240E4800940C4901943C
:101AC000016042F2CF01C0E9011463218461C16069
:101AD000FFF7E8FB08B1FEF7B3FC00946946054840
:101AE0000194FFF797FB002801D0FEF7A9FC1CBD6D
:101AF00000140040480100200C4810B50A4901605C
:101B00004FF4E1314160002181600C22C160C0E9E5
:101B100004128161C161FFF75DFE002803D0BDE8BA
:101B20001040FEF78DBC10BD001001409001002058
:101B3000FEE7FEE7012000F02AFAFBE710B54FF0C0
:101B4000E020006901F08CFC012803D0BDE81040C2
:101B500001F08EB910BD000030B593B03021684659
:101B6000FEF7E8FB14210CA8FEF7E4FB1D48002556
:101B7000016841F080510160006800F080501190D0
:101B80001948016841F4804101600068022400F4B2
:101B90008040119001200090000401908001CDE967
:101BA000064008AA0420A82182E813000B9068468A
:101BB000FFF7D0F808B172B6FEE70CA90F2081E854
:101BC00031004FF4A0500F904FF480501090052139
:101BD0000CA8FEF7B5FF002801D072B6FEE713B0DF
:101BE00030BD0000403802400070004002480168EB
:101BF00041F470010160704788ED00E00148FFF793
:101C0000F2BB0000340200200148FFF7ECBB0000EB
:101C1000000100200148FFF7E6BB0000480100205A
:101C2000F0B50268254C264D264E274F274B4FF026
:101C3000804CA04209D0604507D0A84205D0B042F0
:101C400003D0B84201D0984204D122F0700E4A6805
:101C500042EA0E02A0421BD0604519D0A84217D01C
:101C6000B04215D0B84213D0984211D0184DA842B6
:101C70000ED0184DA8420BD0174DA84208D0174DD2
:101C8000A84205D0164DA84202D0164DA84203D155
:101C900022F44075CA682A434D6922F080022A4323
:101CA00002608A68C2620A688262A04201D09842D9
:101CB00001D10969016301214161F0BD00000140CA
:101CC0000004004000080040000C004000040140F7
:101CD000004001400044014000480140001800401D
:101CE000001C00400020004010B5806B0021C18521
:101CF000C184FFF739FC10BD01680C3151E8002F99
:101D000022F4907241E80023002BF5D101681431D0
:101D100051E8002F22F0010241E80023002BF5D109
:101D2000016B012909D101680C3151E8002F22F023
:101D3000100241E80023002BF5D1202180F83E104D
:101D400000210163704708B590F83E10222901D0A8
:101D5000022008BD82684FF480539A4201D1016984
:101D600021B1816A9A421BD04AB10AE00268816AB5
:101D70005268C2F308020A80816A891C08E002697D
:101D800072B10268526802F07F020A70816A491CCF
:101D90008162C18D491E0904090CC18503D019E077
:101DA00002685268F1E70168CA6822F02002CA603E
:101DB0000168CA6822F48072CA6001684A6922F028
:101DC00001024A61202180F83E10016B012903D0F5
:101DD000FFF78AFD002008BD0021016301680C3176
:101DE00051E8002F22F0100241E80023002BF5D12A
:101DF00001680A68D20602D50A6849680091818D97
:101E0000FFF7B1FBE6E7000070B504460068016922
:101E1000E26821F44051114301612169A068E2693F
:101E200008436169114308432168CA6849F20C6399
:101E30009A430243CA6020684169A26921F4407153
:101E40001143416131492068884202D030498842BB
:101E500002D1FEF73FFF01E0FEF72CFFE26900230D
:101E6000192164253226B2F5004F626828D0A0FB04
:101E70000101930F9200FEF705FA0146B0FBF5F061
:101E80006FF01802504301EB800006EB0010B0FB2E
:101E9000F5F000F0F002B1FBF5F002EB0012B1FB3F
:101EA000F5F06FF01803584301EB800006EB0010CB
:101EB000B0FBF5F000F00F0021681044886070BDA1
:101EC000A0FB010192185B41FEF7DCF90146B0FB73
:101ED000F5F00201B1FBF5F06FF01803584301EB88
:101EE000800006EBC000B0FBF5F000F0F80002EB5C
:101EF0004002B1FBF5F0584301EB800006EBC00057
:101F0000B0FBF5F000F00700D6E70000001001403C
:101F1000001401400148FFF729BB00009001002098
:101F2000FEE70907090E002804DB00F1E02080F835
:101F30000014704700F00F0000F1E02080F8141D3D
:101F4000704702E008C8121F08C1002AFAD1704782
:101F50007047002001E001C1121F002AFBD1704729
:101F6000FEF72CFDFFF7F8FDFFF726FDFFF7C0FC9D
:101F7000FFF77EFDFFF79EFDFFF756FDFFF7BCFD67
:101F800000F012F8FFF7CAFC00F020F8FEE710B5E9
:101F9000EFF3058111B16FF0050403E0002408B1EF
:101FA00000F006FE204610BDEFF3058010B16FF083
:101FB000050070470448016811B14FF0FF307047C9
:101FC00001210160002070477800002010B5EFF378
:101FD000058010B16FF0050010BD084801680129A7
:101FE00002D04FF0FF3010BD054A002182F8141DC9
:101FF0000221016000F044FE002010BD78000020A6
:102000000BE000E02DE9FF414FEA01034FF000052E
:10201000EFF30581039549BB40B3802718210024C5
:102020004AB3166806B1344696691EB13146761E2B
:10203000382E02D21679F60703D0002004B0BDE88E
:10204000F081566906B1B708D2F808C0BCF1000F9C
:102050000DD0D5685C2D18D312693AB136B18DE830
:1020600006103A46214601F0D0F903900DE0D668FB
:102070005EB912694AB903AACDE90012BAB2214683
:1020800001F096F9012800D003950398D6E70000E7
:102090002DE9F041134C0F460546E6682068001D07
:1020A00000F053FC681C07D137B12168BDE8F0414E
:1020B0000D48091D00F098BC20683544B5424560C4
:1020C000216805D2A06BBDE8F041091D00F074BC89
:1020D000606B091D00F070FCA06A854200D2A56209
:1020E000BDE8F081280000206C0700202DE9F041B8
:1020F000054600F085FC2D4CA068401CA0602068BF
:102100002B4F10B1606930B32BE02560A068012827
:1021100027D1002606EB860007EB800000F03EFC8E
:10212000761C382EF6D3234800F038FC21481430B2
:1021300000F034FC1F48283000F030FC1D483C30D3
:1021400000F02CFC1B48503000F028FC194860635C
:102150001430A06305E02068E96AC06A884200D8AC
:102160002560606A401C60626864E86A2169884290
:1021700000D9206100EB800007EB8000291D00F0F2
:1021800033FC00F05DFC606900280CD02068E96A2F
:10219000C06A884207D208494FF080500860BFF3F8
:1021A0004F8FBFF36F8FBDE8F08100002800002043
:1021B000BC0200201C07002004ED00E038B500F050
:1021C0001FFC104C2068C8B90F4800F0E7FB0E4810
:1021D000143000F0E3FB0C48E060143020610A4B3F
:1021E0000020F03B009003F1500210210A2000F083
:1021F00081FE206010B105A100F0A4FCBDE83840CC
:1022000000F01EBC6400002070080020546D725164
:102210000000000030B4026C0B46002A0BD0C168ED
:102220001144C1608468A14201D30168C16030BC1F
:102230001846FEF758B830BC70472DE9F041856B61
:10224000174604460026026C82B1C7B1E068FEF76B
:102250004AF8E168206C091AE1602268914202D2D2
:10226000A168081AE060022F16D017E02068A8B90C
:10227000A06801F06DF906460020A0600EE06068DD
:10228000FEF731F8216C606808446060A1688842FC
:1022900004D32068606001E005B16D1E6D1CA5636C
:1022A0003046BDE8F08110B5044690F8590058B1A9
:1022B00001280CD002280FD0502080F31188BFF3E2
:1022C0004F8FBFF36F8FFEE7206B00F0CDFB2046F2
:1022D000BDE8104000F0C8BB10BD000010484FF42E
:1022E0007051420706D0C01D0D4920F00700411A69
:1022F000C1F570510B4A00230144C2E900030839BB
:10230000183A21F0070111604B600B600B1AC0E90D
:10231000001393604FF0004053605061704700001D
:10232000500F002094000020144E154CA6F29C473C
:102330004FF08058DFF84C9012E000BF00F060FBD7
:10234000F068C568281D00F000FBA068401EA06072
:102350006068401E606000F073FB2846FFF7A3FF33
:1023600060680028EAD138680128F9D9C9F80080E6
:10237000BFF34F8FBFF36F8FF2E7000058070020C5
:102380002800002004ED00E0002807D00021816033
:1023900001600B460A46C16000F024BE7047000091
:1023A00070B51D46049C51B1C4F80020C4E90F016A
:1023B0000121204600F0D2FD84F84C5070BD24600D
:1023C000F4E700002DE9F05F8846DDE90B9415463F
:1023D000834691009A460A9EA522206BFDF7A3FF33
:1023E0006FF00301206B01EB8501084420F0070723
:1023F000780707D0502080F31188BFF34F8FBFF3C9
:102400006F8FFEE70025B8F1000F0FD05FF00000DE
:10241000221818F8001082F8341018F8001011B1C2
:10242000401C1028F4D384F8435001E084F8345061
:10243000382E00D33726E662C4E91365201D00F06C
:10244000B8FA04F1180000F0B4FA2461C6F13800BB
:102450006462A061656584F8585052465946384612
:1024600000F05AFA2060B9F1000F01D0C9F800401D
:10247000BDE8F09F30B5114900E011460A6882427C
:10248000FBD34B685C18844203D140681844486011
:10249000084643681C18944209D1084C183C24682B
:1024A000A24209D052681A4442600A681268026067
:1024B000814200D0086030BD0460F9E7940000203C
:1024C00070B5002441600B4D0061914206D8D11ACD
:1024D0008269914206D2011D286907E09A4203D21F
:1024E000994201D3012403E0011DE86800F064FA79
:1024F000204670BD6400002010B5044600F080FA4C
:10250000A06B28B15FF0000400F09AFA204610BDDD
:102510000124F9E730B589B03C4D6EE004980028FD
:1025200006DADDE90601059A90470498002864DB85
:10253000069C606910B1201D00F007FA03A800F0A6
:10254000D7F8024604980A2857D2DFE800F00505BC
:10255000052D334A05052D3394F8280040F001007D
:1025600084F828000599A069059B01442046FFF7DF
:10257000A7FF68B3216A2046884794F828004007DF
:102580003BD5002000900598A16900234218194608
:10259000204601F0E7F8D8B9502080F31188BFF346
:1025A0004F8FBFF36F8FFEE714F8280F20F0010064
:1025B000207022E094F8280040F0010084F8280000
:1025C0000598A06128B1811813462046FFF778FFCF
:1025D00013E0502080F31188BFF34F8FBFF36F8F4C
:1025E000FEE794F82800810703D4204600F03CFA67
:1025F00003E020F0010084F82800002204A92868E4
:1026000000F000FE002889D109B030BD6400002030
:102610002DE9FC410F46054600F076FB01A800F0CD
:1026200067F80446019818B101F00AF8BDE8FC818A
:10263000254EAFB130690068D0B30027291B3A4658
:10264000306800F093FA00F0FBFF0028EED11F493C
:102650004FF080500860BFF34F8FBFF36F8FE5E7F7
:10266000A542EBD800F0ECFFF0682746C068C468CC
:10267000201D00F06AF994F82800410719D5A069D7
:102680002B4641193A462046FFF71AFFA8B1002011
:102690000346014600902A46204601F063F860B9DF
:1026A000502080F31188BFF34F8FBFF36F8FFEE789
:1026B00007E020F0010084F82800216A20468847BE
:1026C000B4E70127BAE700006400002004ED00E051
:1026D0000648416B096829B1416BC968C9684968F6
:1026E000816270474FF0FF31FAE7000028000020B8
:1026F00070B5054600F0C2FE064E0446B06884423E
:1027000003D200F009F8012000E0002028602046F4
:10271000B46070BD64000020F8B5194D20E0C068B9
:10272000C4680668201D00F010F9216A2046884719
:1027300094F82800400713D5A0693044B04206D968
:1027400024616060211DE86800F036F908E000208F
:102750000346014600903246204601F003F838B1A6
:10276000E86801680029DAD12969C5E90310F8BDD4
:10277000502080F31188BFF34F8FBFF36F8FFEE7B8
:102780006400002008484068401C4FF0500080F36F
:10279000118804D0BFF34F8FBFF36F8FFEE7BFF3F5
:1027A0004F8FBFF36F8FFEE79C000020074CE0685F
:1027B000016841B1C0680021D0F80000FFF728FF90
:1027C000FFF7A8FEF3E701210020F7E764000020EF
:1027D0002DE9F041044600F013F994F9455004F155
:1027E000240609E0606A48B1304600F0F1FE08B105
:1027F00000F00CFA6D1E6DB2002DF3DC4FF0FF36C9
:1028000084F8456000F01CF900F0FAF894F944509F
:1028100004F1100709E0206948B1384600F0D8FEFD
:1028200008B100F0F3F96D1E6DB2002DF3DC84F8F1
:102830004460BDE8F04100F003B900002DE9F0412B
:102840000546002700F060FA324E306808B9FFF7FD
:1028500045FD706905424ED1C5B3083568070ED0F5
:1028600005F00700C0F108000544680707D05020B4
:1028700080F31188BFF34F8FBFF36F8FFEE72DB347
:102880007068854237D82348183001460C6801E04B
:1028900020460C466168A94202D221680029F7D17E
:1028A00031688C4227D0076821680160606808376A
:1028B000411B10290FD96019420708D0502080F31E
:1028C0001188BFF34F8FBFF36F8FFEE713E04160B6
:1028D0006560FFF7CFFD61687068401A7060B2688C
:1028E000904200D2B060706901430020C4E9000149
:1028F000F068401CF06000F0A3FE780707D050207D
:1029000080F31188BFF34F8FBFF36F8FFEE7384618
:10291000BDE8F0817C00002010B5031F4FF08074EB
:102920001C601B1F21F001011960191F044B0B6073
:1029300014390A60091F6FF0020244380A6010BDA2
:1029400085270008704770477047D0E90132016958
:102950009A60D0E901235A604A68824201D18268B4
:102960004A60002202610868401E086008687047DB
:10297000034B036003F15C00086080201060704727
:1029800098080020044B036003F15C0008604FF4DA
:102990008070106070470000F40A002000F1080108
:1029A0004FF0FF32C0E90112C160016100210160F6
:1029B000704700210161704730B50B685A1C02D086
:1029C00000F1080202E0026904E02246546825682A
:1029D0009D42FAD953684B6099608A6051600861E2
:1029E0000168491C016030BD42684A6093688B6091
:1029F00093685960916008610168491C01607047E3
:102A0000502080F31188BFF34F8FBFF36F8F0A49B7
:102A10004868401C486001280CD10848006810F044
:102A2000FF0F07D0502080F31188BFF34F8FBFF303
:102A30006F8FFEE7704700009C00002004ED00E06F
:102A40000849486828B1401E486001D180F31188C8
:102A50007047502080F31188BFF34F8FBFF36F8F03
:102A6000FEE700009C00002070B500282AD0164D1B
:102A7000A0F1080460686969084207D1502080F31A
:102A80001188BFF34F8FBFF36F8FFEE722683AB113
:102A9000502080F31188BFF34F8FBFF36F8FFEE795
:102AA0008843606000F030F96068696808446860D5
:102AB0002046FFF7DFFC2869401C2861BDE8704014
:102AC00000F0BEBD70BD00007C0000204FF0E02093
:102AD00000210161816105494FF47A720968B1FBF7
:102AE000F2F1491E41610721016170472400002075
:102AF00010B5FDF7B1FB114910280ED300F1E0200D
:102B000090F8F0030A78904207D2502080F31188A1
:102B1000BFF34F8FBFF36F8FFEE7094800688968E6
:102B200000F4E060884207D9502080F31188BFF399
:102B30004F8FBFF36F8FFEE710BD00009C00002099
:102B40000CED00E010B5084B002200BF53F83240F6
:102B50001CB1521C082AF9D310BD43F8321003EB04
:102B6000C201486010BD00007C02002070B515460F
:102B70000E460446FFF744FF94F944100020491C18
:102B800001D184F8440094F94510491C01D184F81E
:102B90004500FFF755FFA06B28B92A46314604F1DE
:102BA000240000F051F82046BDE87040FFF710BE49
:102BB00010B5020014D00F48006B38B1502080F3DC
:102BC0001188BFF34F8FBFF36F8FFEE700F09CF8C3
:102BD00000211046FFF75CFA00F032FD002807D113
:102BE00005494FF080500860BFF34F8FBFF36F8FE0
:102BF00010BD00002800002004ED00E002490A6A30
:102C00000260C96841607047280000200149012026
:102C1000C86170472800002010B50C4650B1094922
:102C200009681831FFF7C8FE2046BDE810400121B1
:102C3000FFF72EBA502080F31188BFF34F8FBFF3F8
:102C40006F8FFEE72800002070B514460D4668B16E
:102C50000A4909681831FFF7C7FE0CB14FF0FF357C
:102C600021462846BDE87040FFF712BA502080F395
:102C70001188BFF34F8FBFF36F8FFEE7280000204E
:102C800030B587B00024039405AA04A903A80494CE
:102C9000FFF76EFEDDE903010094CDE9011000238A
:102CA00015A11748059A00F0B0FB164D0028E86200
:102CB0001FD000F027FD012809D0401C19D1502059
:102CC00080F31188BFF34F8FBFF36F8FFEE7502063
:102CD00080F31188BFF34F8FBFF36F8F4FF0FF303A
:102CE000A86201206861EC6007B0BDE8304000F0E8
:102CF00045B807B030BD000049444C450000000015
:102D000029230008280000200248016B491C0163A8
:102D10007047000028000020164810B5016B11B163
:102D20000121C16110BD0021C1610169124A01E0A8
:102D3000B9B1491E01EB810352F82330002BF7D0C3
:102D400001EB810302EB830202F1080453685B6824
:102D50005360A34201D15B685360DA68026001618D
:102D600010BD502080F31188BFF34F8FBFF36F8FDA
:102D7000FEE7000028000020BC0200201CB53748F8
:102D80000168374A914207D1502080F31188BFF380
:102D90004F8FBFF36F8FFEE700683149491E8842AD
:102DA00007D1502080F31188BFF34F8FBFF36F8F8F
:102DB000FEE72C4908780190FF20087008788DF80C
:102DC00000009DF800009DF8002000F0F000904207
:102DD00007D0502080F31188BFF34F8FBFF36F8F60
:102DE000FEE79DF80000204C00F050002070072006
:102DF000A06005E09DF8002052008DF80020401EE4
:102E00009DF800201206F5D4A060032807D05020BA
:102E100080F31188BFF34F8FBFF36F8FFEE74FF43E
:102E20004070A060019808700C482030016841F49F
:102E300070010160016841F070410160FFF746FEDA
:102E400000206060FDF7D0F90848016841F040417A
:102E50000160FDF7B5F900201CBD000000ED00E0A9
:102E600071C20F4100E400E09C00002034EF00E05C
:102E700010B5502080F31188BFF34F8FBFF36F8FD1
:102E800000F002FB18B104494FF0805008600020A8
:102E900080F3118810BD000004ED00E010B502467B
:102EA0000021012000F005F80446FFF76DFA2046E6
:102EB00010BDF8B517460E46050013D005FB06F009
:102EC0005030FFF7BBFC04000AD0002084F8460015
:102ED00004F150023B46314628460094FFF760FA61
:102EE0002046F8BD502080F31188BFF34F8FBFF309
:102EF0006F8FFEE738B5049D18B153B1CAB181B1E7
:102F000020E0502080F31188BFF34F8FBFF36F8F05
:102F1000FEE7502080F31188BFF34F8FBFF36F8F10
:102F2000FEE7502080F31188BFF34F8FBFF36F8F00
:102F3000FEE739B1502080F31188BFF34F8FBFF304
:102F40006F8FFEE750241C46012384F846302B4641
:102F50000094FFF725FA204638BD000070B50D46F5
:102F6000040025D0FFF74CFDD4E90F20216802FBB7
:102F70000011A1600021A163216861600A46D4E9C3
:102F80000F01401E00FB0121E16021464FF0FF30A0
:102F900001F8440F487004F110008DB1FFF7FEFCFA
:102FA00004F12400FFF7FAFCFFF74AFD012070BD91
:102FB000502080F31188BFF34F8FBFF36F8FFEE770
:102FC00021690029F0D000F003FB0028ECD004496F
:102FD0004FF080500860BFF34F8FBFF36F8FE3E770
:102FE00004ED00E02DE9FF4782B01D468A464FF010
:102FF0000008040003D0BAF1000F08D011E05020FF
:1030000080F31188BFF34F8FBFF36F8FFEE7206C03
:1030100038B1502080F31188BFF34F8FBFF36F8F0B
:10302000FEE7022D0AD1E06B012807D0502080F383
:103030001188BFF34F8FBFF36F8FFEE700F010FAD8
:103040003F4F4FF000094FF0805648B9049838B10F
:10305000502080F31188BFF34F8FBFF36F8FFEE7CF
:10306000FFF7CEFCA06BE16B884207D3022D05D0A1
:103070000498D0B1B8F1000F1AD01EE02A4651468C
:103080002046FFF7DAF8616A19B104F1240000F074
:103090009FFA20B13E60BFF34F8FBFF36F8FFFF7F2
:1030A000CFFC012006B0BDE8F087FFF7C9FC22E0A5
:1030B0006846FFF7A3FD4FF00108FFF7C1FCFFF7DB
:1030C00023FEFFF79DFC94F94400401C01D184F8D5
:1030D000449094F94500401C01D184F84590FFF7D5
:1030E000AFFC04A9684600F029F930B12046FFF78B
:1030F0006FFB00F0A5FA0020D4E7FFF781FCA06B7E
:10310000E16B884213D1FFF79BFC04F11000049996
:10311000FFF782FD2046FFF75BFB00F091FA0028E5
:103120009ED13E60BFF34F8FBFF36F8F98E7FFF7DD
:1031300087FC2046FFF74CFB00F082FA90E7000086
:1031400004ED00E02DE9F0471F4690468946040053
:1031500003D0B9F1000F08D011E0502080F311889E
:10316000BFF34F8FBFF36F8FFEE7206C38B1502055
:1031700080F31188BFF34F8FBFF36F8FFEE7022FED
:103180000AD1E06B012807D0502080F31188BFF3EB
:103190004F8FBFF36F8FFEE7FFF7AAFC5020EFF3CE
:1031A000118680F31188BFF34F8FBFF36F8FA06B31
:1031B000E16B884206D3022F04D0002086F31188E9
:1031C000BDE8F08794F94550A06B3A464946204641
:1031D000FFF733F8681C04D06D1C84F845500120BB
:1031E000ECE7606A0028FAD004F1240000F0F0F95E
:1031F0000028F4D0B8F1000FF1D00121C8F8001078
:10320000EDE700002DE9F747002683B08A46040069
:1032100003D0BAF1000F08D011E0502080F31188DC
:10322000BFF34F8FBFF36F8FFEE7206C38B1502094
:1032300080F31188BFF34F8FBFF36F8FFEE700F06D
:103240000FF9DFF8F4804FF000094FF0805748B9CC
:10325000059838B1502080F31188BFF34F8FBFF32A
:103260006F8FFEE7FFF7CCFBA56BC5B1514620463B
:10327000FEF7D0FF6D1EA563206950B104F1100068
:1032800000F0A6F928B1C8F80070BFF34F8FBFF364
:103290006F8FFFF7D5FB012006B0BDE8F0870598DA
:1032A00008B11EB106E0FFF7CBFB27E06846FFF749
:1032B000A5FC0126FFF7C4FBFFF726FDFFF7A0FBE7
:1032C00094F94400401C01D184F8449094F94500DD
:1032D000401C01D184F84590FFF7B2FB05A9684670
:1032E00000F02CF8002820460AD0FFF771FA00F011
:1032F000A7F92046FFF700F90028B3D00020CBE75C
:10330000FFF7FAF890B104F124000599FFF784FC67
:103310002046FFF75DFA00F093F90028A2D1C8F823
:103320000070BFF34F8FBFF36F8F9BE72046FFF70F
:103330004FFA00F085F995E704ED00E02DE9F04142
:103340000C46050011D0C4B1FFF75AFB174BDA68E1
:103350006E682068911B471C17D02F681B6A9F421C
:1033600019D0964217D8012410E0502080F311881C
:10337000BFF34F8FBFF36F8FFEE7502080F31188AC
:10338000BFF34F8FBFF36F8FFEE70024FFF758FBAB
:103390002046BDE8F081884205D9401A20602846C1
:1033A000FFF72CFCF1E700202060DCE7280000207C
:1033B0002DE9FF5F8346DDE90E87994616468A466A
:1033C0009000FFF73BFA05001CD05C20FFF736FAAF
:1033D000040014D00020256384F85900CDE9024090
:1033E000CDE900874B46324651465846FEF7EAFF84
:1033F0002046FEF77BFE012004B0BDE8F09F284682
:10340000FFF732FB4FF0FF30F6E7F0B585B0DDE9AE
:103410000B640A9DA6B1DCB15C27009726630226E7
:1034200084F85960002604AFCDE90246CDE9005783
:10343000FEF7C8FF2046FEF759FE049805B0F0BD20
:10344000502080F31188BFF34F8FBFF36F8FFEE7DB
:10345000502080F31188BFF34F8FBFF36F8FFEE7CB
:103460000548416919B1006B18B10020704701206F
:103470007047022070470000280000200148C06803
:1034800070470000280000202DE9F0412E4C002755
:10349000206B28B1A069401CA0613846BDE8F081CE
:1034A000E668761CE66013D1606B006838B1502086
:1034B00080F31188BFF34F8FBFF36F8FFEE7606B10
:1034C000A16B6163A063206A401C2062FFF700F9D2
:1034D000A06ADFF87880864209D3606B0068A0B1EB
:1034E000606BC068C5686868864211D2A0622068B7
:1034F000C06A00EB800158F82100012800D901279B
:10350000E0690028C9D00127C7E74FF0FF30EDE799
:10351000281DFFF71AFAA86A18B105F11800FFF77D
:1035200014FAE86A2169884200D9206100EB800121
:1035300008EB8100291DFFF757FAE86A2168C96A7C
:103540008842CAD30127C8E728000020BC02002017
:1035500070B504004FF0000133D01B4D2868844241
:1035600007D0502080F31188BFF34F8FBFF36F8FC8
:10357000FEE7206D38B1401E2065E36CE26A9A4296
:103580001FD040B11DE0502080F31188BFF34F8F52
:10359000BFF36F8FFEE7201DFFF7D7F9E06CE06205
:1035A000C0F13800A061E06A2969884200D9286129
:1035B000064900EB800001EB8000211DFFF714FAA3
:1035C0000121084670BD000028000020BC02002038
:1035D00070B5C068C46854B104F118000646FFF71E
:1035E000B4F9144D286B50B13146134815E0502002
:1035F00080F31188BFF34F8FBFF36F8FFEE7201D5D
:10360000FFF7A3F9E06A2969884200D928610B49CC
:1036100000EB800001EB8000211DFFF7E5F9E06A77
:103620002968C96A884202D90120E86170BD00207A
:1036300070BD00002800002044070020BC020020CC
:103640002DE9F0472C4D00242746286B38B1FFF7B1
:10365000D7F9286B401E2863286B40B146E0502004
:1036600080F31188BFF34F8FBFF36F8FFEE7A96818
:10367000224E0120D1B3A6F5916980463068E0B1B1
:10368000F068C46804F11800FFF75FF9201DFFF728
:103690005CF9E06A2969884200D9286100EB800161
:1036A00009EB8100211DFFF79FF9E06A2968C96ACB
:1036B0008842E3D3C5F81C80E0E70CB1FFF708F8B7
:1036C000AC694CB14FEA0806FFF7DEFE00B1EE61CF
:1036D000641EF9D10020A861E86938B108490127C2
:1036E00038070860BFF34F8FBFF36F8FFFF7A8F95C
:1036F0003846BDE8F087000028000020440700207D
:1037000004ED00E010B586B0FEF758FD114C2068BE
:10371000B8B100200390049005AA04A903A8FFF7FC
:1037200031F9DDE9032102208DE8070000230AA119
:103730000B48059AFFF769FE606010B106B00120E2
:1037400010BD502080F31188BFF34F8FBFF36F8FF0
:10375000FEE7000064000020546D72205376630081
:10376000AD2700082DE9FF411E46134602000A9DC1
:103770004FF0000016D0144C2768002F0FD0CDE971
:1037800000130292062917DAFFF76AFE02284FF0AB
:1037900000030FD0002269462068FFF723FC04B025
:1037A000BDE8F081502080F31188BFF34F8FBFF345
:1037B0006F8FFEE72A46EEE7002332466946384619
:1037C000FFF7C0FCEBE700006400002010380008A1
:1037D00000000000000000000000000000000000E9
:1037E00000020000180000000000000000000000BF
:1037F0000006101600061016000000000000000071
:103800000102030406070809000000000102030486
:1038100064656661756C745461736B003C380008B4
:1038200000000020A8000000421F0008E438000843
:10383000A8000020A85A0000521F00080000000045
:103840000000000000000000000000000000000078
:103850000000000001000000100000000000000057
:103860000024F40000000000000000000000000040
:103870000000000000000000000000000000000048
:103880000000000000000000000000000000000038
:103890000000000000000000000000000000000028
:1038A0000000000000000000000000000000000018
:1038B0000000000000000000000000000000000008
:1038C00000000000000000000000000000000000F8
:1038D000000000000000000000000000AAAAAAAA40
:0438E00000000000E4
:040000050800018965
:00000001FF
