:020000040800F2
:10000000A0490120610200082B2E0008EF2A0008F9
:10001000292E0008D5080008AD38000800000000AF
:10002000000000000000000000000000A101000826
:100030009509000800000000FD010008A133000838
:100040007B0200087B0200087B0200087B0200089C
:100050007B0200087B0200087B0200087B0200088C
:100060007B0200087B020008970900087B02000859
:100070007B0200087B0200087B0200087B0200086C
:100080007B0200087B0200087B0200087B0200085C
:100090007B0200087B0200087B0200087B0200084C
:1000A0007B0200087B0200087B0200087B0200083C
:1000B0007B0200087B020008613400087B02000814
:1000C0007B0200087B0200087B0200087B0200081C
:1000D0007B020008A13800087B0200087B020008B0
:1000E0007B0200087B0200087B0200087B020008FC
:1000F0007B0200087B0200087B0200087B020008EC
:100100007B0200087B0200087B0200087B020008DB
:100110007B0200087B0200086D3400087934000877
:100120007B0200087B020008D9080008E5080008E7
:100130007B0200087B0200087B0200087B020008AB
:100140007B0200087B0200087B0200087B0200089B
:100150007B0200087B0200087B0200087B0200088B
:100160007B0200087B0200087B0200087B0200087B
:100170007B0200087B0200087B02000800000000F0
:100180007B0200087B020008DFF810D000F0F6FACE
:100190000048004731460208AFF30080A049012023
:1001A0002C4B19680868B0E8F04F80F30988BFF35A
:1001B0006F8F4FF0000080F311887047000000003F
:1001C00008480068006880F308884FF0000080F35A
:1001D000148862B661B6BFF34F8FBFF36F8F00DF35
:1001E00000BF00BF08ED00E0DFF80C00016841F43B
:1001F00070010160704700BF88ED00E0EFF30980F7
:10020000BFF36F8F134B1A681EF0100F08BF20ED5D
:10021000108A20E9F04F106009B44FF0500080F3CD
:100220001188BFF34F8FBFF36F8F2AF08BFC4FF015
:10023000000080F3118809BC19680868B0E8F04F25
:100240001EF0100F08BFB0EC108A80F30988BFF3CE
:100250006F8F704788000020EFF305807047000023
:100260000648804706480047FEE7FEE7FEE7FEE750
:10027000FEE7FEE7FEE7FEE7FEE7FEE75134000893
:10028000890100082DE9F05F0546002092469B4653
:1002900088460646814640241BE02846414647469C
:1002A000224600F0A2F853465A46C01A914110D394
:1002B00011461846224600F089F82D1A67EB01080E
:1002C0004F4622460120002100F080F817EB00097C
:1002D0004E41201EA4F10104DFDC484631462A4687
:1002E0004346BDE8F09F10B5431A934209D28318E4
:1002F000881803E010F8011D03F8011D521EF9D201
:1003000010BD40EA01039B0703D009E008C9121F92
:1003100008C0042AFAD203E011F8013B00F8013BBF
:10032000521EF9D210BDD2B201E000F8012B491ED5
:10033000FBD270470022F6E710B513460A46044682
:100340001946FFF7F0FF204610BD421C10F8011BB4
:100350000029FBD1801A704710B5002200E0521C22
:10036000835C8C5CA34201D1002BF8D1D8B2E1B2FE
:10037000401A10BD30B504460020034600E05B1C67
:10038000934203D2E05CCD5C401BF8D030BD034605
:1003900011F8012B00F8012B002AF9D118467047FB
:1003A00030B50B46014600202022012409E021FA45
:1003B00002F59D4205D303FA02F5491B04FA02F542
:1003C0002844151EA2F10102F1DC30BD202A04DB15
:1003D000203A00FA02F1002070479140C2F1200358
:1003E00020FA03F3194390407047202A04DB203A97
:1003F00021FA02F00021704721FA02F3D040C2F145
:10040000200291400843194670472DE9FE4F80466F
:1004100081EA0300C00F0C46009021F0004123F058
:100420000045B8EB0200A94105D24046214690465E
:100430001C460B46024623F00040104347D0270DD0
:10044000C7F30A00C3F30A510290401A01904028F2
:100450006BDAC3F3130040F4801B0098924620B17E
:100460000023D2EB030A63EB0B0B01985946C0F152
:1004700040025046FFF7AAFF06460D465046594631
:10048000019A00F08DF910EB08006141002487EA21
:10049000115284EAE7731A4340D0009A62B3019A7A
:1004A000012A4FEA075215DC001B61EB02014FF0F5
:1004B000004202EA0752CDE90042001C41F58011DA
:1004C00032462B4600F08DF903B0BDE8F08F404670
:1004D0002146F9E7001B61EB0201001C41F5801386
:1004E00000185B412018A2F5001747EB030140EA12
:1004F000D570B6196D4111E06D084FEA360645EA30
:10050000C0754FEA0752001B61EB0201001C41F568
:10051000801149084FEA30000019514132462B46FC
:1005200003B0BDE8F04F00F04DB900980122400043
:100530000023D0EB020263EBE073009821464FEA00
:10054000E074B8EB000061EB0401E9E783F00043DD
:100550005BE781F0004158E72DE9FE4F81EA030493
:1005600004F0004421F0004100944FF0000B23F010
:10057000004350EA01045ED052EA03045BD0C3F3A7
:100580000A54C1F30A552C44A4F2F3340194A0FB9D
:100590000254C1F3130141F48011C3F3130343F474
:1005A000801301FB024400FB034E840A970A44EACD
:1005B000815447EA8357A4FB076802958D0A05FB1F
:1005C00007854FEA932C04FB0C542705029D4FEA44
:1005D000065847EA1637B5EB08056EEB070C870E91
:1005E000920E47EA811742EA8312A7FB0201B6EB9B
:1005F0000B0164EB00042B0D43EA0C335E1844EB53
:100600001C50DA465146E7FB0201C5F313044FEADA
:100610000B3343EA14534FEA0432019C43EA0603C6
:10062000A4F10C040294009CCDE900B400F0D9F8C8
:1006300003B0BDE8F08F00200146F9E72DE9F04D49
:1006400081EA030404F0004B21F0004514464FF00A
:10065000000A23F0004150EA050220D054EA0102CA
:100660001DD0C5F30A570246C5F31303C1F31300A7
:10067000C1F30A5640F4801543F48013A7EB060833
:10068000101BD64608F2FD3873EB050002D308F1C3
:10069000010801E092185B41B8F1000F03DA002075
:1006A0000146BDE8F08D00204FF4801106468446D7
:1006B0000EE0171B73EB050705D3121B63EB050355
:1006C00006434CEA010C49084FEA300092185B419E
:1006D00050EA0107EDD152EA030012D082EA040089
:1006E00083EA0501084305D0101BAB4106D2012265
:1006F000002306E000224FF0004302E06FF0010209
:1007000053101AEB06004CEB085110EB0A0041EBBA
:100710000B01BDE8F04D00F055B8C1F30A52C1F32A
:10072000130140F2FF3341F480119A4202DA0020B3
:100730000146704740F233439A42A2F2334202DC50
:100740005242FFF752BEFFF741BE000030B5041E13
:1007500071F1000404DB4FF00044404264EB0101FE
:10076000141E73F1000405DB1C464FF00043524297
:1007700063EB0403994208BF904230BD064C074D1D
:1007800006E0E06840F0010394E807009847103461
:10079000AC42F6D3FFF7FCFC00010308200103087C
:1007A000202A06DBCB17203A41FA02F043EAE07335
:1007B00006E041FA02F3D040C2F120029140084322
:1007C0001946704710B5141E73F1000408DA401C76
:1007D00041F1000192185B411A4301D120F0010060
:1007E00010BD2DE9F04D92469B4611B1B1FA81F250
:1007F00002E0B0FA80F220329046FFF7E7FD0446AF
:100800000F4640EA0A0041EA0B0153465A460843A4
:1008100013D0114653EA010019D0C8F140025046E6
:10082000FFF7E3FD05460E46504659464246FFF7A0
:10083000CDFD084305D0012004E020463946BDE83F
:10084000F08D0020054346EAE0762C4337430A98B2
:100850006305E40AA0EB08000022FD0A44EA4754BD
:100860000A3002D500200146E9E701051019694167
:10087000DDE9084500196941BDE8F04DA2E770B512
:100880008C1810F8015B15F0070301D110F8013B3B
:100890002A1106D110F8012B03E010F8016B01F8C2
:1008A000016B5B1EF9D12B0705D40023521E0DD41A
:1008B00001F8013BFAE710F8013BCB1A921C03E068
:1008C00013F8015B01F8015B521EF9D5A142D8D3A0
:1008D000002070BDFEE70000014800F0BDB8000038
:1008E000A4050020014800F0B7B800002C04002047
:1008F00001681823CAB2103AB2FBF3F2054B6FF34A
:100900000901032A9B5CC36500D9091D816508465E
:100910007047000014B9020810B5014600208B6929
:100920008A6A4FF0C07453B1B3F5005F15D072B14D
:10093000012A0CD0022A0AD0032A09D104E01AB1F4
:10094000012A06D0022A03D1C96AC90100D50120B3
:1009500010BDC96AA142FAD010BD002AF7D0012A01
:10096000F2D0022AF3D0032AF3D010BD30B50468C8
:10097000256825F480252560046863608368402B22
:10098000036803D099600068C26030BD9A60006857
:10099000C16030BD7047102000F0ECB972B6FEE7C0
:1009A0002DE9F0410446876D00F0F2FA064694F80E
:1009B00035000025022806D08020606584F8345078
:1009C0000120BDE8F0812068016821F01601016076
:1009D0002068416921F080014161206C08B9A06C58
:1009E00020B12068016821F00801016020680168D9
:1009F00021F0010101600CE000F0CAFA801B05281B
:100A000007D920206065032084F8350084F834502D
:100A1000D7E720680068C007EED194F85C103F204B
:100A20008840B860012084F8350084F834500020F4
:100A3000C7E790F83510022903D0802141650120D5
:100A40007047052180F835100068016821F0010128
:100A500001600020704700002DE9F84304464FF084
:100A60000009CDF8009063484FF41651A56D006859
:100A7000B0FBF1F72E6894F85C10082000FA01F141
:100A800031420FD021680A6852070BD50A6822F05C
:100A900004020A6094F85C108840A860606D40F021
:100AA0000100606594F85C104FF0010808FA01F04D
:100AB000304208D021684969090604D5A860606DF4
:100AC00040F00200606594F85C10042088403042D9
:100AD00008D021680968890704D5A860606D40F0D6
:100AE0000400606594F85C1010208840304218D0F3
:100AF00021680968090714D5A860206801684903BE
:100B000004D50068000308D5A16C07E00168C90599
:100B100003D4016821F008010160216C09B120466D
:100B2000884794F85C1020208840304231D02168FA
:100B30000968C9062DD5A86094F8350005282068F5
:100B4000016806D0490347D5006800031DD4616CD5
:100B50001CE021F0160101602068416921F080014C
:100B60004161206C08B9A06C20B12068016821F0B7
:100B70000801016094F85C103F208840A86084F868
:100B8000358084F83490216D1FE0E16B09B1204677
:100B90008847606D00282BD0606DC00714D00520F9
:100BA00084F835002068016821F001010160009897
:100BB000401C0090B84203D820680068C007F6D1F6
:100BC00084F8358084F83490E16C002910D001B0AD
:100BD0002046BDE8F04308470168C905D5D401683F
:100BE00021F01001016084F8358084F83490CCE75E
:100BF000BDE8F883100000202DE9F041044600F024
:100C0000C7F906465CB1022084F83500002584F857
:100C100034502068016821F0010101600DE00120DD
:100C2000BDE8F08100F0B4F9801B052805D920202B
:100C30006065032084F83500F2E720680068C0078B
:100C4000F0D12268116820480140D4E9010318431B
:100C5000D4E903363343184363691843A36918433F
:100C6000E3691843236A18430843616A042903D1DE
:100C7000D4E90B1319430843106020684069666A81
:100C800020F0070130460E43012704280CD1A06A4A
:100C90000643E06A40B12046FFF73EFE20B1402007
:100CA000606584F83570BAE7206846612046FFF732
:100CB0001FFE94F85C203F2191408160656584F8B7
:100CC00035700020ACE700003F8010F02DE9F041C6
:100CD0000446866D90F83400002501280DD00120CF
:100CE00084F8340094F835700020012F07D084F880
:100CF000340002252846BDE8F0810220FBE70227E8
:100D000084F8357060652046FFF730FE94F85C107B
:100D10003F208840B0602068016841F01601016002
:100D2000206C20B12068016841F008010160206852
:100D3000016841F001010160DCE7000070B5044684
:100D400000F026F90546601C02D0044800780444EF
:100D500000F01EF9401BA042FAD370BD0400002031
:100D6000102803D11021024800F008B97047000094
:100D7000000C0240044910B50A68024202D0086023
:100D8000FFF7EEFF10BD0000143C01402DE9F84FC5
:100D9000DFF8BCA10022012503264FF00F090AF15C
:100DA000040BAAF1040E00BF0B6805FA02F42340FD
:100DB000A34270D10F7907F00307012F01D0022F52
:100DC00016D187684FEA420806FA08FC27EA0C07A2
:100DD000D1F80CC00CFA08FC4CEA070CC0F808C0AB
:100DE0004768A7430C79C4F3001494403C43446023
:100DF0000C79E443A4070AD0C4684FEA420C06FA0F
:100E00000CF7BC438F6807FA0CF72743C7600C79CF
:100E100004F00304022C12D1D40800EB840CDCF89B
:100E200020405707FF0E09FA07F824EA0804D1F812
:100E3000108008FA07F848EA0408CCF82080046813
:100E40004FEA420C06FA0CF7BC430F7907F0030790
:100E500007FA0CF7274307604C6814F4403F70D042
:100E60003C4C276847F480472760246822F003073A
:100E700004F480440094384C07EB040CDCF8084878
:100E800097074FEA177809FA08F7BC43334FB8427F
:100E900002D1002724E054E0314FB84201D10127AC
:100EA0001EE0304FB84201D1022719E02E4FB84260
:100EB00001D1032714E02D4FB84201D104270FE0E0
:100EC0002B4FB84201D105270AE02A4FB84201D181
:100ED000062705E0284FB84201D1072700E0082780
:100EE00007FA08F72743CCF80878DAF800405746A5
:100EF000D1F804C09C435FEACC2C00D51C433C6075
:100F0000DBF800405F46D1F804C09C435FEA8C2CBC
:100F100000D51C433C60DEF800407746D1F804C0A1
:100F20009C435FEA8C3C00D51C433C60084F083F63
:100F30003C68D1F804C09C435FEACC3C00D51C431C
:100F40003C60521C102AFFF42FAFBDE8F88F000060
:100F5000083C01404438024000300140000002409B
:100F60000004024000080240000C02400010024051
:100F70000014024000180240001C024000690840B2
:100F800000D0012070470AB1816170470904FBE776
:100F90000148806870470000040000200248816812
:100FA0000278114481607047040000200B4810B59E
:100FB000016841F400710160016841F480610160E1
:100FC000016841F480710160032000F09FF80F2058
:100FD00000F006F800F050F8002010BD003C024080
:100FE00030B505461F4887B00024016841F0040170
:100FF0000160006806A900F00400009001A800F05C
:1010000031F90498A8B100F04DF940001649174A8B
:10101000B0FBF1F11648491E026040F2E732C0E928
:101020000324C0E90114846101F04EF9040003D0E7
:1010300015E000F037F9E9E70D4801F0A5F90400E3
:101040000DD11E2000F034F8102D07D200222946C1
:101050001E2000F03BF80748056000E0012407B0BF
:10106000204630BD4038024040420F00000800409A
:1010700004060020080000200C4882B0016841F4FA
:1010800080410160006800F4804000900748001F24
:10109000016841F0805101600068002200F080503A
:1010A00000900F21901E02B000F010B844380240AA
:1010B000002809DB00F01F02012191404009800057
:1010C00000F1E020C0F8001170470000F0B40E4BB2
:1010D0001B680C46C3F30223C3F10705042D00D996
:1010E0000425191D072901D2002300E0DB1E01267B
:1010F00006FA05F1491E214099409E40761E164091
:101100003143F0BC02F0ECBB0CED00E0064900F00E
:10111000070208684FF6FF03184040EA0220034A1E
:1011200010430860704700000CED00E00000FA0575
:101130002DE9F0470E46050065D0DFF81481D8F898
:101140000000F7B200F00700B04207D288F8007044
:10115000D8F8000000F00700B04254D128683D4C98
:10116000810712D5400703D5206840F4E050206085
:101170002878000703D5206840F46040206020688C
:10118000A96820F0F000084320602878C0072DD01F
:10119000304968680839012812D0022813D0032882
:1011A00011D00968890700292DDA216821F003018F
:1011B00001432160FFF7ECFE814641F2883A0EE0E0
:1011C00009688903EFE709688901ECE7FFF7E0FEAA
:1011D000A0EB0901514502D90320BDE8F087206842
:1011E000696800F00C00B0EB810FEFD1D8F8001067
:1011F000404601F00701B14207D90770006800F0CE
:101200000700B04201D00120E7E72878400705D564
:101210002068E96820F4E05008432060287800073F
:1012200006D52068296920F4604040EAC1002060AA
:1012300000F058F82168084AC1F30311515CC84016
:101240000649086006480068FFF7CAFE0020C4E7A8
:10125000003C0240083802401CB90208100000207F
:10126000080000200F2202600C4A136803F00303F9
:101270004360136803F0F0038360136803F4E053E2
:10128000C36012684FF4E05303EAD20202610448DB
:10129000006800F00700086070470000083802404E
:1012A000003C02400448054900680968044AC1F34B
:1012B0008221515CC840704710000020083802406D
:1012C0002CB902080448054900680968044AC1F3BA
:1012D0004231515CC840704710000020083802407D
:1012E0002CB90208154810B5006810F00C0214481B
:1012F00013D04110042A0FD0082A0ED10F4C241FFE
:101300002268236802F03F025B0207D52068C0F321
:101310008810A0FB010106E0084610BD2168C1F35A
:101320008811A1FB00010023FEF7ACFF2168C1F387
:101330000141491C4900B0FBF1F010BD08380240E2
:101340000024F4002DE9F84F04006ED02078DFF877
:101350004C93C007A9F104054AD009F104000168C3
:10136000C1F38101012908D00068C0F3810002287F
:101370000AD1D9F80000400206D52868800337D585
:1013800060680028E1D033E06068B0F5803F10D09D
:10139000B0F5A02F286810D020F48030286028688D
:1013A00020F4802028606068A8B1FFF7F1FD0646B0
:1013B0000DE0286840F48030F4E740F48020286095
:1013C000F7E700BFFFF7E4FD801B642873D82868A7
:1013D0008003F7D50CE0FFF7DBFD064605E000BF14
:1013E000FFF7D6FD801B6428F0D828688003F7D467
:1013F0002078DFF8AC8280074FF0000A3ED5A7487E
:10140000001D016811F00C0F08D00068C0F38100C6
:1014100002280BD1D9F80000400207D428688007C1
:1014200016D5E068012800D112E033E1E068B8B1D8
:101430000120C8F80000FFF7ABFD064605E000BF3D
:10144000FFF7A6FD801B0228C0D828688007F7D5C3
:101450002868216920F0F80040EAC10028600DE00A
:10146000C8F800A0FFF794FD064604E0FFF790FDE2
:10147000801B02281FD828688007F7D4207800072F
:1014800022D5864F87486169703771B101210160AB
:10149000FFF77EFD064604E0FFF77AFD801B022879
:1014A00009D838688007F7D50EE0C0F800A0FFF72C
:1014B0006FFD064605E082E0FFF76AFD801B02280B
:1014C0007DD838688007F7D42078400768D5DFF8E2
:1014D000CCB100270BF13C0BDBF80000C0000BD4B3
:1014E000DBF8001041F08051CBF80010DBF8000071
:1014F000012700F0805000906B4E3068C00510D47A
:10150000306840F480703060FFF742FD009005E0E5
:10151000FFF73EFD0099401A022850D83068C005F8
:10152000F6D55E4EA0686C3601280FD005283068CD
:1015300010D020F001003060306820F004003060EE
:10154000A068B8B1FFF724FD00900FE0306840F0CC
:101550000100F4E740F004003060F7E7FFF718FD02
:101560000099411A41F28830814266D8306880077C
:10157000F4D50EE0FFF70CFD009007E0FFF708FD43
:101580000099411A41F28830814256D8306880076C
:10159000F4D42FB1DBF8001021F08051CBF800100B
:1015A000A069C8B33D49091D0968C1F38101022939
:1015B0004AD00228504607D0C8F8600000E03CE05E
:1015C000FFF7E6FC04463BE04746C8F86000FFF73B
:1015D000DFFC064605E000BFFFF7DAFC801B0228AF
:1015E0002BD828688001F7D4D4E907010843A16A01
:1015F0002E4A490802EB0141626A41EA821108431E
:1016000094F82C1040EA0161C9F8001001203866F6
:10161000FFF7BEFC044606E03EE000BFFFF7B8FC63
:10162000001B022809D828688001F7D534E000BFE4
:10163000FFF7AEFC001B022802D90320BDE8F88F9B
:1016400028688001F4D427E00128F7D0D9F80000F9
:10165000E26900F4800191421CD1226A00F03F014E
:10166000914217D147F6C071626A0140B1EB821F07
:1016700010D1A26A4FF0FF3300F4403103EB520265
:10168000B1EB024F06D194F82C1000F07060B0EB73
:10169000016F01D00120D1E70020CFE704380240DC
:1016A00000004742800E4742007000400000FFFFEC
:1016B000704790F85100704770B5040009D0606A17
:1016C000002540B125616561A56294F8510040B1E3
:1016D0000CE0012070BD6068B0F5827FF4D0E56158
:1016E000F2E784F85050204600F044F8022084F8D5
:1016F00051002068016821F040010160A088218923
:1017000000F4827001F404410843A18901F40061EE
:101710000843217C01F002010843217D01F0010111
:101720000843218B01F400710843217F01F0380147
:10173000084394F8201001F080010843218D01F442
:101740000051084321680860A069042101EA1040A3
:1017500094F8241001F010010843216848602068C3
:10176000C16921F40061C1616565012084F85100FF
:10177000002070BDF0B587B0064614216846FEF71C
:10178000D9FD3D48D6F800C000253C49022303247A
:101790000527844534D139481430026842F4805218
:1017A0000260006800F480500590086840F0010075
:1017B00008600868694600F001000590E0208DE8A7
:1017C0002900CDE903472E48FFF7E0FA2E4C2D48BB
:1017D00020604FF0C06060604020C4E90205000155
:1017E000C4E90405A561E561256220466562FFF74D
:1017F00003FA08B1FFF7D2F8B464A66307B0F0BDEE
:101800001E4A224E10322248B44517D1166846F4BB
:1018100080461660126802F4804205920A6842F01F
:1018200002020A60096801F0020105914FF4444187
:101830008DE82A00CDE90347694619E0154EB44505
:10184000DCD1166846F400461660126802F40042C5
:1018500005920A6842F002020A60096801F002017A
:10186000059138218DE82A000621CDE9034169461A
:10187000FFF78CFAC2E70000003001403038024028
:1018800000000240586402402C0400200038004050
:1018900000040240003C00402DE9F84F0446406837
:1018A0000025984616460F464FF0040BB0F5827F90
:1018B00001D1A06888B194F85000012818D0012007
:1018C00084F85000FFF764FB814694F851004FF014
:1018D000000A01280ED0022582E084F851B0134698
:1018E0000A462046CDF8008000F00BFABDE8F88FDC
:1018F0000220FBE7002F72D0002E70D084F851B088
:10190000C4F854A0A763A687E687C4F830A0A4F85B
:1019100034A0A4F836A0C4F840A0C4F844A0A0683D
:10192000B0F5004F09D12068016821F04001016045
:101930002068016821F4804101602068016849063F
:1019400003D4016841F040010160E068D8B139E09A
:1019500020688168C90709D0007BA16B0870A06B63
:10196000401CA063E08F401EE0870CE0FFF710FBF7
:10197000A0EB0901414503D3B8F1FF3F03D036E0A6
:10198000B8F1000F33D0E08F0028E1D11DE02068CE
:101990008168C90709D0C068A16B0880A06B801C52
:1019A000A063E08F401EE0870CE0FFF7F1FAA0EBA8
:1019B0000901414503D3B8F1FF3F03D017E0B8F167
:1019C000000F14D0E08F0028E1D14A46414620465E
:1019D00001F0ECFB08B120206065606D00B10125CD
:1019E000012084F8510084F850A028467EE70325A2
:1019F000F6E700002DE9F041044600268068042344
:101A000018B96568B5F5827F0ED094F85050012D55
:101A100013D0012784F8507094F851C00025BCF110
:101A2000010F0DD0022654E084F851302046BDE865
:101A3000F04113460A4600F055BA0220BDE8F08195
:101A400071B16AB184F851306565A163A287E287FC
:101A500025646564A586E586B0F5004F02D00BE0ED
:101A6000012636E02068016821F04001016020680D
:101A7000016821F480410160E16C18480864E16C60
:101A80001748C863E16C1748C864E06C0565E38FCC
:101A90002168A26B0C31E06CFFF718F938B1606D6A
:101AA00040F010006065012684F8517011E0206854
:101AB0000168490603D4016841F0400101602068D3
:101AC000416841F0200141602068416841F0010116
:101AD000416084F850503046B0E70000673000089D
:101AE0008530000845300008F0B4002485681346AE
:101AF00004261DB94268B2F5827F0DD090F85020BF
:101B0000012A0FD0012280F8502090F85170002255
:101B1000012F0AD0022436E080F85160F0BC0A465A
:101B200000F072BA0220F0BC704771B16BB180F85E
:101B30005160426581638387C38702638286C28660
:101B40004264C16819B1124902E001241BE0114945
:101B50000164B5F5004F09D101680B6823F040031B
:101B60000B6001680B6823F480430B6001684B68CD
:101B700043F060034B6001680B685B0603D40B689D
:101B800043F040030B6080F850202046CBE7000074
:101B90006132000881320008704770472DE9F84F24
:101BA000044690F8500000271D4616468946012835
:101BB0000DD04FF0010B84F850B0FFF7E9F98046E3
:101BC00094F85100BA46012804D0022793E002207D
:101BD000BDE8F88FB9F1000F73D0002E71D003204B
:101BE00084F85100C4F854A0C4F83090A686E68664
:101BF000C4F838A0A4F83CA0A4F83EA0C4F844A0BF
:101C0000C4F840A0A068B0F5004F09D12068016871
:101C100021F0400101602068016841F480410160C9
:101C200020680168490603D4016841F04001016061
:101C3000E068B0F5006F606803D030B3012E24D0A7
:101C400041E008B1012E1CD1206B21680088C860DA
:101C500006E020688168890709D5216B0988C16081
:101C6000206B801C2063E08E401EE08609E0FFF7B9
:101C70008FF9A0EB0800A84202D3681C01D031E024
:101C80007DB3E08E0028E4D120E0206B216800784D
:101C9000087306E020688168890709D5216B0978F7
:101CA0000173206B401C2063E08E401EE0860AE03A
:101CB000FFF76EF9A0EB0800A84203D3681C02D01E
:101CC00010E017E06DB1E08E0028E3D142462946CE
:101CD000204601F099FA08B120206065A06818B18B
:101CE00006E0FFE7032706E02068C16880680090EF
:101CF000606D00B1012784F851B084F850A03846D7
:101D000066E72DE9F84F044690F8500000270A9E38
:101D10001D4692468B464FF0010901280ED0012046
:101D200084F85000FFF734F9804694F85100616858
:101D300001280CD0B1F5827F07D102E00220BDE876
:101D4000F88FA16809B9042801D00227C2E0BBF1CD
:101D5000000F27D0BAF1000F24D01DB394F8510022
:101D6000042802D0052084F8510000206065C4F8E2
:101D700038A0E587A587C4F830B0E586A58620643D
:101D8000606420680168490603D4016841F040019D
:101D90000160E068B0F5006F606805D0E8B3012D20
:101DA00046D07FE0012795E008B1012D39D1206BA5
:101DB00021680088C860206B801C2063E08E401E74
:101DC000E0862EE02068816889070FD5E18E69B131
:101DD000B9F1010F0AD1216B0988C160206B801C09
:101DE0002063E08E401EE0864FF000092068816885
:101DF000C9070CD0E18F51B1C068A16B0880A06BFE
:101E0000801CA063E08F401EE0874FF00109FFF7C0
:101E1000BFF8A0EB0800B04200E009E001D3701C5D
:101E200050D1E08E0028CDD1E08F0028CAD13FE00C
:101E3000206B216800780873206B401C2063E08EC3
:101E4000401EE0862EE02068816889070FD5E18E6C
:101E500069B1B9F1010F0AD1216B09780173206BC7
:101E6000401C2063E08E401EE0864FF00009206891
:101E70008168C9070CD0E18F51B1C068A16B0870AF
:101E8000A06B401CA063E08F401EE0874FF001096B
:101E9000FFF77EF8A0EB0800B04202D3701C01D01F
:101EA00010E07EB1E08E0028CDD1E08F0028CAD1AD
:101EB00042463146204601F0A7F928B101272020EB
:101EC000606507E0032705E0A06818B92068C168CD
:101ED00080680090012084F85100002084F85000B0
:101EE00038462CE72DE9F041044690F850000026D2
:101EF00001280DD0012784F8507094F85100002576
:101F0000D4F804C001280FD0BCF5827F0AD102E0CA
:101F10000220BDE8F081D4F808C0BCF1000F01D167
:101F2000042801D0022660E049B342B33BB394F8E1
:101F30005100042802D0052084F851006565216312
:101F4000A386E386A263A387E3872564656494F888
:101F50005100042815D0E16C264808642648E16C3D
:101F6000C863E16C2548C864E06C0565E38F2168AF
:101F7000A26B0C31E06CFEF7A9FEE0B906E0012689
:101F800033E0E16C1E4808641E48E8E720684168B9
:101F900041F001014160A06C0564A06CC563A06CB8
:101FA000C564A06C0565E38E2268216B0C32A06CC1
:101FB000FEF78CFE38B1606D40F0100060650126C0
:101FC00084F8517011E020680168490603D4016863
:101FD00041F0400101602068416841F0200141600A
:101FE0002068416841F00201416084F85050304659
:101FF0008FE700007B3000085331000845300008AF
:102000006730000885300008F0B590F85050002483
:10201000012D0CD0012580F8505090F85150002629
:102020004768012D0BD0B7F5827F06D101E0022071
:10203000F0BD87680FB9042D01D0022429E0A9B1B1
:10204000A2B19BB190F85150042D02D0052580F823
:102050005150466501638386C38682638387C38745
:10206000C16829B10D4901640D4904E0012410E063
:102070000C4901640C49416401684A6842F0E0027D
:102080004A6001680A68520603D40A6842F04002B6
:102090000A6080F850602046F0BD00002D2E000838
:1020A0008D2E00085D2E0008BD2E00082DE9F041A0
:1020B000044690F850000026012809D0012784F832
:1020C000507094F851000025012804D002264EE0FB
:1020D0000220BDE8F08189B182B1032084F851006B
:1020E00065652163A286E286A56365642564A5878C
:1020F000E587A068B0F5004F02D00BE0012636E07E
:102100002068016821F0400101602068016841F405
:1021100080410160A16C18480864A16C1748C8632D
:10212000A16C1748C864A06C0565E38E2268216B1A
:102130000C32A06CFEF7CAFD38B1606D40F01000A3
:102140006065012684F8517011E020680168490635
:1021500003D4016841F0400101602068416841F00A
:10216000200141602068416841F00201416084F82B
:1021700050503046ADE7000071300008EF300008E5
:102180004530000830B590F850300024012B0BD0BA
:10219000012380F85030002341B13AB190F85150FA
:1021A000012D05D002242FE0022030BD01242BE0B8
:1021B000032580F85150436501638286C28683639C
:1021C0008387C3870364C16809B1114900E01149DD
:1021D00041648168B1F5004F09D101680A6822F0B5
:1021E00040020A6001680A6842F480420A6001689D
:1021F0004A6842F0A0024A6001680A68520603D4A5
:102200000A6842F040020A6080F85030204630BD33
:10221000A1320008C132000800680349884201D198
:102220000FF0AEB8704700000030014070477047B3
:10223000704770477047000070B590F83C20012A45
:1022400032D0012480F83C40022280F83D2003680F
:102250005A689D6822F070060A6832435A60134B30
:1022600002689A4214D0B2F1804F11D0104B9A42BA
:102270000ED0104B9A420BD00F4B9A4208D00F4B06
:102280009A4205D00E4B9A4202D00E4B9A4204D18C
:10229000496825F080031943916080F83D40002192
:1022A00080F83C10084670BD022070BD000001405F
:1022B0000004004000080040000C00400004014001
:1022C000004001400018004010B5040003D094F80D
:1022D0003D0010B107E0012010BD002084F83C0053
:1022E000204600F01FF8022084F83D00211D2068E0
:1022F00001F0C8F8012084F8460084F83E0084F814
:102300003F0084F8400084F8410084F8420084F8DB
:10231000430084F8440084F8450084F83D00002020
:1023200010BD000008B5154A0168154891420ED14C
:10233000016841F0100101600068002200F0100007
:10234000009005213620FEF7C1FE362010E00D4A30
:10235000914211D1016841F0200101600068002222
:1023600000F02000009005213720FEF7AFFE372057
:10237000BDE80840FEF79CBE08BD0000001000400C
:10238000403802400014004090F83D10012901D06F
:1023900001207047022180F83D100168CA6842F0B0
:1023A0000102CA6000681149884214D0B0F1804F20
:1023B00011D00F4988420ED00E4988420BD00E49E9
:1023C000884208D00D49884205D00D49884202D084
:1023D0000C49884204D1816801F00701062903D025
:1023E000016841F0010101600020704700000140D8
:1023F0000004004000080040000C004000040140C0
:102400000040014000180040704770B50446006865
:1024100001694FF00005C943890715D4C168C94354
:10242000890711D4E91E01610120207720688069A5
:102430008007204602D0FFF7E7FF04E000F098F89D
:10244000204600F096F8257720680169C9434907BE
:1024500017D4C168C943490713D46FF0040101615F
:10246000022020772068806910F4407F204602D047
:10247000FFF7CAFF04E000F07BF8204600F079F88F
:10248000257720680169C943090716D4C168C94383
:10249000090712D46FF00801016104202077206839
:1024A000C0698007204602D0FFF7AEFF04E000F0CD
:1024B0005FF8204600F05DF8257720680169C94380
:1024C000C90617D4C168C943C90613D46FF01001F7
:1024D0000161082020772068C06910F4407F204601
:1024E00002D0FFF791FF04E000F042F8204600F030
:1024F00040F8257720680169C943C90708D1C16838
:10250000C943C90704D1891E0161204600F032F891
:1025100020680169C943090609D4C168C94309068D
:1025200005D46FF0800101612046FFF782FE20682C
:102530000169C943490609D4C168C943490605D49C
:102540006FF040010161204600F02AF8206801691F
:10255000C94389060BD4C168C943890607D46FF003
:10256000200101612046BDE87040FFF763BE70BDE9
:102570007047704710B5044600680749884201D18A
:10258000FEF70CFD05492068884204D1BDE81040E3
:10259000012021F029BB10BD0008004000100040C0
:1025A0007047704770470000F8B501680446086836
:1025B000CA684B6910F00F0F4FF0000559D003F0B7
:1025C000010602F49077374365D0C10705D0D105E5
:1025D00003D5216C41F001012164410705D5D907DC
:1025E00003D0216C41F002012164810705D5D90790
:1025F00003D0216C41F004012164010707D502F0EA
:102600002001314303D0216C41F008012164216C89
:1026100000293AD0800604D5900602D5204601F064
:102620001DF820684069216CC0F38010090700D4B0
:1026300060B3204600F0DDFF20684069400621D5E8
:102640002068143050E8001F21F0400140E80012DB
:10265000002AF5D1A06BA8B16C490165A06BFEF70B
:10266000E8F9002811D0A06B016D01B0BDE8F04081
:10267000084783060FD593060DD52046BDE8F840E0
:1026800000F0ECBF2046FFF78DFFF8BD2046FFF7B6
:1026900089FF2564F8BD266B2023012E79D1C6065B
:1026A00077D5D60675D50868486800904869400611
:1026B00040D5A16B086840680004000CEAD0A28DE8
:1026C0008242E7D9E085C869B0F5807F2DD02068C7
:1026D0000C3050E8001F21F4807140E80012002AFD
:1026E000F5D12068143050E8001F21F0010140E8C6
:1026F0000012002AF5D12068143050E8001F21F0A4
:10270000400140E80012002AF5D184F83E302563EC
:1027100020680C3050E8001F21F0100140E8001242
:10272000002AF5D1A06BFEF73BF9A08DE18D401A90
:1027300081B229E0A08DE18D401A81B2E08D0028A0
:10274000A8D00029A6D020680C3050E8002F22F431
:10275000907240E80026002EF5D12068143050E831
:10276000002F22F0010240E80026002EF5D184F867
:102770003E30256320680C3050E8002F22F0100214
:1027800040E80023002BF5D12046FFF70AFFF8BDF3
:10279000FFE705062BD5150629D594F83D0021281D
:1027A000F5D1A068B0F5805F01D12069B0B1206A91
:1027B000411C2162216800784860E08C401E0004C2
:1027C000000CE084E3D12068C16821F08001C16081
:1027D0002068C16841F04001C160D8E7206A0088E4
:1027E000C0F308004860206A801C2062E5E74006CC
:1027F000CDD55006CBD5CA68204622F04002CA602B
:1028000084F83D3000F071F9C1E700004D35000853
:1028100070B5040004D094F83D00002510B106E026
:10282000012070BD84F83C50204600F023F824209D
:1028300084F83D002068C16821F40051C160204641
:1028400000F06CFF2068016921F49041016120686B
:10285000416921F02A0141612068C16841F40051B9
:10286000C1602564202084F83D0084F83E000020EB
:1028700070BD0000F0B587B0064614216846FDF72C
:1028800059FD324F306800253149022203230724C5
:10289000B8423BD12E481430076847F01007076054
:1028A000006800F010000590086840F00100086022
:1028B0000868694600F00100059058028DE825007F
:1028C000CDE903342348FEF761FA244C2248206006
:1028D0004FF00060C4E901054014C4E9035065618C
:1028E000A561E561256220466562FEF785F908B1BC
:1028F000FEF754F8B463002205212520A663FEF7F5
:10290000E5FB2520FEF7D4FB07B0F0BD144EB04226
:10291000FAD10F481030066846F4003606600068A9
:1029200000F400300590086840F00800086008686E
:10293000694600F00800059060208DE82500CDE98B
:1029400003340848FEF722FADEE7000000100140D9
:10295000303802400000024040640240A4050020DC
:1029600000440040000C0240704700002DE9F8438D
:10297000044690F83D001F4616460D4620284CD1CF
:10298000C5B1BEB194F83C00012846D0012084F8BE
:102990003C004FF00008C4F84080212084F83D003E
:1029A000FEF7F6FAA6848146E684A068B0F5805F5B
:1029B00003D004E00120BDE8F883206928B12E4649
:1029C0005FF0000584F83C800EE00026FAE78021E5
:1029D000204600F029FFA0B9AEB116F8010B21681E
:1029E0004860E08C401EE084E08C4B464FF00002D3
:1029F00000970028EBD14FF04001204600F014FF73
:102A000030B10320D7E735F8020BC0F30800E6E742
:102A1000202084F83D000020CDE70220CBE7000015
:102A200070B5044690F83D00202836D191B38AB3A2
:102A300094F83C00012830D0012084F83C00216249
:102A4000A284E28400252564212084F83D00636B84
:102A50001348D863636B13481864636B1248D864D7
:102A6000606B134605652668606B321DFEF72EF914
:102A700021686FF04000086084F83C5020681430F2
:102A800050E8001F41F0800140E80012002AF5D113
:102A9000002070BDFFE70120FBE70220F9E70000FE
:102AA000A7350008E93500085D35000890F83D308D
:102AB000202B18D1A9B1A2B190F83C30012B12D033
:102AC00001628284C28400210164212280F83D20B9
:102AD00080F83C100068C16841F08001C1600020AE
:102AE0007047012070470220704770477047FEE72B
:102AF0000D4808B5016841F48001016000680022BA
:102B000000F48000009005213A20FEF7DFFA3A2019
:102B1000FEF7CEFA002205213B20FEF7D7FABDE8EA
:102B200008403B20FEF7C4BA3038024010B5054AD1
:102B30000021054822F09AFA04490860BDE81040D7
:102B400003F014BDF0B8020899330008000000201B
:102B50002DE9F04387B014216846FDF7EBFB3948B7
:102B60000026016841F080010160016801F08001E8
:102B70000591016841F004010160016801F0040160
:102B80000591016841F001010160016801F0010156
:102B90000591016841F002010160016801F0020144
:102BA0000591016841F0080101600068264F00F0BE
:102BB0000800059001220C213846FEF7E4F9DFF801
:102BC0008C80012248F21E014046FEF7DCF9DFF856
:102BD000809001224FF450714846FEF7D4F9022547
:102BE0000C20012403958DE8510069463846FEF714
:102BF000CDF848F2060003958DE85100694640463D
:102C0000FEF7C4F81820CDE9000469464046CDE936
:102C10000245FEF7BBF8402003958DE85100694658
:102C20004846FEF7B3F84FF44070009001AA112017
:102C300082E8310069464846FEF7A8F807B0BDE8CB
:102C4000F0830000303802400008024000000240DB
:102C500000040240104810B50E4901604FF4827123
:102C60004160002102228160C0E903120122426119
:102C70005202C0E906210162416281620A21C162F9
:102C8000FEF71AFD002803D0BDE81040FDF786BE10
:102C900010BD00000030014024030020104810B592
:102CA0000E4901604FF4827141600021022281606F
:102CB000C0E9031201224261520282611822C0E976
:102CC0000721416281620A21C162FEF7F5FC0028FA
:102CD00003D0BDE81040FDF761BE10BD00380040D4
:102CE0007C030020104810B50E4901604FF482713A
:102CF0004160002102228160C0E903120122426189
:102D0000520282610822C0E90721416281620A21E0
:102D1000C162FEF7D1FC002803D0BDE81040FDF7EA
:102D20003DBE10BD003C0040D40300201CB5002473
:102D30000F4800940D490194016042F2CF01C0E9AF
:102D4000011409218461C160FFF7BEFA08B1FDF7E3
:102D500025FE0094694606480194FFF76DFA08B114
:102D6000FDF71CFE0248FFF70FFB1CBD00100040E2
:102D70008C0400201CB500240E4800940C490194DA
:102D8000016042F2CF01C0E9011463218461C16096
:102D9000FFF79AFA08B1FDF701FE0094694605486D
:102DA0000194FFF749FA002801D0FDF7F7FD1CBD9B
:102DB00000140040D40400200C4810B50A490160FA
:102DC0004FF4E1314160002181600C22C160C0E913
:102DD00004128161C161FFF71BFD002803D0BDE82B
:102DE0001040FDF7DBBD10BD001001401C050020A8
:102DF0000C4810B50A4901604FF4E13141600021EF
:102E000081600C22C160C0E904128161C161FFF7D9
:102E1000FFFC002803D0BDE81040FDF7BFBD10BD8A
:102E20000044004060050020FEE7FEE70168C96835
:102E3000826B1180816B891C8163C18F491EC187A0
:102E4000C18F002909D101684A6822F040024A6016
:102E5000C18E002901D100F049B870470168097B93
:102E6000826B1170816B491C8163C18F491EC187C0
:102E7000C18F002909D101684A6822F060024A60C6
:102E8000C18E002901D100F031B87047016B026892
:102E90000988D160016B891C0163C18E491EC186FE
:102EA000C18E002909D101684A6822F080024A6077
:102EB000C18F002901D100F019B87047016B026879
:102EC00009781173016B491C0163C18E491EC186CB
:102ED000C18E002909D101684A6822F080024A6047
:102EE000C18F002901D100F001B8704738B5044600
:102EF000214845F6C0510068B0FBF1F06421484319
:102F00000090FEF745F802462068416821F0200154
:102F10004160009888B1401E00902068806880075A
:102F2000F7D56421204600F06FF918B1606D40F0CC
:102F300020006065A06828B108E0606D40F02000C6
:102F40006065EEE72068C16880680090616D0120CF
:102F500029B184F851002046FEF7AAFB38BD94F849
:102F6000511084F851000429204602D0FFF75FF980
:102F700038BDFEF711FE38BD1000002038B50446FC
:102F80000068416821F060014160FEF701F80246E7
:102F90006421204600F00AF918B1606D40F020006D
:102FA0006065A06818B92068C16880680090012039
:102FB00084F85100606D0028204602D0FEF778FBAF
:102FC00038BDFEF7E9FD38BD38B504461C4845F666
:102FD000C0510068B0FBF1F0642148430090FDF758
:102FE000D7FF024620680099A1B1491E009181686F
:102FF0008907F8D5416821F0A0014160642120468D
:1030000000F002F918B1606D40F020006065A06822
:1030100028B108E0616D41F020016165EAE72068B0
:10302000C16880680090012084F85100606D00281C
:10303000204602D0FEF73CFB38BDFFF7EDF838BD67
:103040001000002010B5806B01684A6822F003026E
:103050004A60416D41F010014165012180F8511035
:10306000FEF726FB10BD10B5806BFEF796FD10BD78
:1030700010B5806BFFF7DAF810BD10B5806BFFF765
:10308000D7F810BD70B50546846BFDF781FF024689
:1030900028680068C00526D42068416821F0200116
:1030A0004160A06818B96068B0F5827F16D02068CA
:1030B000416821F0010141606421204600F076F86A
:1030C00008B1202060650020E087012084F85100CD
:1030D000606D40B12046FEF7EBFA70BD2068416894
:1030E00021F00301E7E72046FEF756FD70BD38B535
:1030F0000546846BFDF74CFF024628680068C00552
:1031000023D42068416821F0200141602068416893
:1031100021F0020141606421204600F075F818B1E9
:10312000606D40F020006065A068002118B920683B
:10313000C26880680090E186012084F85100606DCB
:1031400018B12046FEF7B4FA38BD2046FFF764F800
:1031500038BD70B50546846BFDF71AFF0246286836
:103160000068C0051ED42068416821F0200141603C
:103170006421204600F048F818B1606D40F020004E
:1031800060652068416821F0030141600020E0860D
:10319000E087012084F85100606D18B12046FEF7E9
:1031A00087FA70BD2046FFF742F870BDF8B50446B7
:1031B00040684FF48273984221D1A0684FF4806533
:1031C000B0F5004F01D0A8420AD12068066826F069
:1031D000400606606068984211D1A068A8420ED0EF
:1031E00000920B4600228021204600F079F800284A
:1031F00004D0606D40F0200060650320F8BD0092AF
:103200000B4600220121EFE738B504461248134B64
:103210000068B0FBF3F04FF47A7358430090606895
:10322000B0F5827F0DD10B4600920022802120460E
:1032300000F056F870B1606D40F02000606503202A
:1032400038BD009830B1401E009020688068C043AF
:103250000006F6D5002038BD1000002000366E01B3
:103260000168C968826B1180816B891C8163C18F81
:10327000491EC187C18F002901D1FFF77FBE70476A
:103280000168097B826B1170816B491C8163C18F5E
:10329000491EC187C18F002901D1FFF76FBE70475A
:1032A000016B02680988D160016B891C0163C18EC2
:1032B000491EC186C18E002901D1FFF785BE704726
:1032C000016B026809781173016B491C0163C18E9F
:1032D000491EC186C18E002901D1FFF775BE704716
:1032E0002DE9F8431E46914688460446089DFDF7A1
:1032F0004FFE401B351AFDF74BFE07462548006878
:10330000C0F3CB30684338E0701C37D0FDF740FE87
:10331000C01BA84203D215B1009860B32CE020680E
:10332000416821F0E00141606068B0F5827F0BD117
:10333000A068B0F5004F02D0B0F5806F04D12068CE
:10334000016821F040010160A06AB0F5005F09D179
:103350002068016821F4005101602068016841F48F
:1033600000510160012084F85100002084F85000D1
:103370000320BDE8F8830025401E00902068816886
:1033800038EA010004D000214945BDD10020F0E712
:103390000121F9E710000020012021F02CFEFBE7BD
:1033A00010B54FF0E020006928F072F8012803D032
:1033B000BDE8104027F030BD10BD000030B593B01F
:1033C00030216846FCF7B6FF14210CA8FCF7B2FFC9
:1033D0001D480025016841F080510160006800F03F
:1033E000805011901948016841F4804101600068E3
:1033F000022400F48040119001200090000401900C
:103400008001CDE9064008AA0420A82182E8130023
:103410000B906846FDF796FF08B172B6FEE70CA95F
:103420000F2081E831004FF4A0500F904FF48050EE
:10343000109005210CA8FDF77BFE002801D072B684
:10344000FEE713B030BD000040380240007000407D
:103450000248016841F470010160704788ED00E0A6
:103460000148FEF7D2BF0000040600200148FEF725
:10347000CCBF00008C0400200148FEF7C6BF00004E
:10348000D4040020F0B50268254C264D264E274F67
:10349000274B4FF0804CA04209D0604507D0A8428E
:1034A00005D0B04203D0B84201D0984204D122F0F6
:1034B000700E4A6842EA0E02A0421BD0604519D045
:1034C000A84217D0B04215D0B84213D0984211D0BC
:1034D000184DA8420ED0184DA8420BD0174DA84247
:1034E00008D0174DA84205D0164DA84202D0164D5F
:1034F000A84203D122F44075CA682A434D6922F0DC
:1035000080022A4302608A68C2620A688262A0421C
:1035100001D0984201D10969016301214161F0BDE7
:10352000000001400004004000080040000C004082
:1035300000040140004001400044014000480140B7
:1035400000180040001C00400020004010B5806BB7
:103550000021C185C184FFF725F810BD70B5846BCB
:103560002068406994F83D10C0F3C010002521295F
:1035700004D118B1E584204600F062F82068406963
:1035800094F83E10C0F38010222904D118B1E585CB
:10359000204600F02EF8206C40F0100020642046F9
:1035A000FFF700F870BD10B50146806B0968096827
:1035B000C90516D40021C1840168143151E8002FD7
:1035C00022F0800241E80023002BF5D101680C3184
:1035D00051E8002F42F0400241E80023002BF5D1D2
:1035E00010BDFFF782FA10BD10B5806BFFF77EFAB1
:1035F00010BD01680C3151E8002F22F4907241E8AF
:103600000023002BF5D10168143151E8002F22F07E
:10361000010241E80023002BF5D1016B012909D1FA
:1036200001680C3151E8002F22F0100241E800231C
:10363000002BF5D1202180F83E1000210163704756
:1036400001680C3151E8002F22F0C00241E800234C
:10365000002BF5D1202180F83D10704708B590F877
:103660003E10222901D0022008BD82684FF4805309
:103670009A4201D1016921B1816A9A421BD04AB1B3
:103680000AE00268816A5268C2F308020A80816A0D
:10369000891C08E0026972B10268526802F07F0278
:1036A0000A70816A491C8162C18D491E0904090C96
:1036B000C18503D019E002685268F1E70168CA6861
:1036C00022F02002CA600168CA6822F48072CA60CF
:1036D00001684A6922F001024A61202180F83E1007
:1036E000016B012903D0FFF73FF9002008BD00213D
:1036F000016301680C3151E8002F22F0100241E80B
:103700000023002BF5D101680A68D20602D50A68A9
:1037100049680091818DFEF744FFE6E770B50446E5
:1037200000680169E26821F4405111430161216997
:10373000A068E26908436169114308432168CA68C7
:1037400049F20C639A430243CA6020684169A26946
:1037500021F440711143416131492068884202D00F
:103760003049884202D1FDF7ADFD01E0FDF79AFD39
:10377000E2690023192164253226B2F5004F626800
:1037800028D0A0FB0101930F9200FCF77BFD0146BE
:10379000B0FBF5F06FF01802504301EB800006EB30
:1037A0000010B0FBF5F000F0F002B1FBF5F002EB19
:1037B0000012B1FBF5F06FF01803584301EB8000E5
:1037C00006EB0010B0FBF5F000F00F00216810448C
:1037D000886070BDA0FB010192185B41FCF752FDAF
:1037E0000146B0FBF5F00201B1FBF5F06FF01803F4
:1037F000584301EB800006EBC000B0FBF5F000F091
:10380000F80002EB4002B1FBF5F0584301EB8000F9
:1038100006EBC000B0FBF5F000F00700D6E70000B3
:1038200000100140001401402DE9F0419846174670
:103830000E460446069D27E0681C25D02DB1FDF7F5
:10384000A7FBA0EB0800A8421ED920680C3050E866
:10385000001F21F4D07140E80012002AF5D1206841
:10386000143050E8001F21F0010140E80012002A46
:10387000F5D1202084F83D0084F83E00002084F833
:103880003C000320BDE8F0812068006836EA0000B3
:1038900004D00020B842CFD00020F3E70120F9E7A0
:1038A0000148FEF781BE00001C050020FEE7000075
:1038B0000FB4054B10B503A9044A029801F076FE37
:1038C00010BC5DF814FB0000B300010820030020C9
:1038D000014B024A01F06ABEB30001082003002038
:1038E0000907090E002804DB00F1E02080F800142D
:1038F000704700F00F0000F1E02080F8141D7047C1
:1039000002E008C8121F08C1002AFAD170477047A8
:10391000002001E001C1121F002AFBD1704700689E
:103920001AF02EB870B5044600256FF02F0608E097
:103930002068411C2160007805EB850106EB410100
:1039400045182068007800F053F90028F0D1284687
:1039500070BD000070B510F017FD04461D4911F050
:1039600059F88222F02120461DF0C0F9B42300222C
:103970000221204619F020FC174811F055FF01469E
:10398000002220461DF0A0FA0022114620461DF01C
:10399000C9FA124811F048FF01464FF4A0252A4603
:1039A00020461DF091FA0E4811F03EFF01460D4AE7
:1039B00020461DF089FA12F049F901462A462046B0
:1039C0001DF010FB2A460A2120461DF001FB20466F
:1039D00070BD0000240000205E493400503E2C00E1
:1039E0009CBC1A002000050010B51FF083FD0446A2
:1039F0003C22C8211DF07AF96423002202212046CE
:103A000019F0DAFB16A120461FF0EAFF012120463B
:103A10001FF0B0FF012120461FF072FF0821204651
:103A20001FF06CFF0F4811F0FFFE014600222046F8
:103A30001DF04AFA12F00AF90146002220461DF054
:103A4000D1FA0022022120461DF06CFA064811F03E
:103A5000EBFE0146002220461DF058FA204610BD1C
:103A6000000000005E4934009CBC1A002DE9FF5F95
:103A700082B00021DDE90430020DDDF840B00343DF
:103A800018D044F61050A2F2FF3242431514119898
:103A900001281FD0A5EB0B00401C5FEA000A4FF085
:103AA00000064E4FDFF83891B046504615D5CAF1A2
:103AB000000413E0119801244AA3012801D16FEA00
:103AC0000B010298119AC0E90031C0E9024206B028
:103AD000BDE8F09FCBF10000DFE704460021404A3B
:103AE000491842EB0450CDE9001012E0E00707D07E
:103AF00032463B4640464946FCF72EFD8046894605
:103B000032463B4610461946FCF726FD06460F4650
:103B10006410002CEAD1DDE90401DDE90023BAF1EB
:103B2000000F06DAFCF718FD42464B46FCF714FD81
:103B300005E0FCF783FD42464B46FCF77FFD04465B
:103B40000E460022284BFCF701FE03D84FF0FF3051
:103B5000014607E00022254B20463146FCF755FC84
:103B6000FCF7DBFD102409E0002C0ADB0A2200230D
:103B7000FCF788FB039B30321A55641E50EA0102A1
:103B8000F2D1641C039AC4F111031444119A012A5E
:103B900003D0012208430DD10AE0084304D00020DD
:103BA0004FF0110B119072E7A3EB0B056D1E0DE0AA
:103BB0005B4504DD4FF0000205F1010504E003DA86
:103BC0004FF00002A5F10105002AECD002981199EE
:103BD000C0E90231C0E9004579E700000000144067
:103BE0000000F03F300000000000F0430000E03F24
:103BF0003038092801D801207047002070470000A4
:103C000010B54421074800F085FF00221E21064818
:103C100020F044F8054CA06002F0E8FB0020207082
:103C200010BD0000D4770020A164000888020020A5
:103C30002DE9F0470E46814617461146304600F002
:103C40001CF94FF0FF3A00287DD00022394630465B
:103C500000F0BFF800284FF0000075D1B6F90480DD
:103C6000B6F900305246A8EB0301491C0AFA81F16B
:103C70000FFA81FAB6F906C0B6F90210ACEB010CE6
:103C80000CF1010C02FA8CF2B7F802C012B2ACEBE4
:103C9000010C0FFA8CFCBCF1000F0EDD63F30F0476
:103CA00068F30F0501EB0C0061F31F4460F31F453F
:103CB000C9F800400120C9F80450B7F9061073880C
:103CC000CB1AD21A12B2002A13DDB6F90630994285
:103CD0000FDA338863F30F04B38861F31F4463F38F
:103CE0000F05114461F31F4509EBC001401C0C6036
:103CF0004D60B7F90220B6F902108A4200DD114684
:103D0000B7F90630B6F90620934200DA1A463B8826
:103D1000B6F900C0521AA3EB0C031BB212B2002B6F
:103D200010DD002A0EDD634463F30F058B1863F387
:103D30001F456CF30F0409EBC00361F31F441C60C3
:103D40005D60401C01E01AE017E0B7F904303688E6
:103D50009F1BAAEB070636B2002E0EDD63F30F049D
:103D600061F31F44334463F30F05114461F31F45AE
:103D700009EBC001401C0C604D60BDE8F087504667
:103D8000FBE770B5B1F90030B2F90040A34200DCA6
:103D900023460380B1F90250B2F90240A54200DD8A
:103DA0002C464480B1F90460B2F90450AE4200DA06
:103DB00035468580B1F90610B2F90620914200DB44
:103DC0001146C1800120AB4201DC8C4200DD0020A5
:103DD00070BDF8B50D460446B0F90000B1F9001009
:103DE0001646884247DBB4F90210B5F90220914229
:103DF00041DBB4F90410B5F9042091423BDCB4F97D
:103E00000610B5F90620914235DC96B3ADF80000F6
:103E10006088ADF8020032466946284600F099F8FD
:103E2000002827D0A088ADF800006088ADF8020017
:103E300032466946284600F08CF800281AD02088BF
:103E4000ADF80000E088ADF8020032466946284629
:103E500000F07FF800280DD0A088ADF80000E088C1
:103E6000ADF8020032466946284600F072F8002894
:103E700000D00120F8BD0020F8BDB0F90020B1F954
:103E800004309A4213DCB0F90420B1F900309A42B0
:103E90000DDBB0F90220B1F906309A4207DCB0F927
:103EA0000600B1F90210884201DB012070470020B2
:103EB0007047F8B50D460446B0F90400B1F900109A
:103EC0001646884243DBB4F90600B5F90210884271
:103ED0003DDBB4F90000B5F90410884237DCB4F9D1
:103EE0000210B5F90620914231DC76B3ADF800003E
:103EF0006088ADF8020032466946284600F029F88D
:103F000018BBA088ADF800006088ADF8020032460A
:103F10006946284600F01DF8B8B92088ADF80000C1
:103F2000E088ADF8020032466946284600F011F8F4
:103F300058B9A088ADF80000E088ADF8020032461C
:103F40006946284600F005F808B10020F8BD0120B8
:103F5000F8BD2DE9FC4114460E46B1F90020B0F938
:103F6000001005468A423ADBB5F90400824236DC8D
:103F7000B6F90270B5F90220974230DBB5F9063088
:103F80009F422CDC002C75DD401A9A1A401C521CF2
:103F900000B212B200EBD07002EBD272401052109D
:103FA000904200DB1046844200DD0446ADF800106C
:103FB000288800222044ADF804006888ADF802008B
:103FC000688831462044ADF806006846FFF7C1FF17
:103FD00040B1BDF804002044ADF804003FE00020EB
:103FE000BDE8FC81E8880022001BADF80200E888EB
:103FF000ADF8060031466846FFF7ABFF28B1BDF8C3
:1040000004002044ADF8040011E0A8880022001B41
:10401000ADF80000A888ADF8040031466846FFF707
:1040200098FF50B1BDF80000001BADF80000BDF8CE
:104030000200001BADF8020016E06888ADF802002F
:10404000688800222044ADF8060031466846FFF734
:1040500080FF70B1BDF80000001BADF80000BDF896
:1040600006002044ADF80600314668461DF05AF9B6
:10407000B6E7FFE70120B3E710B5B1F90040B2F9A8
:1040800000309C4200DA23460380B1F90240B2F9C5
:1040900002309C4200DA23464380B1F90440B2F971
:1040A00004309C4200DD23468380B1F90610B2F94A
:1040B0000620914200DC1146C18010BD2DE9F0417F
:1040C0008AB007461FF086FD0026A34C05460096E1
:1040D0000FB1F86801E012F077F9606000691DF037
:1040E0001DF86068406908B11DF018F86068C06983
:1040F0001DF014F86068006A1DF010F8606801692E
:1041000091B11DF0BFF922F065FC22F08BF96068D7
:10411000B0F85011E9B30068017CC9071FD0C0682E
:104120004068E0B1002715E0A0F850610AB0BDE892
:10413000F081C11991F8301151B900F5AC7000F05F
:1041400040FD616801EBC7010A6B0260496B416089
:104150007F1CBFB26068B0F85011B942E9D86068FE
:104160004FF48071303018F03BFC6068202100F57E
:10417000987018F035FC6068A0F8506128461FF070
:1041800023FD009060680068436A13B122680099BB
:10419000984718F069FA00F02BF900F0FDF86F4D20
:1041A0006F69D7BB17F0D1FF17F0CAF80746002296
:1041B0007F211CF0A6FE11F06FFA0146002238465E
:1041C0001CF082FE11F05CFD0146002238461CF016
:1041D00009FF0022032138461CF0F5FE00220321CE
:1041E00038461CF0E1FE0022032138461CF0E1FEB7
:1041F0000022032138461CF0E1FE0022032138464C
:104200001CF0EBFE56A1384617F020FF00231A469B
:104210000621384618F0D0FF6F6128681FF0D4FCE3
:104220004FF4967840450CD2206841F2883188429C
:1042300034D96968009808446860A868401CA86080
:104240002CE01FF0C7FC28606068406828B1006857
:104250004FF47A71B1FBF0F000E02120696809B9F0
:1042600001216960A968F1B14FF47A7251436A681B
:10427000B1FBF2F46E60AE60844200D90446286956
:1042800020442861E868401CE8601FF039FDC0F157
:104290006403224633A1384617F00FFF2E4D083530
:1042A0006C6814B137E00446E4E717F04EFF17F0EE
:1042B00047F8044600227F211CF023FE11F0ECF9A0
:1042C0000146002220461CF0FFFD11F0D9FC0146FA
:1042D000002220461CF086FE0022032120461CF00E
:1042E00072FE0022032120461CF05EFE0022032104
:1042F00020461CF05EFE0022032120461CF05EFEDC
:1043000017A1204617F0A2FE00231A4604212046DA
:1043100018F052FF6C6028681FF056FC40457FF68D
:1043200005AF1FF057FC286002A818F035FA049971
:104330000298401A820A514200EB81206621B0FBAC
:10434000F1F39DF821109DF82000CDE9000109A1AD
:10435000204617F0B2FEE9E640010020407600203A
:104360003F0000002575204650530A25752525205D
:104370004350550025752E2575206B4220757365B9
:104380006420282564202525290A25642525206602
:104390007261672E0000000070B50A4D002400BF56
:1043A000C4EBC40655F8260008B118F0D1F905EBA6
:1043B00086001C2118F014FB641CE4B2042CEFD31B
:1043C00070BD0000B0780020084949680AE04A68DA
:1043D000824202D00A68824203D10A7E42F0010280
:1043E0000A7649690029F2D17047000014010020C3
:1043F000704700000421014800F08CBBC877002002
:104400002021014800F086BBE07700202DE9FF4124
:104410000446DDE90A671D004FF0000002D1B6F541
:10442000807F2BD0039001900290ADF80C1000908B
:10443000ADF80410ADF80A20ADF80E203B46324628
:10444000294668461CF0CEFE3B463246294601A866
:104450001CF0C8FE3B463246294602A81CF0C2FEAC
:104460003B463246294603A81CF0BCFEBDF90000BD
:10447000BDF90430984209DA054608E02080491E5B
:104480006080A180521EE280BDE8FF811D46BDF91B
:104490000820BDF90C108A4201DA164600E00E46EB
:1044A000B54203DA984206DB184604E08A4201DA94
:1044B000104600E00846801E2080BDF90030BDF99E
:1044C0000420934201DD1D4600E01546BDF90800B9
:1044D000BDF90C10884201DD064600E00E46B542EB
:1044E00005DD934201DD194604E0114602E08842F1
:1044F00000DD0146891CA180BDF90230BDF906200E
:10450000934201DA1D4600E01546BDF90A00BDF9E7
:104510000E10884201DA064600E00E46B54205DA82
:10452000934201DA194604E0114602E0884200DABB
:104530000146891E6180BDF90230BDF90620934213
:1045400001DD1D4600E01546BDF90A00BDF90E105B
:10455000884201DD064600E00E46B54205DD934285
:1045600001DD194604E0114602E0884200DD014603
:10457000891CE18088E700002DE9F04115460E46D0
:104580000746114C1FF026FB80462B463246394623
:10459000204616F015F920B10020A062E06950B164
:1045A00010E02C21204618F01BFA4FF00040A062CA
:1045B0000020BDE8F08140461FF006FBE06108B92D
:1045C0000120E0612046F4E70478002010B51421B2
:1045D000074800F09FFA16F0B9F840B105490160AC
:1045E00005494160054981600549C16010BDFEE78C
:1045F000EC77002021A101089DA401086DA6010807
:10460000EDA0010870B50D4604461021284618F0AB
:10461000E7F920680078012804D0022807D0042890
:1046200007D008E0A08A2880E08A688003E0E0687C
:1046300000E00A20686020684268002A03D029460A
:10464000BDE87040104770BD2DE9FE430446808AE6
:1046500010B9E08A002874D0D4F82C805FEA0800F2
:1046600010D120460BF005F85FEA000869D020461B
:104670000DF046FE00220921404614F099FF6078B3
:1046800080075ED44FF4807900274E4645460021CE
:1046900028461AF009FE384407B2002128461AF0CD
:1046A00021FEC11700EB1160001210FB06F006B2EC
:1046B000284619F0F5FD0500E9D10FB94E450CD09B
:1046C000784201B24FF4803090FBF6F002B26B46B4
:1046D00004F1140000951CF085FDADF80450ADF810
:1046E000085094F8400000F00F000328404616D010
:1046F00019F028FF0646404619F0DEFD03460C205F
:104700000090B4F91610324640460AF059FBADF855
:104710000800404619F022FEC10713D018E019F036
:10472000A5FE0646404619F041FE024603200090D1
:10473000B4F91410334640460AF042FBADF80400C9
:10474000E7E736E0BDF90410002901DDADF80450BB
:10475000810705D4BDF90410002901DAADF8045031
:10476000410705D4BDF90810002901DDADF8085056
:10477000000705D4BDF90800002801DAADF808509B
:1047800002AA01A9204622F0C1FCBDF90820BDF90A
:104790000410404600F08AFA6078800709D4208B24
:1047A000BDF8041008442083608BBDF8081008444D
:1047B0006083BDE8FE832DE9FC5F0446C06A5FEAC2
:1047C000000B71D094F8400000076DD016F08AFA03
:1047D000019000684021457E58461AF0AFFE4FF028
:1047E000000818B9A4F81E80A4F81C80584619F0D7
:1047F0009BFE8246584619F09EFE064694F84000FD
:104800004FF0640900F00F000C2802D003284CD0B0
:104810009AE0A4F81C8056B1B4F91E50002716F097
:1048200061FA00684946407EC0F1640022E0E08BF6
:10483000C5F1640110FB01F191FBF9F0E0835846EA
:1048400019F03AFD0546584619F07CFE02460C2048
:104850000090B4F91E102B4658460AF0B1FAE083D6
:10486000024600231EE07A1917B210FB05F292FBF4
:10487000F1F215B2002DF6D1ADF80070A4F81E804B
:104880006A460021204622F041FC41F6FF72BDF944
:104890000030514258460BF083F8BDF80010012358
:1048A000084402B200214CE09AE0A4F81E80BAF15C
:1048B000000F0AD0B4F91C50002716F013FA006854
:1048C0004946407EC0F1640022E0A08BC5F164013E
:1048D00010FB01F191FBF9F0A083584619F066FD39
:1048E0000546584619F0C2FD034603200090B4F96E
:1048F0001C102A4658460AF063FAA083014600239A
:104900001EE07A1917B210FB05F292FBF1F215B214
:10491000002DF6D1ADF80070A4F81C800022694685
:10492000204622F0F3FB41F6FF72BDF90030514200
:1049300058460AF0ADFFBDF800100123084401B24B
:10494000002258461BF036FFA08B002848D1E08B90
:10495000002845D1C6B9584619F0F4FD0546584619
:1049600019F0AAFC002D06DC00280DDD002D02DA6E
:1049700001232A4604E0002806DA0123404202B25D
:10498000002158461BF016FFBAF1000F19D1584606
:1049900019F00CFD0546584619F068FD002D07DC9E
:1049A00000280EDD002D03DA01230022294605E050
:1049B000002806DA01230022404201B258461BF0CB
:1049C000F9FE0A215846019A14F0F2FD607880073A
:1049D00006D414F8400F20F00F00207044F8148C17
:1049E000BDE8FC9F7FB50E46040003D111F0ECFC3E
:1049F00004002CD011F05CFD002828D094F8280089
:104A0000400724D4002506B3ADF80050ADF802509D
:104A1000204611F0F1FC401EADF80400204611F0D4
:104A200031FD401EADF806006A46314602A8FFF788
:104A3000A8F900280BD02068017C890708D5DDE99A
:104A40000001C4E90C01012029E0A4F850517FBD08
:104A500082690AB102A9904700260AE004EBC60168
:104A6000002202A83031FFF7B4F90028EFD1761CFC
:104A7000B6B2B4F85001B042F0D880B2202804D2C7
:104A800004EBC00002A9303004E0A4F8505104F156
:104A9000300069460FF087F9B4F85001401CA4F8C3
:104AA000500160680028D2D01FF0D8F97FBD70B5E2
:104AB000054600F012F804460CE02146284600F0B6
:104AC0001EF806462146284600F0A2F8204617F0B8
:104AD0003FFE3446002CF0D170BD002800D0406865
:104AE000704700B503460022FFF7F7FF03E01846C2
:104AF000521C00F004F80100F9D1104600BD006816
:104B0000091D40587047006840587047002800D081
:104B10008068704700224260C91C21F00301826056
:104B20000160704770B504460068083017F084FDD6
:104B3000050013D001460022204620F0BFF9294687
:104B40002046626820F0B4F9616819B12A4620460F
:104B500020F0B4F96560A06800B9A560284670BD72
:104B60002DE9F0410C4606000AD04CB1FFF7B5FF25
:104B7000A04208D13046FFF7D5FF051E01D01EE048
:104B80000020BDE8F0813068083017F055FD051EA3
:104B9000F7D030682A4607593046394620F088F960
:104BA0003A462946304620F089F92A4621463046C1
:104BB00020F084F922462946304620F079F928462B
:104BC000DFE770B504460068083017F035FD0500D2
:104BD00013D001460022204620F06AF929462046DB
:104BE000A26820F06BF9A16819B12A46204620F08E
:104BF0005FF9A560606800B96560284670BD28B19E
:104C0000416809B9806808B10020704701207047E9
:104C100070B504000DD0FFF760FF002288422046E7
:104C200008D1FFF76CFF6060011E01D000221EE07A
:104C3000A26070BDFFF76AFF8842206808440AD16D
:104C40000168A16029B12046BDE87040002220F033
:104C50002FB9626070BD05682046FFF750FF064619
:104C600002462946204620F023F92A4631462046AE
:104C7000BDE8704020F022B910B504460068826893
:104C80000AB12146904720680068002801D02060C2
:104C9000F5E710BD8068002801D0B0F91600704714
:104CA0008068002801D0807E8009704770B5164664
:104CB00005460C4651EA06001AD0284618F0F6FBC5
:104CC000A86801233246018A21440182A868418AEA
:104CD00031444182214628461AF0C4FF00220B21AC
:104CE000284614F065FC012803D128461AF014FF69
:104CF000012070BD77B581B00E46050017D0622245
:104D00001AF000FA040012D0206880B1284631461B
:104D100063221AF0F7F910F0FF0208D0236820464A
:104D2000039998470090BDF80000ADF80C00039877
:104D300004B070BD2DE9F047074692B0408C1A9E32
:104D400040F00800788490463A8499468A46328931
:104D500038461AF0D7F90546A7F82090328951460F
:104D600038461AF0CFF90446788CA54220F00800A6
:104D7000788403D12904B1EB044F68D0A7F82080D0
:104D80003289514638461AF0BDF905468046A7F8E3
:104D90002090514638460CF0EBF8318900682A46DD
:104DA0001DF020FE30890B2823D147F6FF794D45B1
:104DB00001D04C451DD138461AF077FB00EBD0707E
:104DC0004510384619F02BFA00EBD0704010C8455A
:104DD00006D1691C431C994200DA00E01946884656
:104DE0004C4506D1691C421C914201DA6C1C00E062
:104DF00014461948FFF796FE05002BD02F60C5E931
:104E000003843089A8806846C5F808A00EF024FA0B
:104E10001248FF21CDE9005011480290114803903B
:104E200000200890CDE9090130880B9070889DF82A
:104E3000421040420C90F0680790002060F300019F
:104E40008DF842103069069068460EF093FA12B061
:104E5000BDE8F087FEE70000F8770020719D0208AA
:104E60006D9F0208C99E020814210148FFF752BE37
:104E7000F87700202DE9F84F002590468946064630
:104E80002C460427E6E000BFF06807EBC401405859
:104E900081017CD480B230EA090112D05FF00002B7
:104EA00030EA08000FD00020824270D0F0686A46D5
:104EB000102150F8340082461DF0F6FA002871D116
:104EC00003E00122ECE70120EEE76A46112150469B
:104ED0001DF0EAFA002865D16A46122150461DF0FD
:104EE000E3FA00285ED16A46132150461DF0DCFA31
:104EF000002857D16A46152150461DF0D5FA0028E2
:104F000050D16A46142150461DF0CEFAF0BB6A46D5
:104F10000A2150461DF0C8FAC0BB6A466B215046B4
:104F20001DF0C2FA90BB6A466C2150461DF0BCFAD7
:104F300060BB6A46012150461DF0B6FA30BB6A4696
:104F4000042150461DF0B0FA00BB6A4602215046CB
:104F50001DF0AAFAD0B96A46032150461DF0A4FA02
:104F6000A0B96A46052150461DF09EFA70B96A46FE
:104F7000062150461DF098FA40B96A463221504643
:104F80001DF092FA10B96A466E2101E00AE060E075
:104F900050461DF089FA28B96A466D2150461DF029
:104FA00083FA10B10320BDE8F88F6A4669215046A4
:104FB0001DF07AFAF0BB6A466A2150461DF074FA79
:104FC000C0BB6A466E2150461DF06EFA90BB6A4621
:104FD0006D2150461DF068FA60BB6A463721504685
:104FE0001DF062FA30BB6A46382150461DF05CFA6B
:104FF00000BB6A46352150461DF056FAD0B96A46C4
:10500000402150461DF050FAA0B96A46452150464D
:105010001DF04AFA70B96A46412150461DF044FA23
:1050200040B96A46422150461DF03EFA10B96A4620
:10503000432100E009E050461DF036FA28B96A46DF
:10504000492150461DF030FA08B1022501E005B9AA
:105050000125641C708CC0F30510A0423FF614AF0C
:105060002846A0E701484068704700004001002042
:105070000549002048600861C86088600860486190
:1050800002490860486070474076002048010020CF
:10509000C0F30410072800D907207047A0F57F410E
:1050A000FF3905D0002804D0712803D208490AE04E
:1050B0001F2070470749713880B2096829B1064A34
:1050C0005268904201D2085C70470020704700008F
:1050D00054F90208B4020020C802002010B51821BB
:1050E0000348FFF717FD03490120087010BD0000B9
:1050F000A4770020D00200202DE9F04190460C4614
:10510000050015D0FBF721F90A4F06462146BA687B
:10511000284690470446BA682819414690470146F8
:10512000701A03E06218AA5C2A55641CA042F9D2E6
:10513000BDE8F081E40200202DE9F041094D9046E0
:105140000E466A681C46074619469047306020B1F3
:1051500020686A68384400219047C8F80000BDE81C
:10516000F0810000E40200202DE9F04F87B08A466C
:10517000DDE910581F4693460446002105B12980F9
:105180005CB12078002809D0BAF1000F05D00026C4
:1051900018F0060F15D0002004E0002007B0BDE88D
:1051A000F08F401C215C0A2904D00D2902D000296F
:1051B000F7D100E0401C002DF0D04FF0FF312980E6
:1051C000ECE75FEA887001D541F6FF77894608462B
:1051D0008DF81410049127E00498CDF8189068B366
:1051E0004FF0000C05AA06ABCDF80CC0CDF800803E
:1051F000CDE9013220443B465A4651461EF092FF0B
:1052000006997A1A314417B20EB288B10499014452
:10521000049120780A280BD00D2809D0605C0A2858
:105220000FD00D280DD00846205C08B1002FD3DC2C
:10523000049848B105B12E800498AFE74FF0010CF7
:10524000D0E7481C0490F3E7064A04A920465268B8
:105250009047002DF0D001460022504614F0BCFAD1
:1052600006B2E8E7E40200202DE9F041174688463F
:1052700006001ED0002F1CD0FBF767F80446384606
:10528000FBF763F8050014D00B4A2C4441469268A2
:1052900030469047411903E0621BB25C3255641EF0
:1052A000A142F9D930442A463946BDE8F04117F009
:1052B00059BBBDE8F0810000E40200200023027821
:1052C000232902D0012A0DD00FE02AB10021012AA2
:1052D00004D0022A04D008E0012101E0017004E0BA
:1052E000017001E0202902D00123184670470221F5
:1052F000F6E72DE9F0410E4680460246002133468E
:1053000008461FF04DF904460027401C17F094F999
:10531000050008D02F5533464246611C1FF040F966
:105320002846BDE8F081FEE72DE9F0471E46144609
:105330000D468246DDF8209015E000BF4FEA540884
:1053400008FB0657394650464A469047002808DD74
:1053500044F30000C0EB540407EB0605A4F101047C
:1053600001E005DA4446002CE8D12046BDE8F0878C
:105370003846FBE72DE9FC5F9B460CAB8A4681462D
:10538000DDE9116093E81210DDE90F575FEA8078DC
:105390004FF030031AD45EB15FEAC07808D000F055
:1053A0000C0858EA0C0803D0761E01E00B55641C6B
:1053B000BC4204D2202CF9D301E00B55641C5FEAF7
:1053C000C07803D0B44201D2202CF6D35FEAC06883
:1053D00025D55FEA40580AD44CB1BC4201D0B44252
:1053E00005D1641E03D0102D03D1641E04E0102DDE
:1053F00002D0022D0AD00EE0850603D4202C1ED246
:10540000782506E0202C1AD2582502E0202C16D24E
:1054100062250D55641C202C11D20B55641C202CC8
:105420000DD2BCF1000F01D02D2306E0430701D5BA
:105430002B2302E0030702D520230B55641CCDE982
:1054400000BAC846154681468B46AA46800714D145
:10545000274607E02A46DDE900316D1C2020C446BE
:10546000E0477F1CB742F5D307E02A466D1C641E57
:10547000DDE900311BF80400C047002CF5D15FEADC
:10548000897006D409E02A46DDE900316D1C202030
:10549000C047A5EB0A00B042F5D32846BDE8FC9F03
:1054A0002DE9F04F8FB099468B46DDE91818DDE9FC
:1054B0001C63DDE91A4792468646002209B923F0AB
:1054C0001003580507AD00D5C9B1B1FBF4F004FBDA
:1054D0001010C0B20A2801D2303009E05FEA836CB4
:1054E00002D54FF0410C01E04FF0610C60440A38E6
:1054F000B1FBF4F1A854521C09B1202AE5D3CDF830
:105500000880CDE90563CDE90052CDE903474B465C
:10551000524659467046FFF72DFF0FB0BDE8F08F99
:105520002DE9FF4F8FB01CACDDE9239594E803080B
:1055300020AC94E8C004002450EA010201D125F017
:1055400010056A050DF11C0802D550EA010217D0BA
:1055500032463B46FAF796FED2B20A2A01D23032E0
:1055600006E0AB0601D5412300E061231A440A3A64
:1055700008F80420641C50EA010201D0202CE7D373
:10558000CDE90084CDF808B0CDE90595CDE9036AF1
:105590000FAF97E80F00FFF7EDFE13B0BDE8F08FF7
:1055A0009A4200D288547047704700002DE9FF4F9F
:1055B00095B09A46884606460025EEE1252877D123
:1055C00000242746F94A0121039400E0044316F819
:1055D000013F203B01FA03F01042F7D130782A282E
:1055E00011D06FF02F033078A0F13002092A16D8BD
:1055F000039A44F0020402EB820203EB42021044DD
:10560000761C0390EFE758F8042B0392002A03DA84
:10561000504244F40054039044F00204761C307865
:105620002E2816D116F8010F44F004042A280DD0B4
:105630006FF02F023078A0F13003092B09D807EB67
:10564000870302EB4303C718761CF3E758F8047B83
:10565000761C30786C280FD006DC4C2817D06828D0
:105660000DD06A2814D104E0742810D07A280FD104
:105670000DE044F400140AE044F4801401E044F422
:1056800040147278824202D104F58014761C761C94
:10569000307866280BD013DC582877D009DC002836
:1056A00075D04528F6D04628F4D047281AD193E182
:1056B00018E0632835D0642879D0652812D18BE1B1
:1056C000702873D008DC6728F1D069286FD06E2865
:1056D0000DD06F2806D1ACE073282CD0752874D07B
:1056E000782853D05246179990476D1C54E1C4F363
:1056F0000250022809D003280DD0D8F80010042841
:105700000DD00D6008F1040846E1D8F80010EA1742
:10571000C1E90052F6E7D8F800100D80F2E70D70ED
:10572000F0E718F8041B8DF8001000208DF8010038
:10573000EB46012003E058F804BB4FF0FF3061074F
:105740004FF0000102D40DE009F101018946B94290
:105750000FDA8145F8DB1BF809100029F4D108E0C5
:1057600009F1010189468142FADB1BF80910002981
:10577000F6D103985346A0EB090721463846179AFD
:1057800000F080FA284400EB090507E044E008E156
:105790000DE01BF8010B524617999047B9F101092A
:1057A000F7D2534621463846179AF2E039E00A21EB
:1057B000C4F302524FF0000B0091022A06D058F8B1
:1057C000040BC117032A09D00AE023E008F10700FF
:1057D00020F00702F2E80201904605E000B2C1178E
:1057E000042A01D140B2C117002906DA0A46002175
:1057F000404261EB02012D2202E0220504D52B225A
:105800008DF80420012203E0E20701D02022F7E70F
:10581000914657E00A2100E010214FF0000B009163
:105820000BE010214FF0000B44F004040827009116
:1058300003E008204FF0000B0090C4F30252022A4C
:1058400005D058F8040B0021032A08D008E008F11D
:10585000070020F00702F2E80201904603E080B260
:10586000042A00D1C0B24FF0000922072AD53278AD
:10587000702A07D0DDF800C08CF0100C5CEA0B0C2D
:1058800005D00EE040228DF80420012208E050EA05
:10589000010306D030238DF804308DF80520022254
:1058A0009146009B83F0080353EA0B030AD150EAA8
:1058B000010201D1620705D530228DF804204FF096
:1058C00001097F1E3278582A04D039A20C920CAA02
:1058D00002920BE03BA2F9E75B46009AFAF7D2FC92
:1058E0000C9B9B5C029A521E0292137050EA0102BA
:1058F000F2D1029804A9081A00F1200B600702D522
:1059000024F4803400E001275F4502DDA7EB0B00A3
:1059100000E0002000EB0B01009003984944401A7E
:105920000390E00306D453462146179A039800F0EB
:10593000A9F90544002706E001A85246C05D179961
:1059400090476D1C7F1C4F45F6DBE0030CD553469A
:105950002146179A039800F095F9054404E0302099
:105960005246179990476D1C0099481E00900029D7
:10597000F5DC08E00298029952460078491C029131
:10598000179990476D1CBBF10001ABF1010BF1DCE5
:105990005BE100F065F90544761C307800287FF45F
:1059A0000DAE19B02846BDE8F08F000009280100AF
:1059B0003031323334353637383961626364656685
:1059C0000000000030313233343536373839414247
:1059D0004344454600000000600700D4062708F154
:1059E000070020F00700F0E80223804603F0004C97
:1059F0005FEA0C0001D097A009E0200501D596A030
:105A000005E0E00701D095A001E0AFF24C00139053
:105A1000307823F0004365280CD006DC452809D0F7
:105A200046281DD047287FD13BE0662818D067283C
:105A30007AD136E00021112F01DB112000E0781C23
:105A4000CDE9000104A90CA8FEF710F8DDE90D016D
:105A50000C9A4FF0000B07F10109109200914EE0F3
:105A60004FF000400097CDE9011004A90CA8FDF704
:105A7000FDFFDDE90D020C9B0F994FF0000B9146E5
:105A80001093009211B9791C00EB0109B7EB0900E2
:105A900003D4C0F1FF3B07F10109A9EB0700019016
:105AA00042E0012F00DA01270021112F01DD112032
:105AB00000E03846CDE9000104A90CA8FDF7D6FFA7
:105AC000DDE90D010C9A00914FF0000BB9461092E0
:105AD00021070FD4009A4A4503DA914601E0A9F163
