:020000040800F2
:100000001058002061020008AF1700085F170008B1
:10001000AD170008E90300080920000800000000EF
:10002000000000000000000000000000A101000826
:100030008504000800000000FD010008551C0008B0
:100040007B0200087B0200087B0200087B0200089C
:100050007B0200087B0200087B0200087B0200088C
:100060007B0200087B020008870400087B0200086E
:100070007B0200087B0200087B0200087B0200086C
:10008000510400087B0200087B0200087B02000884
:100090007B0200087B0200087B0200087B0200084C
:1000A0007B0200087B0200087B0200087B0200083C
:1000B0007B0200087B0200087B0200087B0200082C
:1000C0007B0200087B0200087B0200087B0200081C
:1000D0007B0200087B020008F11F00087B02000879
:1000E0007B0200087B0200087B0200087B020008FC
:1000F0007B0200087B0200087B0200087B020008EC
:100100007B0200087B0200087B0200087B020008DB
:100110007B0200087B020008251D0008311D000835
:100120007B0200087B0200087B0200087B020008BB
:100130007B0200087B0200087B0200087B020008AB
:100140007B0200087B0200087B0200087B0200089B
:100150007B0200087B0200087B0200087B0200088B
:100160007B0200087B0200087B0200087B0200087B
:100170007B0200087B0200087B02000800000000F0
:100180007B0200087B020008DFF810D000F01AF9AB
:1001900000480047092C0008AFF3008010580020E9
:1001A0002C4B19680868B0E8F04F80F30988BFF35A
:1001B0006F8F4FF0000080F311887047000000003F
:1001C00008480068006880F308884FF0000080F35A
:1001D000148862B661B6BFF34F8FBFF36F8F00DF35
:1001E00000BF00BF08ED00E0DFF80C00016841F43B
:1001F00070010160704700BF88ED00E0EFF30980F7
:10020000BFF36F8F134B1A681EF0100F08BF20ED5D
:10021000108A20E9F04F106009B44FF0500080F3CD
:100220001188BFF34F8FBFF36F8F03F05FFC4FF068
:10023000000080F3118809BC19680868B0E8F04F25
:100240001EF0100F08BFB0EC108A80F30988BFF3CE
:100250006F8F70476C000020EFF30580704700003F
:100260000648804706480047FEE7FEE7FEE7FEE750
:10027000FEE7FEE7FEE7FEE7FEE7FEE7151D0008E6
:10028000890100082DE9F05F0546002092469B4653
:1002900088460646814640241BE02846414647469C
:1002A000224600F07EF853465A46C01A914110D3B8
:1002B00011461846224600F065F82D1A67EB010832
:1002C0004F4622460120002100F05CF817EB0009A0
:1002D0004E41201EA4F10104DFDC484631462A4687
:1002E0004346BDE8F09F10B5431A934209D28318E4
:1002F000881803E010F8011D03F8011D521EF9D201
:1003000010BD40EA01039B0703D009E008C9121F92
:1003100008C0042AFAD203E011F8013B00F8013BBF
:10032000521EF9D210BDD2B201E000F8012B491ED5
:10033000FBD270470022F6E710B513460A46044682
:100340001946FFF7F0FF204610BD421C10F8011BB4
:100350000029FBD1801A704730B5044600200346BF
:1003600000E05B1C934203D2E05CCD5C401BF8D004
:1003700030BD034611F8012B00F8012B002AF9D1FA
:1003800018467047202A04DB203A00FA02F10020C8
:1003900070479140C2F1200320FA03F319439040C3
:1003A0007047202A04DB203A21FA02F0002170472E
:1003B00021FA02F3D040C2F12002914008431946CD
:1003C00070470000064C074D06E0E06840F001036E
:1003D00094E8070098471034AC42F6D3FFF7D8FEF4
:1003E000E043000800440008FEE72DE9F0410E4616
:1003F000074615460421052001F010FB00210120CD
:1004000001F06EFB80210A2001F05EFB002405E074
:10041000395D092001F064FB641CE4B2B442F7D3F7
:100420000321012001F05CFBFF24052001F002FB09
:10043000641E14F0FF0401D04007F6D5222001F01D
:10044000F9FA2870212001F0F5FA6870BDE8F08112
:10045000014800F079B800008004002030B504683D
:10046000256825F480252560046863608368402B37
:10047000036803D099600068C26030BD9A6000686C
:10048000C16030BD7047102000F076B972B6FEE74B
:100490002DE9F0410446876D00F07CFA064694F899
:1004A00035000025022806D08020606584F834508D
:1004B0000120BDE8F0812068016821F0160101608B
:1004C0002068416921F080014161206C08B9A06C6D
:1004D00020B12068016821F00801016020680168EE
:1004E00021F0010101600CE000F054FA801B0528A6
:1004F00007D920206065032084F8350084F8345043
:10050000D7E720680068C007EED194F85C103F2060
:100510008840B860012084F8350084F83450002009
:10052000C7E790F83510022903D0802141650120EA
:100530007047052180F835100068016821F001013D
:1005400001600020704700002DE9F84304464FF099
:100550000009CDF8009063484FF41651A56D00686E
:10056000B0FBF1F72E6894F85C10082000FA01F156
:1005700031420FD021680A6852070BD50A6822F071
:1005800004020A6094F85C108840A860606D40F036
:100590000100606594F85C104FF0010808FA01F062
:1005A000304208D021684969090604D5A860606D09
:1005B00040F00200606594F85C10042088403042EE
:1005C00008D021680968890704D5A860606D40F0EB
:1005D0000400606594F85C1010208840304218D008
:1005E00021680968090714D5A860206801684903D3
:1005F00004D50068000308D5A16C07E00168C905AF
:1006000003D4016821F008010160216C09B1204682
:10061000884794F85C1020208840304231D021680F
:100620000968C9062DD5A86094F83500052820680A
:10063000016806D0490347D5006800031DD4616CEA
:100640001CE021F0160101602068416921F0800161
:100650004161206C08B9A06C20B12068016821F0CC
:100660000801016094F85C103F208840A86084F87D
:10067000358084F83490216D1FE0E16B09B120468C
:100680008847606D00282BD0606DC00714D005200E
:1006900084F835002068016821F0010101600098AC
:1006A000401C0090B84203D820680068C007F6D10B
:1006B00084F8358084F83490E16C002910D001B0C2
:1006C0002046BDE8F04308470168C905D5D4016854
:1006D00021F01001016084F8358084F83490CCE773
:1006E000BDE8F883240000202DE9F0410446866D22
:1006F00090F83400002501280DD0012084F8340042
:1007000094F835700020012F07D084F834000225BA
:100710002846BDE8F0810220FBE7022784F8357007
:1007200060652046FFF79AFE94F85C103F208840F1
:10073000B0602068016841F016010160206C20B1B2
:100740002068016841F0080101602068016841F0FB
:1007500001010160DCE7000010B5102807D110216D
:10076000034800F00DF9012801D10249087010BDBD
:10077000000C024010000020044910B50A68024233
:1007800002D00860FFF7E8FF10BD0000143C0140F4
:100790002DE9F84FDFF8BCA10022012503264FF018
:1007A0000F090AF1040BAAF1040E00BF0B6805FA49
:1007B00002F42340A34270D10F7907F00307012F01
:1007C00001D0022F16D187684FEA420806FA08FCCA
:1007D00027EA0C07D1F80CC00CFA08FC4CEA070C0D
:1007E000C0F808C04768A7430C79C4F300149440CC
:1007F0003C4344600C79E443A4070AD0C4684FEA40
:10080000420C06FA0CF7BC438F6807FA0CF7274333
:10081000C7600C7904F00304022C12D1D40800EB59
:10082000840CDCF820405707FF0E09FA07F824EA89
:100830000804D1F8108008FA07F848EA0408CCF850
:10084000208004684FEA420C06FA0CF7BC430F798B
:1008500007F0030707FA0CF7274307604C6814F406
:10086000403F70D03C4C276847F48047276024689D
:1008700022F0030704F480440094384C07EB040C86
:10088000DCF8084897074FEA177809FA08F7BC43DD
:10089000334FB84202D1002724E054E0314FB84230
:1008A00001D101271EE0304FB84201D1022719E0E3
:1008B0002E4FB84201D1032714E02D4FB84201D189
:1008C00004270FE02B4FB84201D105270AE02A4F39
:1008D000B84201D1062705E0284FB84201D10727C9
:1008E00000E0082707FA08F72743CCF80878DAF879
:1008F00000405746D1F804C09C435FEACC2C00D599
:100900001C433C60DBF800405F46D1F804C09C43C8
:100910005FEA8C2C00D51C433C60DEF80040774633
:10092000D1F804C09C435FEA8C3C00D51C433C607A
:10093000084F083F3C68D1F804C09C435FEACC3CB8
:1009400000D51C433C60521C102AFFF42FAFBDE8B9
:10095000F88F0000083C014044380240003001405C
:10096000000002400004024000080240000C024067
:10097000001002400014024000180240001C024017
:100980000069084000D0012070470AB181617047BA
:100990000904FBE701488068704700001800002048
:1009A0000248816802781144816070471800002075
:1009B0000B4810B5016841F400710160016841F411
:1009C00080610160016841F480710160032000F0E2
:1009D00061F80F2000F006F800F024F8002010BDA8
:1009E000003C024070B50D4D04464FF47A712878F2
:1009F000B1FBF0F00A490968B1FBF0F000F02FFC00
:100A000048B9102C07D200222146501E00F022F8CF
:100A100000206C6070BD012070BD00001800002037
:100A2000240000200A4808B5016841F480410160B3
:100A3000006800F4804000900548001F016841F004
:100A400080510160006800F08050009008BD0000F7
:100A500044380240F0B40E4B1B680C46C3F302232B
:100A6000C3F10705042D00D90425191D072901D25A
:100A7000002300E0DB1E012606FA05F1491E214095
:100A800099409E40761E16403143F0BC01F0F8BB01
:100A90000CED00E0064900F0070208684FF6FF037E
:100AA000184040EA0220034A1043086070470000E3
:100AB0000CED00E00000FA052DE9F0470E460500B8
:100AC00065D0DFF81481D8F80000F7B200F0070015
:100AD000B04207D288F80070D8F8000000F0070094
:100AE000B04254D128683D4C810712D5400703D548
:100AF000206840F4E05020602878000703D5206883
:100B000040F4604020602068A96820F0F0000843AD
:100B100020602878C0072DD030496868083901283E
:100B200012D0022813D0032811D0096889070029A0
:100B30002DDA216821F0030101432160FFF72AFF2C
:100B4000814641F2883A0EE009688903EFE70968B7
:100B50008901ECE7FFF71EFFA0EB0901514502D91F
:100B60000320BDE8F0872068696800F00C00B0EB56
:100B7000810FEFD1D8F80010404601F00701B142D3
:100B800007D90770006800F00700B04201D00120CB
:100B9000E7E72878400705D52068E96820F4E050A9
:100BA000084320602878000706D52068296920F4CA
:100BB000604040EAC100206000F018F82168084A4F
:100BC000C1F30311515CC84006490860064800683B
:100BD000FFF708FF0020C4E7003C0240083802404D
:100BE000D0430008240000201C000020154810B548
:100BF000006810F00C02144813D04110042A0FD0E2
:100C0000082A0ED10F4C241F2268236802F03F02ED
:100C10005B0207D52068C0F38810A0FB010106E045
:100C2000084610BD2168C1F38811A1FB0001002313
:100C3000FFF728FB2168C1F30141491C4900B0FBC3
:100C4000F1F010BD083802400024F4002DE9F84FFF
:100C500004006ED02078DFF84C93C007A9F104059A
:100C60004AD009F104000168C1F38101012908D0CB
:100C70000068C0F3810002280AD1D9F800004002C0
:100C800006D52868800337D560680028E1D033E0B6
:100C90006068B0F5803F10D0B0F5A02F286810D064
:100CA00020F480302860286820F480202860606864
:100CB000A8B1FFF76FFE06460DE0286840F48030CB
:100CC000F4E740F480202860F7E700BFFFF762FEFA
:100CD000801B642873D828688003F7D50CE0FFF7E1
:100CE00059FE064605E000BFFFF754FE801B64284E
:100CF000F0D828688003F7D42078DFF8AC8280072A
:100D00004FF0000A3ED5A748001D016811F00C0FF6
:100D100008D00068C0F3810002280BD1D9F8000088
:100D2000400207D42868800716D5E068012800D162
:100D300012E033E1E068B8B10120C8F80000FFF725
:100D400029FE064605E000BFFFF724FE801B0228AF
:100D5000C0D828688007F7D52868216920F0F800F6
:100D600040EAC10028600DE0C8F800A0FFF712FEBD
:100D7000064604E0FFF70EFE801B02281FD82868F5
:100D80008007F7D42078000722D5864F874861690D
:100D9000703771B101210160FFF7FCFD064604E0E8
:100DA000FFF7F8FD801B022809D838688007F7D5BF
:100DB0000EE0C0F800A0FFF7EDFD064605E082E07A
:100DC000FFF7E8FD801B02287DD838688007F7D43C
:100DD0002078400768D5DFF8CCB100270BF13C0B39
:100DE000DBF80000C0000BD4DBF8001041F08051AC
:100DF000CBF80010DBF80000012700F080500090D5
:100E00006B4E3068C00510D4306840F4807030609C
:100E1000FFF7C0FD009005E0FFF7BCFD0099401A08
:100E2000022850D83068C005F6D55E4EA0686C36F2
:100E300001280FD00528306810D020F00100306064
:100E4000306820F004003060A068B8B1FFF7A2FD60
:100E500000900FE0306840F00100F4E740F004003B
:100E60003060F7E7FFF796FD0099411A41F28830AC
:100E7000814266D830688007F4D50EE0FFF78AFD1E
:100E8000009007E0FFF786FD0099411A41F2883093
:100E9000814256D830688007F4D42FB1DBF80010B7
:100EA00021F08051CBF80010A069C8B33D49091D5D
:100EB0000968C1F3810102294AD00228504607D0AF
:100EC000C8F8600000E03CE0FFF764FD04463BE04A
:100ED0004746C8F86000FFF75DFD064605E000BF25
:100EE000FFF758FD801B02282BD828688001F7D413
:100EF000D4E907010843A16A2E4A490802EB0141DF
:100F0000626A41EA8211084394F82C1040EA0161B8
:100F1000C9F8001001203866FFF73CFD044606E0E2
:100F20003EE000BFFFF736FD001B022809D8286805
:100F30008001F7D534E000BFFFF72CFD001B02282D
:100F400002D90320BDE8F88F28688001F4D427E097
:100F50000128F7D0D9F80000E26900F4800191423D
:100F60001CD1226A00F03F01914217D147F6C071AF
:100F7000626A0140B1EB821F10D1A26A4FF0FF33C9
:100F800000F4403103EB5202B1EB024F06D194F86A
:100F90002C1000F07060B0EB016F01D00120D1E7A0
:100FA0000020CFE70438024000004742800E47424D
:100FB000007000400000FFFF90F85100704770B5CE
:100FC000040009D0606A002540B125616561A56211
:100FD00094F8510040B10CE0012070BD6068B0F59C
:100FE000827FF4D0E561F2E784F85050204600F0AB
:100FF00044F8022084F851002068016821F0400183
:101000000160A088218900F4827001F40441084342
:10101000A18901F400610843217C01F00201084329
:10102000217D01F001010843218B01F40071084387
:10103000217F01F03801084394F8201001F080016D
:101040000843218D01F40051084321680860A0691C
:10105000042101EA104094F8241001F01001084323
:10106000216848602068C16921F40061C16165653B
:10107000012084F85100002070BD70472DE9F84F21
:10108000044690F8500000270A9E1D4692468B4663
:101090004FF0010901280ED0012084F85000FFF71D
:1010A00079FC804694F85100616801280CD0B1F5B4
:1010B000827F07D102E00220BDE8F88FA16809B95C
:1010C000042801D00227C2E0BBF1000F27D0BAF1FB
:1010D000000F24D01DB394F85100042802D005203D
:1010E00084F8510000206065C4F838A0E587A58722
:1010F000C4F830B0E586A586206460642068016885
:10110000490603D4016841F040010160E068B0F590
:10111000006F606805D0E8B3012D46D07FE001275D
:1011200095E008B1012D39D1206B21680088C86095
:10113000206B801C2063E08E401EE0862EE020683D
:10114000816889070FD5E18E69B1B9F1010F0AD124
:10115000216B0988C160206B801C2063E08E401EDB
:10116000E0864FF0000920688168C9070CD0E18F44
:1011700051B1C068A16B0880A06B801CA063E08F98
:10118000401EE0874FF00109FFF704FCA0EB0800C8
:10119000B04200E009E001D3701C50D1E08E00287D
:1011A000CDD1E08F0028CAD13FE0206B21680078C4
:1011B0000873206B401C2063E08E401EE0862EE00A
:1011C0002068816889070FD5E18E69B1B9F1010FF7
:1011D0000AD1216B09780173206B401C2063E08EDB
:1011E000401EE0864FF0000920688168C9070CD0D6
:1011F000E18F51B1C068A16B0870A06B401CA06367
:10120000E08F401EE0874FF00109FFF7C3FBA0EB22
:101210000800B04202D3701C01D010E07EB1E08E15
:101220000028CDD1E08F0028CAD142463146204661
:1012300000F088FC28B101272020606507E0032723
:1012400005E0A06818B92068C16880680090012096
:1012500084F85100002084F8500038462CE710B57F
:10126000401EB0F1807F01D3012010BD4FF0E0247B
:1012700060610F21601701F003F80020A0610720D2
:101280002061002010BD70477047704770B504465C
:10129000006801694FF00005C943890715D4C1688A
:1012A000C943890711D4E91E016101202077206814
:1012B00080698007204602D0FFF7E7FF04E000F0D6
:1012C00098F8204600F096F8257720680169C94310
:1012D000490717D4C168C943490713D46FF0040103
:1012E0000161022020772068806910F4407F204649
:1012F00002D0FFF7CAFF04E000F07BF8204600F0C0
:1013000079F8257720680169C943090716D4C168AF
:10131000C943090712D46FF0080101610420207746
:101320002068C0698007204602D0FFF7AEFF04E0C6
:1013300000F05FF8204600F05DF82577206801692D
:10134000C943C90617D4C168C943C90613D46FF08D
:1013500010010161082020772068C06910F4407FE7
:10136000204602D0FFF791FF04E000F042F820464B
:1013700000F040F8257720680169C943C90708D102
:10138000C168C943C90704D1891E0161204600F024
:1013900033F820680169C943090609D4C168C94303
:1013A000090605D46FF0800101612046FFF76BFF4D
:1013B00020680169C943490609D4C168C94349067F
:1013C00005D46FF040010161204600F01DF820684F
:1013D0000169C94389060BD4C168C943890607D48A
:1013E0006FF0200101612046BDE87040FFF74CBF5F
:1013F00070BD7047704700000249884201D1FFF775
:10140000CFBA7047540100207047704710B50446AA
:101410000068406994F83D10C0F3C010212911D133
:1014200080B12068143050E8001F21F0800140E8AE
:101430000012002AF5D1606B08B1FFF729F82046A9
:1014400000F01EFD2068406994F83E10C0F3801043
:10145000222911D180B12068143050E8001F21F0FA
:10146000400140E80012002AF5D1A06B08B1FFF757
:101470000FF8204600F0DDFC002010BD7047000092
:10148000F8B5016804460868CA684B6910F00F0F88
:101490004FF0000559D003F0010602F4907737436E
:1014A00065D0C10705D0D10503D5216C41F00101FC
:1014B0002164410705D5D90703D0216C41F0020111
:1014C0002164810705D5D90703D0216C41F00401BF
:1014D0002164010707D502F02001314303D0216CBC
:1014E00041F008012164216C00293AD0800604D51E
:1014F000900602D5204600F0D1FC20684069216C9E
:10150000C0F38010090700D460B3204600F091FCBE
:1015100020684069400621D52068143050E8001F3B
:1015200021F0400140E80012002AF5D1A06BA8B1DB
:101530006C490165A06BFEF7F4FF002811D0A06B89
:10154000016D01B0BDE8F040084783060FD5930652
:101550000DD52046BDE8F84000F0A0BC2046FFF7BE
:101560008DFFF8BD2046FFF789FF2564F8BD266B87
:101570002023012E79D1C60677D5D60675D5086801
:10158000486800904869400640D5A16B08684068EB
:101590000004000CEAD0A28D8242E7D9E085C86938
:1015A000B0F5807F2DD020680C3050E8001F21F46A
:1015B000807140E80012002AF5D12068143050E80C
:1015C000001F21F0010140E80012002AF5D1206837
:1015D000143050E8001F21F0400140E80012002ABA
:1015E000F5D184F83E30256320680C3050E8001FA8
:1015F00021F0100140E80012002AF5D1A06BFEF79F
:1016000047FFA08DE18D401A81B229E0A08DE18DC8
:10161000401A81B2E08D0028A8D00029A6D0206809
:101620000C3050E8002F22F4907240E80026002E83
:10163000F5D12068143050E8002F22F0010240E874
:101640000026002EF5D184F83E30256320680C304A
:1016500050E8002F22F0100240E80023002BF5D1C3
:101660002046FFF7D2FEF8BDFFE705062BD515068D
:1016700029D594F83D002128F5D1A068B0F5805F08
:1016800001D12069B0B1206A411C21622168007833
:101690004860E08C401E0004000CE084E3D1206828
:1016A000C16821F08001C1602068C16841F040013B
:1016B000C160D8E7206A0088C0F308004860206A4B
:1016C000801C2062E5E74006CDD55006CBD5CA6820
:1016D000204622F04002CA6084F83D3000F03EF817
:1016E000C1E700003D1D000890F83E30202B0ED1D0
:1016F00059B152B190F83C30012B08D0012380F849
:101700003C300023036300F029BC01207047022015
:10171000704770477047000038B5044600680C49B0
:10172000884214D10068C00611D52046FFF76EFE2E
:10173000A06B0068406807490120487042020649D2
:101740002046FFF7D1FF206801684068009038BD4F
:1017500000440040100000203C0200207047FEE7DB
:1017600030B587B014216846FEF7E4FD0D4800242B
:10177000016841F00101016000680B4D00F00100BB
:101780000590224602212846FFF7FFF8022000902C
:101790000120CDE90104694628460394FEF7F8FFCD
:1017A00007B030BD3038024000000240FEE7FEE7DF
:1017B00070B50646082188B00024084600F02EF9CE
:1017C00000210D2000F08CF980210E2000F026F978
:1017D00093208DF8040020208DF8050006A801ABA9
:1017E0000090022219460C2000F018F80546262821
:1017F0000DD1002101A8425C7254425C491C544046
:10180000C9B20429F7D3405CA04200D0BB25802197
:101810000E2000F059F908B0284670BD2DE9FF5F91
:101820000027BB25DDF838A016468B468146B84612
:101830000C2805D0B9F10E0F05D11227102001E0B8
:1018400077273020804647F08001022000F048F9D9
:101850008021042000F0E2F80021012000F040F98E
:1018600080210A2000F030F9002405E01BF8041064
:10187000092000F035F9641CB442F7D34946012031
:1018800000F02EF9B9F10C0F03D180210D2000F0EA
:101890001BF94FF47A76042000F0CCF80446761E4B
:1018A00004D0E00702D114EA080FF4D080210D2003
:1018B00000F0B4F836B1062000F0BCF810F01B0FB1
:1018C0000CD0BB2580210C2000F0FEF80021012067
:1018D00000F006F904B02846BDE8F09F26253C40FC
:1018E000E00700D0CC25B9F10C0FEBD10A2000F0B5
:1018F000A1F804460C2000F09DF810F007004FEA14
:10190000C40101D008390144CAF8001024B1122CD6
:1019100004D91224002603E00124FBE7002605E099
:10192000092000F087F803998855761CA642F7D362
:10193000C8E700B587B050208DF8040000208DF86E
:1019400005000DF10602022101A8FEF74EFD06A8D2
:1019500001AB0090042219460C20FFF75FFF07B08F
:10196000262000BD30B50C460546082187B0084644
:1019700000F054F807210D2000F0B2F803211420E4
:1019800000F0A2F806A801AB00908DF804500122E7
:1019900019460C20FFF742FF262802D1069910298C
:1019A00002D0BB2007B030BD9DF8041021709DF817
:1019B00005106170F6E710B588B0002193220691FA
:1019C0008DF8042070228DF805208DF80A1001AAE8
:1019D0005418435CA370445C9DF80A30491C634072
:1019E000C9B28DF80A300429F2D3072101A8D21D0B
:1019F000FEF7FBFC0821084600F010F806A801AB32
:101A00000090092219460C20FFF708FF262802D172
:101A10000699182900D0BB2008B010BD70B50C463F
:101A2000054600F007F820EA04012846BDE87040AA
:101A300000F056B870B57E2101EA40000A4D40F032
:101A40008004002204212846FEF79FFF204600F074
:101A500025F8002000F00AF8044601220421284657
:101A6000FEF793FF204670BD0008024001B582B02A
:101A7000094800F04FF8FF200090012301AA02A9B5
:101A80000548FFF7FBFA0448FFF796FA0128FAD158
:101A90009DF804000EBD0000FC00002001B582B0DE
:101AA000084800F037F8FF200090012301AA02A99E
:101AB0000448FFF7E3FA0348FFF77EFA0128FAD15A
:101AC0000EBD0000FC00002070B50C460546FFF777
:101AD000B1FF40EA04012846BDE87040AFF3008042
:101AE00070B50E467E2101EA4004094D0022042112
:101AF0002846FEF74AFF2046FFF7D0FF3046FFF7A3
:101B0000CDFF2846BDE8704001220421FEF73DBF0D
:101B1000000802400A4910B5C96918290ED00168A9
:101B20000A6822F040020A601821C161FFF747FAF3
:101B3000002803D0BDE81040FEF7A8BC10BD00008F
:101B4000FC00002038B504461248134B0068B0FB77
:101B5000F3F04FF47A73584300906068B0F5827FD9
:101B60000DD10B46009200228021204600F016F88D
:101B700070B1606D40F020006065032038BD0098B2
:101B800030B1401E009020688068C0430006F6D542
:101B9000002038BD2400002000366E012DE9F843F6
:101BA0001E46914688460446089DFEF7F3FE401BFC
:101BB000351AFEF7EFFE074625480068C0F3CB3024
:101BC000684338E0701C37D0FEF7E4FEC01BA84223
:101BD00003D215B1009860B32CE02068416821F071
:101BE000E00141606068B0F5827F0BD1A068B0F57C
:101BF000004F02D0B0F5806F04D12068016821F059
:101C000040010160A06AB0F5005F09D12068016859
:101C100021F4005101602068016841F40051016025
:101C2000012084F85100002084F850000320BDE812
:101C3000F8830025401E00902068816838EA010082
:101C400004D000214945BDD10020F0E70121F9E78A
:101C50002400002010B5502080F31188BFF34F8F6F
:101C6000BFF36F8F02F0E4F918B104494FF08050D0
:101C70000860002080F3118810BD000004ED00E032
:101C800030B593B030216846FEF754FB14210CA800
:101C9000FEF750FB1D480025016841F080510160AE
:101CA000006800F0805011901948016841F48041AB
:101CB00001600068022400F480401190012000902F
:101CC000000401908001CDE9064008AA0420A82163
:101CD00082E813000B906846FEF7B8FF08B172B6B1
:101CE000FEE70CA90F2081E831004FF4A0500F90BF
:101CF0004FF48050109005210CA8FEF7DDFE00285F
:101D000001D072B6FEE713B030BD0000403802408B
:101D1000007000400248016841F4700101607047A2
:101D200088ED00E00148FFF7B1BA0000540100203F
:101D30000148FFF7ABBA00009C01002010B5806B92
:101D40000021C185C184FFF799FB10BD70B5846B7C
:101D50002068406994F83D10C0F3C0100025212987
:101D600004D118B1E584204600F08AF82068406963
:101D700094F83E10C0F38010222904D118B1E585F3
:101D8000204600F056F8206C40F0100020642046F9
:101D9000FFF774FB70BD10B50146806B09680968D8
:101DA000C9052FD40021C18501680C3151E8002FED
:101DB00022F4807241E80023002BF5D10168143130
:101DC00051E8002F22F0010241E80023002BF5D159
:101DD0000168143151E8002F22F0400241E800234D
:101DE000002BF5D1202180F83E10016B012909D18B
:101DF00001680C3151E8002F22F0100241E8002365
:101E0000002BF5D1016B012902D0FFF782FC10BD38
:101E1000818DFFF7FAFA10BD10B5806B016B0129B7
:101E200002D0FFF777FC10BD818D4908FFF7EDFA6E
:101E300010BD01680C3151E8002F22F4907241E886
:101E40000023002BF5D10168143151E8002F22F056
:101E5000010241E80023002BF5D1016B012909D1D2
:101E600001680C3151E8002F22F0100241E80023F4
:101E7000002BF5D1202180F83E100021016370472E
:101E800001680C3151E8002F22F0C00241E8002324
:101E9000002BF5D1202180F83D10704708B590F84F
:101EA0003E10222901D0022008BD82684FF48053E1
:101EB0009A4201D1016921B1816A9A421BD04AB18B
:101EC0000AE00268816A5268C2F308020A80816AE5
:101ED000891C08E0026972B10268526802F07F0250
:101EE0000A70816A491C8162C18D491E0904090C6E
:101EF000C18503D019E002685268F1E70168CA6839
:101F000022F02002CA600168CA6822F48072CA60A6
:101F100001684A6922F001024A61202180F83E10DE
:101F2000016B012903D0FFF7F4FB002008BD00215D
:101F3000016301680C3151E8002F22F0100241E8E2
:101F40000023002BF5D101680A68D20602D50A6881
:101F500049680091818DFFF758FAE6E738B581624C
:101F600082850025134604460564222084F83E003D
:101F7000A26B1C48D063A26B1B481064A26B1B4869
:101F8000D064A06B0A4605652168A06B091DFEF7A9
:101F9000ABFB206801684068009084F83C502069E1
:101FA00048B120680C3050E8001F41F4807140E8CF
:101FB0000012002AF5D12068143050E8001F41F0CB
:101FC000010140E80012002AF5D12068143050E8E1
:101FD000001F41F0400140E80012002AF5D1002026
:101FE00038BD0000971D0008191E00084D1D00088F
:101FF00010B50448FFF744FABDE810400148FFF768
:102000008BBB00003C040020FEE700002DE9F041FE
:1020100016460C46054600F0C3F8DFF84C804FF436
:102020000047002239464046FEF7AFFC032000F08F
:10203000A5F8C4F3074000F0A1F8C4F3072000F0AE
:102040009DF8E0B200F09AF8002404E000F092F865
:1020500005F8010B641CB442F8D339464046BDE88C
:10206000F0410122FEF791BC000002402DE9F04151
:10207000074614460E4611F0FF000BD0C0F58075E0
:10208000A54200D915462A46384600F01FF82F44CD
:102090002E44641B4FF48075FF2C0BD92A46314621
:1020A000384600F013F8A4F5807406F5807607F53D
:1020B0008077F1E7002C06D0224631463846BDE84D
:1020C000F04100F003B8BDE8F08100002DE9F041D7
:1020D00014460D46064600F063F800F08BF84FF406
:1020E0008070844200D90446DFF854804FF40047E2
:1020F000002239464046FEF748FC022000F03EF838
:10210000C5F3074000F03AF8C5F3072000F036F8B1
:10211000E8B200F033F8002504E0307800F02EF843
:102120006D1C761CA542F8D3012239464046FEF7C5
:102130002CFC00F035F8BDE8F04100F039B80000A3
:102140000000024070B50A4E4FF4004500222946B7
:102150003046FEF71AFC052000F010F800F00AF8EF
:102160000446012229463046FEF70FFC204670BD8A
:1021700000000240FF2000F001B800000EB501236E
:102180008DF808004FF48050009001AA02A903487E
:10219000FEF774FF9DF804000EBD0000E40100206E
:1021A0002DE91040FFF7CEFFC007FBD110BD0000A6
:1021B00070B50E4D4FF40044002221462846FEF72C
:1021C000E4FB0420FFF7DAFF0948E210036800E0AF
:1021D000521E9868000601D5002AF9D121462846EA
:1021E000BDE870400122FEF7D0BB000000000240B5
:1021F000E401002070B50E4D4FF40044002221464A
:102200002846FEF7C2FB0620FFF7B8FF0948E21098
:10221000036800E0521E9868000601D5002AF9D133
:1022200021462846BDE870400122FEF7AEBB000003
:1022300000000240E40100200FB4054B10B503A9D3
:10224000044A029800F07CF810BC5DF814FB000012
:1022500095290008E80000200FB4084B10B504A928
:1022600002AA039800F06CF8044602A9002000F0CE
:10227000C7F9204610BC5DF814FB000001260008D9
:102280000907090E002804DB00F1E02080F80014A3
:10229000704700F00F0000F1E02080F8141D704737
:1022A00002E008C8121F08C1002AFAD1704770471F
:1022B000002001E001C1121F002AFBD17047002855
:1022C00000D0406870470068091D405870470028DA
:1022D00000D08068704770B504000DD0FFF7EFFFA5
:1022E00000228842204608D1FFF7EDFF6060011E02
:1022F00001D000221EE0A26070BDFFF7E8FF884217
:10230000206808440AD10168A16029B12046BDE8CF
:102310007040002200F0B4BC626070BD05682046C9
:10232000FFF7D1FF064602462946204600F0A8FCEA
:102330002A4631462046BDE8704000F0A7BC0000A8
:102340002DE9FF4F8DB09B460F460446002606E060
:1023500025280BD05A460F999047641C761C20788C
:102360000028F5D111B03046BDE8F08F0025A84611
:102370000122984900E0054314F8013F203B02FA8E
:1023800003F00842F7D120782E2817D114F8010F56
:1023900045F004052A280ED06FF02F022078A0F116
:1023A000300109290AD808EB880102EB410100EB52
:1023B0000108641CF2E757F8048B641C20786C2831
:1023C0000DD004DC4C2812D06A2811D104E0742806
:1023D0000DD07A280CD10AE045F4001507E06178A9
:1023E00045F48015814202D1641C05F58015641CFA
:1023F0002078692844D008DC0028B3D0582867D05A
:1024000063280FD0642808D13AE0702865D073287B
:1024100012D075285AD078285AD05A460F9990472A
:10242000761CD5E017F8040B8DF8000000208DF81D
:102430000100E946012003E057F8049B4FF0FF300C
:1024400069074FF0000501D40AE06D1C45450DDA1F
:102450008542FADB19F805100029F6D106E06D1C5B
:102460008542FCDB19F805100029F8D12E4404E060
:1024700019F8010B5A460F9990476D1EF8D2A7E044
:102480000A200021CDE90801C5F3025002280CD032
:1024900001CFC117021E71F100020CDA0023D0EB4C
:1024A000030063EB01012D2208E0FF1D27F0070761
:1024B000F7E80201EEE72A0504D52B228DF8282043
:1024C00001223CE0EA073AD02022F7E70A2000E0A8
:1024D00010200021CDE9080107E01020002145F07F
:1024E0000405CDE908014FF00808C5F302500228A1
:1024F00010D001CF00214FF0000A2A0720D5227802
:10250000702A0DD0DDE908C38CF0100C5CEA030CD6
:102510000CD015E0FF1D27F00707F7E80201EAE7F6
:1025200040228DF828204FF0010A0CE050EA010308
:1025300006D030238DF828308DF8292002229246CB
:102540002278582A04D024A20DF120090B9209E028
:1025500026A2F9E7DDE90823FDF794FE0B9B9B5CBF
:1025600009F8013D50EA0102F4D1ADEB0900203039
:102570000890680701D44FF001080899884503DDE9
:102580000898A8EB000000E000208046002506E047
:102590000AA85A46405D0F9990476D1C761C554518
:1025A000F6DB04E030205A460F999047761CB8F1CC
:1025B0000001A8F10108F5DC05E019F8010B5A4605
:1025C0000F999047761C0899481E08900029F4DC62
:1025D000641CC4E609280100303132333435363703
:1025E000383961626364656600000000303132335F
:1025F00034353637383941424344454600000000FF
:102600000A68531C0B601070704700002DE9FC41F4
:10261000074600F0FFF8002814D11448002540F2C6
:1026200032364468012221466846FFF7EFFC9DF8E8
:102630000000FF2808D0641D6D1CB542F2DB0CA021
:10264000FFF7FAFDBDE8FC81AA208DF80000012209
:1026500021466846FFF70AFD0422611C3846FFF751
:1026600005FD06A0FFF7E8FD0120EBE708000020CC
:10267000C9C8C7F8C2FAC1CB0D0A0000B5C7BCC7AC
:10268000B3C9B9A60D0A000008444A1E401E904373
:10269000114200D0FEE7704710B50446406882083A
:1026A0000AD0496821F00301091D084460602046F2
:1026B00000F038F8204610BDFEE72DE9FC4705463E
:1026C00048680C4620F0030001AA694600F0C2FAEF
:1026D000DDE9007005EBC71101EB80098046D9F8F0
:1026E0003C0060B164B1C4E9020504F10806C460AD
:1026F00030460421FFF7C8FF864202D0FEE7FEE71E
:10270000FEE7C9F83C400120296900FA07F21143AD
:10271000296105EB870100FA08F04A6902434A6122
:10272000BDE8FC8710B5044600F02AF8046010BD2F
:1027300010B50446FFF7F6FF416841F00201416021
:10274000606840F00100606010BD70B506460D463F
:10275000084600F015F8040010D02079C0070BD00F
:10276000686880080BD02146304600F014F82146F6
:102770002846FFF791FF0546284670BDFEE7FEE7B5
:10278000426800F1080122F00300001F084491088C
:1027900000D1FEE770477CB5054648680C4620F03E
:1027A000030001AA694600F055FADDE9002321463D
:1027B000284600F0B9FE7CBD4FF47A71484300F022
:1027C00001B8000030B5074A5368074C074D002197
:1027D0002468B4FBF5F4444301E05068C11AA142F7
:1027E000FBD330BD001000E02400002040420F0069
:1027F0000648016841F08071016005480021416090
:10280000016841F00101016070470000FCED00E04B
:10281000001000E02DE9FC418046154800256E4679
:10282000446840F23237012221466846FFF7EEFB4A
:102830009DF80000FF2810D0AA280AD10422611CAC
:10284000701CFFF7E3FB04224146701CFDF784FD7A
:1028500048B1641D6D1CBD42E5DB06A0FFF7ECFC32
:102860000020BDE8FC8107A0FFF7E6FC0120F8E7A7
:1028700008000020BFA8BAC5CEB4B5C7BCC70D0AB2
:1028800000000000BFA8BAC5C6A5C5E4B3C9B9A673
:102890000D0A00002DE9FE438046194800256E46CA
:1028A000446840F23237012221466846FFF7AEFB0A
:1028B0009DF80000FF2810D0AA280BD10422611C2B
:1028C000701CFFF7A3FB04224146701CFDF744FD7A
:1028D00048B1641D6D1CBD42E5DB0AA0FFF7ACFCEE
:1028E0000020BDE8FE8355208DF808000122214616
:1028F00002A8FFF7BBFB07A0FFF79EFC0120F0E753
:1029000008000020C3BBD5D2B5BDBFA8BAC50D0A0B
:1029100000000000C9BEB3FDB3C9B9A60D0A00008E
:102920002DE9F041040006D0184E306884420AD1E7
:102930000020BDE8F081502080F31188BFF34F8F55
:10294000BFF36F8FFEE700F0B9FE6569B76BF66BFA
:1029500000F0D4FEBD4201D0B54201D10220E8E72B
:102960000B48854208D1A06A0028F7D194F854108A
:1029700003200129F2D0DCE705481438854202D053
:102980000DB10120D5E70420D3E700006C00002042
:10299000D0070020024948600A685206FCD57047FB
:1029A000001001401CB507490220CDE90001C20119
:1029B000002305A1084801F0F9FABDE81C4001F028
:1029C00055B8000000000020765461736B53797392
:1029D000496E666F00000000613B0008094910B5B0
:1029E00088420DD000280BD0064C0146606800F0EC
:1029F000DFF8A168814201D9081A00E00020A06038
:102A000010BD00004800002010B5044600F002F898
:102A1000001B10BD0349012248680A700B78002B87
:102A2000FBD0704728000020034900220A704A6842
:102A300010444860704700002800002010B504468C
:102A400001460548FFF747FC04490120C8702046AD
:102A5000BDE81040FFF7C2BFE0040020580000208E
:102A60002DE9F047494CA07810B10120BDE8F0876E
:102A70000120A0702078002628B1FFF7CBFF5FEA85
:102A8000000902D007E0A670EFE72069401C206132
:102A9000642800D926613E4D4FEA060884F8038079
:102AA00084F804803B48FFF70AFC286037E0394887
:102AB000FFF709FC2E680746307DC0072ED18246FD
:102AC000304600F069F888B93069B0F1000A01DDDC
:102AD000401E3061FFF79EFF7060B16821B1BAF10E
:102AE000000F01D0304688474FF0010AE07820B946
:102AF000306910B93046FFF7A1FFBAF1000F0DD0D1
:102B00002079E178084309D028680028C6D100BFA1
:102B10004FF0FF351F48FFF7D2FB11E02F60296807
:102B20000029C4D1F4E7307DC00705D1304600F05C
:102B300033F8A84200D2054631461648FFF7C3FBDA
:102B40000600F0D14846FFF75FFFE1680844E06007
:102B5000A068FFF759FFB0F5FA7F13D3E16864224C
:102B60005143B1FBF0F0C0B26070642801D900207D
:102B700001E0C0F1640060702646C4F80C80FFF7E5
:102B800049FFB06084F8028028466FE758000020B3
:102B900034000020E004002010B504464068FFF730
:102BA00033FF2168814201D8002010BD081A10BDF2
:102BB0002DE9F041002611B3083905464E680C4650
:102BC000F00700D0FEE70846FFF7B2FD217928465E
:102BD00089070CD52768AFB13979C90713D03946B1
:102BE000FFF7D9FD21463846FFF756FD044621463A
:102BF0002846FFF7AAFD01462846FFF75EFD30464E
:102C0000BDE8F081FEE7FEE7FDF7D2FEFFF738F8FA
:102C1000FEF7A6FDFFF7ECFD0A20FFF7CDFDFFF75D
:102C2000C1FE0A4D0A4C00264FF4FA670520FFF753
:102C3000C3FDFFF715FF287800F02EF82078012853
:102C4000F4D13846FFF7B8FD2670EFE70500002005
:102C50000400002070B515460E460446802805D2B3
:102C6000E117002004EB9171891006E000F07DFC73
:102C7000411FCC4084F02001801F3060296070BD6E
:102C8000002902D00068091D42507047002901D078
:102C900000684250704700003EB504460020029094
:102CA00002A92620FEF75EFE262826D101A8FEF7FF
:102CB0007FFD26280BD19DF8070000909DF8063077
:102CC0009DF805209DF804100EA0FFF7B5FA01A8A5
:102CD000FEF771FEFEF72DFE24B1012C06D0022C6A
:102CE00008D00AE001A8FFF795FD06E001A8FFF76C
:102CF0008DFC02E001A8FFF7CDFD0A20FFF75CFD87
:102D00003EBD000043617264204E756D3A252E323F
:102D100078252E3278252E3278252E32780D0A002D
:102D20002DE9F0411E4C0F460546E6682068001D5F
:102D300000F022FC38B9206890F82C10012088405F
:102D4000216981432161681C15D1A7B11549226809
:102D50004868906023688268DA6022688368121D80
:102D60005A602268121D8260206841610868401C18
:102D70000860BDE8F08120683544B54245602168AF
:102D800005D2E06BBDE8F041091D00F07EBCA06BF0
:102D9000091D00F07AFCA06A8542EAD2A562E8E744
:102DA0006C000020D00700202DE9F041054600F01E
:102DB00085FC364CA068401CA0602068344F10B1E0
:102DC000606940B32DE02560A068012829D1002664
:102DD00006EB860007EB800000F049FC761C052E10
:102DE000F6D32B48643000F042FC2948783000F0DC
:102DF0003EFC27488C3000F03AFC2548A03000F01B
:102E000036FC2348B43000F032FC21486430A06323
:102E10001430E06305E02068E96AC06A884200D89F
:102E20002560606A401C60622864E96A01202269AA
:102E300088401043206101EB810007EB800040686F
:102E4000A8608168E9608268291D51608160E86A34
:102E500000EB800007EB8001696157F82010491CE6
:102E600047F8201000F04AFC606900280CD0206868
:102E7000E96AC06A884207D206494FF0805008606C
:102E8000BFF34F8FBFF36F8FBDE8F0816C00002060
:102E90001C07002004ED00E010B500F00FFC0E4C04
:102EA0002068A0B90D4800F0E2FB0C48143000F097
:102EB000DEFB0A48E0601430206100220C210A2069
:102EC00000F012FF206010B105A100F06FFCBDE81A
:102ED000104000F013BC0000AC000020E40700200C
:102EE000546D72510000000030B4026C0B46002A91
:102EF0000BD0C1681144C1608468A14201D301684C
:102F0000C16030BC1846FDF7EEB930BC704710B553
:102F10000446006B00F006FC2046BDE8104000F0BF
:102F200001BC00000E484FF48041420706D0C01D8E
:102F30000B4920F00700411AC1F58041094A0023DE
:102F40000144C2E900030839143A21F00701116075
:102F50004B600B600B1AC0E900139360536070471D
:102F60000C080020D4000020144E154CA6F1A00738
:102F70004FF08058DFF84C9012E000BF00F09EFB4D
:102F8000F068C568281D00F0F7FAA068401EA06030
:102F90006068401E606000F0B1FB2846FFF7B7FF95
:102FA00060680028EAD138680128F9D9C9F800809A
:102FB000BFF34F8FBFF36F8FF2E70000BC07002015
:102FC0006C00002004ED00E02DE9F0470D46DDE93E
:102FD00009841746824691009946089EA522206BD7
:102FE000FDF7A1F96FF00301206B01EB87010844A5
:102FF00020F00707780707D0502080F31188BFF32F
:103000004F8FBFF36F8FFEE765B100202218295C58
:1030100082F83410295C11B1401C0A28F6D3002034
:1030200084F83D00052E07D3502080F31188BFF3AC
:103030004F8FBFF36F8FFEE7E662201DA66400F09E
:1030400021FB04F1180000F01DFB2461C6F105000E
:103050006462A0614A465146384600F04FFA20604B
:10306000B8F1000F01D0C8F80040BDE8F0870000BB
:1030700030B5114900E011460A688242FBD34B6823
:103080005C18844203D1406818444860084643688D
:103090001C18944209D1084C143C2468A24209D05F
:1030A00052681A4442600A6812680260814200D085
:1030B000086030BD0460F9E7D400002070B500243A
:1030C00041600B4D0061914206D8D11A826991424C
:1030D00006D2011D286907E09A4203D2994201D322
:1030E000012403E0011DE86800F0CFFA204670BD1E
:1030F000AC00002010B5044600F0E0FAA06B28B147
:103100005FF0000400F0FAFA204610BD0124F9E750
:103110002DE9F0478146086892460C46002600B328
:10312000606804F1080540686060A84201D1416808
:1031300061606068D0F80C80606840686060A84298
:1031400001D141686160606806EBC60109EB81014D
:10315000C76853460122384600F098FB761C474565
:10316000EAD13046BDE8F08770B506460D480D46F9
:10317000C068C068C468201D00F0FEF994F82800FB
:10318000410705D52A463146204600F0B5F803E050
:1031900000F0FE0084F828002046216ABDE8704057
:1031A00008470000AC0000207FB5374E63E0009870
:1031B000002860DB029C606910B1201D00F0DCF982
:1031C00003A800F0BBF8054600980A2853D2DFE8B0
:1031D00000F0520505282E460505282E94F82800F3
:1031E0002A4640F0010084F828000199A069019B5B
:1031F00001442046FFF762FF40B394F828004107DE
:1032000007D50198A1692A460144204600F074F8C8
:1032100003E000F0FE0084F82800216A2046884779
:1032200029E014F8280F00F0FE00207023E094F845
:10323000280040F0010084F828000198A06130B116
:1032400041192B461A462046FFF738FF13E050205D
:1032500080F31188BFF34F8FBFF36F8FFEE794F8B1
:103260002800810703D4204600F05CFA03E000F058
:10327000FE0084F8280000226946306800F0BCFD9A
:10328000002894D17FBD0000AC000020F8B50D46A9
:10329000064600F023FC684600F050F8044600980B
:1032A00010B100F0D9FFF8BD1148ADB1016909684E
:1032B000D9B10025311B2A46006800F09FFA00F0C2
:1032C000CBFF0028EFD10B494FF080500860BFF3CF
:1032D0004F8FBFF36F8FF8BDA642EBD800F0BCFF55
:1032E00021463046FFF740FFF8BD0125E2E7000028
:1032F000AC00002004ED00E070B516460C46054613
:1033000004E0A869296A044428468847A869234636
:10331000011932462846FFF7D1FE0028F1D170BDD1
:103320000548816B096821B1816BC96809688162B0
:1033300070474FF0FF31FAE76C0000202DE9F041B3
:10334000064600F06FFE0E4C0546A068854214D27A
:103350004FF0FF3704E0C06839460068FFF704FF0C
:10336000E06801680029F6D12169C4E90310012051
:1033700030602846A560BDE8F0810020F8E7000035
:10338000AC00002008484068401C4FF0500080F31B
:10339000118804D0BFF34F8FBFF36F8FFEE7BFF3E9
:1033A0004F8FBFF36F8FFEE7DC000020074CE06813
:1033B000016841B1C0680021D0F80000FFF766FF46
:1033C000FFF7F2FEF3E701210020F7E7AC00002051
:1033D0002DE9F041044600F071F994F9455004F1EB
:1033E000240609E0606A48B1304600F0C7FE08B123
:1033F00000F0F6FA6D1E6DB2002DF3DC4FF0FF36D3
:1034000084F8456000F07AF900F058F994F94450D6
:1034100004F1100709E0206948B1384600F0AEFE1B
:1034200008B100F0DDFA6D1E6DB2002DF3DC84F8FA
:103430004460BDE8F04100F061B9000070B5044699
:10344000002600F04BFB2C4D286808B9FFF76AFDF9
:103450007CB304F00700C0F11000C1438C423DD89A
:10346000211800293ADD6868814237D82248143093
:103470000246146801E02046144662688A4202D27D
:103480002268002AF7D12A68944227D00668226869
:10349000026060680836421A102A0FD96018430784
:1034A00008D0502080F31188BFF34F8FBFF36F8F88
:1034B000FEE713E042606160FFF7DAFD616868686B
:1034C000401A6860AA68904200D2A86041F00040AB
:1034D000606000202060E868401CE86000F0BCFEEE
:1034E000700707D0502080F31188BFF34F8FBFF3D0
:1034F0006F8FFEE7304670BDC000002010B5031F7F
:103500004FF080741C601B1F21F001011960191F0E
:10351000044B0B6014390A60091F6FF00202443833
:103520000A6010BD8533000870B5D1E90245D5B1F8
:10353000D4B1E560AC6000EBC21505EB8305EE6B22
:103540008E420FD1EC6384420CD100EB8205012145
:103550006C6901FA03F39C436C6103D103699140E8
:103560008B43036170BDFEE7FEE718B1B0FA80F04F
:10357000C0F12000401E7047D0E9013201699A6015
:10358000D0E901235A604A68824201D182684A60C8
:10359000002202610868401E086008687047000049
:1035A0002DE9F04717460A4605460024052600F097
:1035B00095FADFF88C80D8F8080082423BD3DFF818
:1035C0008490761E06EB860104EBC40009EB8101B2
:1035D00005EB80000122FFF79BFD0444002EF0D193
:1035E00004EBC40005EB800002224646D8F83810F0
:1035F000FFF78EFD044404EBC40005EB80000222BB
:10360000F16BFFF785FD04440E4904EBC40005EBA4
:1036100080000422A031FFF77BFD0444094904EB3C
:10362000C40005EB80000322B431FFF771FD0444B0
:103630000FB10020386000F00FFE2046BDE8F08793
:103640006C0000201C07002001A0FEF7F5BD000063
:10365000C8CECEF1A3BA257320B7A2CFD6D5BBD2A0
:10366000E7B3F60D0A0000000120FFF7DDB900F115
:1036700008014FF0FF32C0E90112C1600161002171
:103680000160704700210161704730B50B685A1C1A
:1036900002D000F1080202E0026904E02246546808
:1036A00025689D42FAD953684B6099608A605160E1
:1036B00008610168491C016030BD0000502080F3A2
:1036C0001188BFF34F8FBFF36F8F0A494868401CC2
:1036D000486001280CD10848006810F0FF0F07D09F
:1036E000502080F31188BFF34F8FBFF36F8FFEE739
:1036F00070470000DC00002004ED00E00849486845
:1037000028B1401E486001D180F3118870475020D5
:1037100080F31188BFF34F8FBFF36F8FFEE7000078
:10372000DC00002070B500282AD0A0F108046068F1
:10373000002807DB502080F31188BFF34F8FBFF3C1
:103740006F8FFEE7216839B1502080F31188BFF3F5
:103750004F8FBFF36F8FFEE720F00040606000F0F6
:10376000BDF9084D60686968084468602046FFF745
:103770007FFC2869401C2861BDE8704000F06CBDEA
:1037800070BD0000C00000204FF0E020002101616A
:10379000816105494FF47A720968B1FBF2F1491E63
:1037A00041610721016170472400002070B50022AB
:1037B00060B100291ED0104C002300BF04EBC305EC
:1037C0006E6886420AD104EBC3020FE0502080F3FA
:1037D0001188BFF34F8FBFF36F8FFEE71AB954F80C
:1037E000336006B92A465B1C082BE7D3002A01D0B8
:1037F000C2E9001070BD0000DC06002070B515465F
:103800000E460446FFF75AFF94F944100020491C65
:1038100001D184F8440094F94510491C01D184F881
:103820004500FFF76BFFA06B28B92A46314604F12B
:10383000240000F0F3F82046BDE87040FFF7C8BD53
:1038400010B5020014D00F48406B38B1502080F3FF
:103850001188BFF34F8FBFF36F8FFEE700F03EF983
:1038600000211046FFF75CFA00F0F6FC002807D1B3
:1038700005494FF080500860BFF34F8FBFF36F8F43
:1038800010BD00006C00002004ED00E02DE9F041C7
:103890000C461D491646B0B14FEA000505F134004B
:1038A000C4E90050E86A2061286BE061286CA060E0
:1038B0000027A86CC4E90507052B12D008688542CB
:1038C00003D1277311E00D68E8E72373032B0CD1B4
:1038D00000F004F9A86A08B10220207300F0BCFCD3
:1038E00003E02846FFF71CF820735EB10021286B27
:1038F00001E0401C491C0278A52AFAD088082084DF
:10390000BDE8F0812784FBE76C00002002490A6AC9
:103910000260C968416070476C0000202DE9FC47D7
:103920004FF00009044680F80090284885688068B8
:1039300000EBC0008000FFF781FD070044D00022AB
:103940002946FFF72DFE8046002536E005EBC50031
:1039500007EB8006307B052817D2DFE800F003056F
:1039600010121400582000E0522082462046716850
:10397000FCF7FFFC2046FCF7E8FC202109E0422090
:10398000F3E75320F1E74420EFE70020EDE721546F
:10399000401C0928FBD304F800900444B168308C23
:1039A000CDE9000152460AA120463369FEF754FCD6
:1039B0002046FCF7CAFC04446D1C4545C6D3384676
:1039C000BDE8FC47FFF7AEBEBDE8FC876C000020F9
:1039D0000925630925750925750925750D0A000056
:1039E00001490120C86170476C00002010B50C46E9
:1039F00050B1094909681831FFF747FE2046BDE874
:103A000010400121FFF78CB9502080F31188BFF3DB
:103A10004F8FBFF36F8FFEE76C000020F0B40C46B1
:103A2000D0B1114943680D68EB619D680E6835623D
:103A30000D689E68183575600D6818359D600968B9
:103A400088620168491C01600AB14FF0FF342046CA
:103A5000F0BC1146FFF764B9502080F31188BFF322
:103A60004F8FBFF36F8FFEE76C0000207CB51748C7
:103A70000025CDE900502B46822215A1164800F002
:103A800095FA124C2C3C012803D100F07BFC012854
:103A900002D0401C11D00EE0502080F31188BFF3FB
:103AA0004F8FBFF36F8F4FF0FF30A0620120606136
:103AB000E56000F09FF8206B7CBD502080F31188FA
:103AC000BFF34F8FBFF36F8FFEE700009800002019
:103AD00049444C4500000000692F00080248416B32
:103AE000491C4163704700006C00002010B51A4C5F
:103AF000606B10B10120E06110BD0020E061206822
:103B000021680068096B884204D821682068343134
:103B1000FFF79AFD20691149B0FA80F0C0F11F004B
:103B200000EB800051F820206AB101EB800000F129
:103B30000802416849684160914201D14968416089
:103B4000C868206010BD502080F31188BFF34F8FEC
:103B5000BFF36F8FFEE700006C0000201C07002001
:103B6000FEB008A0FEF768FB13A0FEF765FB6846F1
:103B7000FFF7D4FE69461DA0FEF75EFB1420FFF799
:103B80005FFEEEE73D3D3D3D3D3D3D3D3D3D3D3D27
:103B90003D3D3D3D3D3D3D3D3D3D3D3D3D3D3D3D55
:103BA0003D3D3D3D3D3D3D3D3D3D3D3D3D3D3D3D45
:103BB0003D3D3D3D3D0D0A00C8CECEF1C3FB20206A
:103BC00020C8CECEF1D7B4CCAC202020D3C5CFC8EE
:103BD000BCB6202020CAA3D3E0D5BB202020C8CE6D
:103BE000CEF1D0F2BAC50D0A0000000025730D0A0F
:103BF000000000001CB537480168374A914207D1E0
:103C0000502080F31188BFF34F8FBFF36F8FFEE713
:103C100000683149491E884207D1502080F311883D
:103C2000BFF34F8FBFF36F8FFEE72C4908780190E9
:103C3000FF20087008788DF800009DF800009DF8BE
:103C4000002000F0F000904207D0502080F311884F
:103C5000BFF34F8FBFF36F8FFEE79DF80000204C3E
:103C600000F0500020700720A06005E09DF80020C3
:103C700052008DF80020401E9DF800201206F5D459
:103C8000A060032807D0502080F31188BFF34F8F26
:103C9000BFF36F8FFEE74FF44070A060019808708B
:103CA0000C482030016841F470010160016841F066
:103CB00070410160FFF768FD00206060FCF794FA36
:103CC0000848016841F040410160FCF779FA0020A2
:103CD0001CBD000000ED00E071C20F4100E400E0F7
:103CE000DC00002034EF00E02DE9F04117460E46DD
:103CF000050020D04FF0FF30B0FBF5F0B0421AD3F2
:103D000005FB06F010F1510F15D85030FFF796FB68
:103D100004000CD004F150005EB12060C4E90F56DD
:103D20002046012100F010F8204684F84C70BDE8D0
:103D3000F0812460F2E7502080F31188BFF34F8FA9
:103D4000BFF36F8FFEE700002DE9F0410F4604003E
:103D50004FF001062DD0E06B98B3B51EB5FBF0F126
:103D6000206C81423ED3FFF7A9FCD4E90F202168E3
:103D700002FB0011A1600021A163216861600A4675
:103D8000D4E90F01401E00FB01212046E16000F84C
:103D9000445F457004F11000A7B1FFF768FC04F11F
:103DA0002400FFF764FC00BFFFF7A8FC3046BDE825
:103DB000F081502080F31188BFF34F8FBFF36F8FD6
:103DC000FEE70FE021690029EED000F0D7F90028C6
:103DD000EAD008494FF080500860BFF34F8FBFF31F
:103DE0006F8FE1E7502080F31188BFF34F8FBFF34F
:103DF0006F8FFEE704ED00E02DE9F747002683B062
:103E00008A46040003D0BAF1000F08D011E0502018
:103E100080F31188BFF34F8FBFF36F8FFEE7206CE5
:103E200038B1502080F31188BFF34F8FBFF36F8FED
:103E3000FEE700F0E9F8DFF8F4804FF000094FF0FA
:103E4000805748B9059838B1502080F31188BFF3E6
:103E50004F8FBFF36F8FFEE7FFF730FCA56BC5B147
:103E600051462046FFF740F86D1EA563206950B10A
:103E700004F1100000F082F928B1C8F80070BFF317
:103E80004F8FBFF36F8FFFF739FC012006B0BDE8FD
:103E9000F087059808B11EB106E0FFF72FFC27E078
:103EA0006846FFF733FD0126FFF728FCFFF716FEF3
:103EB000FFF704FC94F94400401C01D184F84490BD
:103EC00094F94500401C01D184F84590FFF716FC99
:103ED00005A9684600F02CF8002820460AD0FFF714
:103EE00077FA00F0B9F92046FFF704F90028B3D0BB
:103EF0000020CBE7FFF7FEF890B104F1240005990C
:103F0000FFF774FD2046FFF763FA00F0A5F90028DB
:103F1000A2D1C8F80070BFF34F8FBFF36F8F9BE73C
:103F20002046FFF755FA00F097F995E704ED00E019
:103F30002DE9F0410C46050014D0DCB1FFF7BEFBC3
:103F4000194EF2686B682068D11A471C1AD02F6886
:103F5000D6F820C00026674516D0934214D8012514
:103F600026601BE0502080F31188BFF34F8FBFF312
:103F70006F8FFEE7502080F31188BFF34F8FBFF3A0
:103F80006F8FFEE7002509E0884205D9401A2060BE
:103F90002846FFF7BBFCF5E701252660FFF7AEFBDF
:103FA0002846BDE8F08100006C0000202DE9FF5F8D
:103FB0008346DDE90E87994616468A469000FFF74C
:103FC0003DFA05001DD05820FFF738FA040015D03F
:103FD0005821FCF7AFF925630021CDE90241CDE975
:103FE00000874B46324651465846FEF7EDFF2046C5
:103FF000FEF7DAFE012004B0BDE8F09F2846FFF787
:1040000091FB4FF0FF30F6E70548416919B1406B6D
:1040100018B100207047012070470220704700004F
:104020006C0000200148C068704700006C00002050
:104030002DE9F0414F4C0026606B38B1A069401C5F
:10404000A061FFF711FB3046BDE8F081E5686D1C0B
:10405000E56013D1A06B006838B1502080F311885F
:10406000BFF34F8FBFF36F8FFEE7A06BE16BA163D0
:10407000E063206A401C2062FFF752F9A16A3E48C3
:104080008D420FD34FF0000EA16B096839B1A16BBF
:10409000C968C9684A68954210D2A26202E04FF02E
:1040A000FF31A1622168C96A01EB810150F821004A
:1040B000012800D90126A069F0B355E0D1E90272C8
:1040C0004B69BA60D1E902277A605F680A1D97429E
:1040D00001D1CF685F60C1F814E01F687F1E1F60C8
:1040E000D1F828C0BCF1000F15D0D1E907379F6087
:1040F000D1E907377B60DCF8047001F118039F42B7
:1041000002D10B6ACCF80430C1F828E0DCF80030AA
:104110005B1ECCF80030CB6A0127D4F810C09F405A
:1041200047EA0C07276103EB830300EB83035B681B
:104130008B609F68CF6000E014E09F687A609A60AF
:10414000CA6A02EB820200EB82034B6150F8223014
:104150005B1C40F82230C96A2268D26A914293D926
:10416000012691E7FFF780FAE06900283FF46BAF82
:10417000012668E76C0000201C07002070B5C068AD
:10418000C06850B3D0E90732816A9A60D0E907234A
:104190005A604A6800F118039A4201D1026A4A60E3
:1041A000002585620A68521E0A6029494A6B01246B
:1041B000DAB1284D6A68C2619668066296687360D3
:1041C000936085622A68521C2A60C06A0A68D26AB3
:1041D00090423AD90120CC6170BD502080F3118803
:1041E000BFF34F8FBFF36F8FFEE7D0E902634269E1
:1041F000B360D0E9023673605668031D9E4201D158
:10420000C6685660456115686D1E1560C26A0E6904
:1042100004FA02F535430D610E4D02EB82028C3D2E
:1042200005EB8202526882609668C6609668736089
:104230009360C26A02EB820205EB8203436155F888
:1042400022305B1C45F82230BFE7002070BD000023
:104250006C000020A80700202DE9F041464D002405
:104260002746686B38B1FFF729FA686B401E686310
:10427000686B40B17AE0502080F31188BFF34F8F14
:10428000BFF36F8FFEE7A8683C4B00264FF0010894
:10429000F0BB6BE0D868C468D4E90721A06A9160DC
:1042A000D4E907125160426804F118018A4201D131
:1042B000216A4160A6620168491E0160D4E90221B9
:1042C00060699160D4E9021251604268211D8A42FE
:1042D00001D1E268426066610268521E0260E26AD1
:1042E000D5F810C008FA02F040EA0C00286102EB91
:1042F0008200224A8C3A02EB80004068A060D0F82D
:1043000008C0C4F80CC0D0F808C0CCF8041000E015
:1043100012E08160E06A00EB800002EB80016161E5
:1043200052F82010491C42F82010E06A2968C96A36
:10433000884201D3C5F81C8018680028AAD10CB1A6
:10434000FEF7EEFFAC693CB1FFF772FE08B1C5F8AD
:104350001C80641EF8D1AE61E86938B108490127B4
:1043600038070860BFF34F8FBFF36F8FFFF7C6F9B1
:104370003846BDE8F08100006C000020A80700204E
:1043800004ED00E01CB5FEF787FD0D48006868B13C
:104390000B490220091DCDE9000100234FF4827270
:1043A00008A10A48FFF702FE002807D1502080F339
:1043B0001188BFF34F8FBFF36F8FFEE71CBD000066
:1043C000AC000020546D722053766300AD330008BA
:1043D00000000000000000000102030406070809B5
:1043E0000044000800000020EC000000A0220008AB
:1043F000EC440008EC00002024570000B022000824
:1044000000000000000000000100000000000000AB
:10441000000001EF0100000001000000100000009A
:10442000000000000024F400000000000000000074
:10443000000000000000000000000000000000007C
:104440000000000000000000D4C3B2A10000000082
:10445000000000000000000000000000000000005C
:10446000000000000000000000000000000000004C
:10447000000000000000000000000000000000003C
:10448000000000000000000000000000000000002C
:104490000000000000000000000000000400000018
:1044A000000000000000000000000000000000000C
:1044B00000000000000000000000000000000000FC
:1044C00000000000000000000000000000000000EC
:1044D00000000000000000000000000000000000DC
:0C44E000AAAAAAAA000000000000000028
:040000050800018965
:00000001FF
