:020000040800F2
:1000000080120020A90100086B220008A720000828
:10001000692200082F0700082127000800000000BF
:100020000000000000000000000000006F22000837
:10003000ED070008000000006D2200087122000892
:10004000C3010008C3010008C3010008C301000880
:10005000C3010008C3010008C3010008C301000870
:10006000C3010008C3010008C3010008C301000860
:10007000C3010008C3010008C3010008C301000850
:10008000C3010008C3010008C3010008C301000840
:10009000C3010008C3010008C3010008C301000830
:1000A000C3010008C3010008C3010008C301000820
:1000B000C3010008C3010008C3010008C301000810
:1000C000C3010008C3010008C3010008C301000800
:1000D000C3010008F1260008C3010008C30100089D
:1000E000C3010008C3010008C3010008C3010008E0
:1000F000C3010008C3010008C3010008C3010008D0
:10010000C3010008C3010008C3010008C3010008BF
:10011000C3010008C3010008C3010008C3010008AF
:10012000C3010008310700083D070008C3010008AB
:10013000C3010008C3010008C3010008C30100088F
:10014000C3010008C3010008C3010008C30100087F
:10015000C3010008C3010008C30100080927000803
:10016000C3010008C3010008C3010008C30100085F
:10017000C3010008C3010008C3010008000000001B
:10018000C3010008C3010008DFF810D000F04EFAE8
:100190000048004709350008AFF3008080120020B6
:1001A00080F30888704700000648804706480047EB
:1001B000FEE7FEE7FEE7FEE7FEE7FEE7FEE7FEE717
:1001C000FEE7FEE70D230008890100082DE9F05F36
:1001D0000546002092469B468846064681464024B6
:1001E0001BE0284641464746224600F057F8534652
:1001F0005A46C01A914110D311461846224600F0C3
:100200003EF82D1A67EB01084F46224601200021D7
:1002100000F035F817EB00094E41201EA4F101044F
:10022000DFDC484631462A464346BDE8F09FD2B25D
:1002300001E000F8012B491EFBD270470022F6E7CF
:1002400010B513460A4604461946FFF7F0FF20464C
:1002500010BD30B50B46014600202022012409E0E4
:1002600021FA02F59D4205D303FA02F5491B04FA6F
:1002700002F52844151EA2F10102F1DC30BD202A4E
:1002800004DB203A00FA02F1002070479140C2F1ED
:10029000200320FA03F3194390407047202A04DB1F
:1002A000203A21FA02F00021704721FA02F3D040EF
:1002B000C2F1200291400843194670472DE9FE4FD4
:1002C000804681EA0300C00F0C46009021F00041F7
:1002D00023F00045B8EB0200A94105D24046214673
:1002E00090461C460B46024623F00040104347D080
:1002F000270DC7F30A00C3F30A510290401A019078
:1003000040286BDAC3F3130040F4801B0098924638
:1003100020B10023D2EB030A63EB0B0B0198594683
:10032000C0F140025046FFF7AAFF06460D46504670
:100330005946019A00F08CF910EB08006141002445
:1003400087EA115284EAE7731A4340D0009A62B3F5
:10035000019A012A4FEA075215DC001B61EB0201EA
:100360004FF0004202EA0752CDE90042001C41F57D
:10037000801132462B4600F08CF903B0BDE8F08FB7
:1003800040462146F9E7001B61EB0201001C41F5E4
:10039000801300185B412018A2F5001747EB0301FA
:1003A00040EAD570B6196D4111E06D084FEA360686
:1003B00045EAC0754FEA0752001B61EB0201001CC1
:1003C00041F5801149084FEA300000195141324689
:1003D0002B4603B0BDE8F04F00F04CB90098012265
:1003E00040000023D0EB020263EBE073009821464B
:1003F0004FEAE074B8EB000061EB0401E9E783F039
:1004000000435BE781F0004158E72DE9FE4F81EAA8
:10041000030404F0004421F0004100944FF0000B6D
:1004200023F0004350EA01045ED052EA03045BD09B
:10043000C3F30A54C1F30A552C44A4F2F3340194D3
:10044000A0FB0254C1F3130141F48011C3F3130361
:1004500043F4801301FB024400FB034E840A970A15
:1004600044EA815447EA8357A4FB076802958D0A42
:1004700005FB07854FEA932C04FB0C542705029DCE
:100480004FEA065847EA1637B5EB08056EEB070C3E
:10049000870E920E47EA811742EA8312A7FB0201F8
:1004A000B6EB0B0164EB00042B0D43EA0C335E1832
:1004B00044EB1C50DA465146E7FB0201C5F3130436
:1004C0004FEA0B3343EA14534FEA0432019C43EAE8
:1004D0000603A4F10C040294009CCDE900B400F0E2
:1004E000D8F803B0BDE8F08F00200146F9E72DE908
:1004F000F04D81EA030404F0004B21F0004514465E
:100500004FF0000A23F0004150EA050220D054EADF
:1005100001021DD0C5F30A570246C5F31303C1F308
:100520001300C1F30A5640F4801543F48013A7EB7F
:100530000608101BD64608F2FD3873EB050002D3FF
:1005400008F1010801E092185B41B8F1000F03DAED
:1005500000200146BDE8F08D00204FF480110646D2
:1005600084460EE0171B73EB050705D3121B63EBE4
:10057000050306434CEA010C49084FEA3000921883
:100580005B4150EA0107EDD152EA030012D082EA42
:10059000040083EA0501084305D0101BAB4106D2D5
:1005A0000122002306E000224FF0004302E06FF03A
:1005B000010253101AEB06004CEB085110EB0A0035
:1005C00041EB0B01BDE8F04D00F054B8C1F30A5205
:1005D000C1F3130140F2FF3341F480119A4202DA71
:1005E00000200146704740F233439A42A2F2334260
:1005F00002DC5242FFF752BEFFF741BE30B5041E87
:1006000071F1000404DB4FF00044404264EB01014F
:10061000141E73F1000405DB1C464FF000435242E8
:1006200063EB0403994208BF904230BD064C074D6E
:1006300006E0E06840F0010394E8070098471034B2
:10064000AC42F6D3FFF7A4FDBC360008DC36000848
:10065000202A06DBCB17203A41FA02F043EAE07386
:1006600006E041FA02F3D040C2F120029140084373
:100670001946704710B5141E73F1000408DA401CC7
:1006800041F1000192185B411A4301D120F00100B1
:1006900010BD2DE9F04D92469B4611B1B1FA81F2A1
:1006A00002E0B0FA80F220329046FFF7E8FD0446FF
:1006B0000F4640EA0A0041EA0B0153465A460843F6
:1006C00013D0114653EA010019D0C8F14002504638
:1006D000FFF7E4FD05460E46504659464246FFF7F1
:1006E000CEFD084305D0012004E020463946BDE890
:1006F000F08D0020054346EAE0762C4337430A9804
:100700006305E40AA0EB08000022FD0A44EA47540E
:100710000A3002D500200146E9E7010510196941B8
:10072000DDE9084500196941BDE8F04DA2E7FEE7A3
:10073000014800F0F7B900001C020020014800F059
:10074000F1B90000BC01002001681823CAB2103AB8
:10075000B2FBF3F2054B6FF30901032A9B5CC365FF
:1007600000D9091D81650846704700004836000819
:1007700010B5014600208B698A6A4FF0C07453B1EE
:10078000B3F5005F15D072B1012A0CD0022A0AD04D
:10079000032A09D104E01AB1012A06D0022A03D1A2
:1007A000C96AC90100D5012010BDC96AA142FAD0A9
:1007B00010BD002AF7D0012AF2D0022AF3D0032A72
:1007C000F3D010BD30B50468256825F48025256078
:1007D000046863608368402B036803D099600068F5
:1007E000C26030BD9A600068C16030BD704772B6AB
:1007F000FEE70000002229B101291AD002291BD0EE
:100800004FF440720E490B6823F440730B600B6881
:1008100013430B600A6822F078020A600A68022318
:1008200003EBC00002430A60086840F480300860AF
:1008300070474FF48072E5E74FF40072E2E7000082
:10084000103C02401348016889050FD5016821F466
:1008500000710160016841F400610160016821F4E8
:1008600000610160016841F400710160016849059F
:100870000FD5016821F480610160016841F4805165
:100880000160016821F480510160016841F48061D8
:1008900001607047003C024008490A6822F4407237
:1008A0000A600A6842F004020A600A684FF4803362
:1008B00043EA002002430A6070470000103C0240F7
:1008C000064A136823F440731360136813601368B7
:1008D00043F001031360017070470000103C0240B8
:1008E000094910B50C6824F440740C600C6844F499
:1008F00040740C600C6844F001040C600260BFF3AB
:100900006F8F436010BD0000103C0240074A13681F
:1009100023F440731360136843F480731360136807
:1009200043F001031360018070470000103C024057
:10093000074A136823F440731360136843F4007389
:100940001360136843F001031360016070470000F7
:10095000103C024017490868C206174805D5C2690D
:1009600042F01002C26110220A600A68920605D5A0
:10097000C26942F00802C26120220A600A68520677
:1009800005D5C26942F00402C26140220A600A68C9
:10099000120605D5C26942F00202C26180220A60D5
:1009A0000A68920705D5C26942F02002C26102209E
:1009B000086070470C3C02401400002070B51149DB
:1009C00004460020C86100F07BFC06460E4D09E09D
:1009D000601C07D024B100F073FC801BA04201D939
:1009E000032070BD2868C003F2D42868C00701D076
:1009F00001202860286810F0F200F2D0FFF7AAFF6B
:100A0000012070BD140000200C3C02402DE9F04193
:100A10000446876D00F054FC064694F83500002526
:100A2000022806D08020606584F834500120BDE89B
:100A3000F0812068016821F0160101602068416999
:100A400021F080014161206C08B9A06C20B12068C0
:100A5000016821F0080101602068016821F00101AE
:100A600001600CE000F02CFC801B052807D9202039
:100A70006065032084F8350084F83450D7E7206897
:100A80000068C007EED194F85C103F208840B86041
:100A9000012084F8350084F834500020C7E790F82E
:100AA0003510022903D080214165012070470521BE
:100AB00080F835100068016821F001010160002014
:100AC000704770B504002BD094F83500022826D06A
:100AD0002068016821F0010101602068002505609F
:100AE00020684560206885602068C56020680561D1
:100AF0002168212048612046FFF726FEE563256432
:100B00006564A564E564256594F85C203F21914007
:100B10008160656584F8355084F83450002070BDDC
:100B2000012070BD2DE9F84304464FF00009CDF8CF
:100B3000009063484FF41651A56D0068B0FBF1F7C3
:100B40002E6894F85C10082000FA01F131420FD0B1
:100B500021680A6852070BD50A6822F004020A606D
:100B600094F85C108840A860606D40F001006065FA
:100B700094F85C104FF0010808FA01F0304208D0F8
:100B800021684969090604D5A860606D40F002003B
:100B9000606594F85C1004208840304208D02168D9
:100BA0000968890704D5A860606D40F0040060659D
:100BB00094F85C1010208840304218D021680968F1
:100BC000090714D5A86020680168490304D50068A6
:100BD000000308D5A16C07E00168C90503D40168CA
:100BE00021F008010160216C09B12046884794F882
:100BF0005C1020208840304231D021680968C90645
:100C00002DD5A86094F8350005282068016806D025
:100C1000490347D5006800031DD4616C1CE021F036
:100C2000160101602068416921F080014161206C5A
:100C300008B9A06C20B12068016821F008010160AA
:100C400094F85C103F208840A86084F8358084F8D0
:100C50003490216D1FE0E16B09B120468847606D3B
:100C600000282BD0606DC00714D0052084F8350013
:100C70002068016821F0010101600098401C00908B
:100C8000B84203D820680068C007F6D184F83580E0
:100C900084F83490E16C002910D001B02046BDE802
:100CA000F04308470168C905D5D4016821F0100157
:100CB000016084F8358084F83490CCE7BDE8F8838F
:100CC000400000202DE9F041044600F0F9FA064604
:100CD0005CB1022084F83500002584F83450206887
:100CE000016821F0010101600DE00120BDE8F08103
:100CF00000F0E6FA801B052805D920206065032056
:100D000084F83500F2E720680068C007F0D1226857
:100D1000116820480140D4E901031843D4E903369F
:100D20003343184363691843A3691843E3691843BD
:100D3000236A18430843616A042903D1D4E90B13D9
:100D400019430843106020684069666A20F0070173
:100D500030460E43012704280CD1A06A0643E06AFE
:100D600040B12046FFF704FD20B14020606584F8C3
:100D70003570BAE7206846612046FFF7E5FC94F835
:100D80005C203F2191408160656584F835700020CA
:100D9000ACE700003F8010F02DE9F0410446866D7D
:100DA00090F83400002501280DD0012084F834008B
:100DB00094F835700020012F07D084F83400022504
:100DC0002846BDE8F0810220FBE7022784F8357051
:100DD00060652046FFF7F6FC94F85C103F208840E1
:100DE000B0602068016841F016010160206C20B1FC
:100DF0002068016841F0080101602068016841F045
:100E000001010160DCE700002DE9F04704462248BB
:100E10000F46017E01290AD00121804601764CF25D
:100E200050394846FFF7CAFD020003D02FE00220E8
:100E3000BDE8F0874FF0FF3038602068174D01287B
:100E400001D0A6681CE0207C6168FFF725FD4846BC
:100E5000FFF7B4FD0246286820F00400286014E083
:100E6000217C3046FFF7C6FC4846FFF7A7FD02008D
:100E7000286820F07A00286001D03E6005E0761CEA
:100E8000D4E902100844B042EAD8FFF7DBFC0021A5
:100E900088F818101046CBE714000020103C0240E0
:100EA0000348016841F000410160002070470000E4
:100EB000103C02402DE9F0471B4E05461446307E9B
:100EC0001F468946012808D0012030764CF2503860
:100ED0004046FFF773FD18B114E00220BDE8F0872B
:100EE0009DB1012D16D0022D19D022463B46484611
:100EF000FFF7F6FC4046FFF761FD0C490A6822F057
:100F000001020A6000213176E8E7E1B24846FFF7C6
:100F1000D7FCEFE7A1B24846FFF7F8FCEAE7214625
:100F20004846FFF705FDE5E714000020103C0240AD
:100F3000074900200A68002A09DA054A054B0C3ADD
:100F40001360054B13600968002900DA012070471F
:100F5000103C024023016745AB89EFCD2DE9F04FEE
:100F60000022DFF838B101264FF00F0906FA02F42B
:100F700001EA0403A3427DD122F003075F44D7F8BE
:100F8000088895074FEA157C09FA0CFA0AEA080561
:100F9000DFF80C81404502D14FF0000832E0DFF865
:100FA0000481404502D14FF001082BE0DFF8F880C2
:100FB000404502D14FF0020824E0DFF8F0804045C0
:100FC00002D14FF003081DE0DFF8E480404502D174
:100FD0004FF0040816E0DFF8DC80404502D14FF006
:100FE00005080FE0DFF8D080404502D14FF0060839
:100FF00008E0DFF8C880404502D14FF0070801E063
:101000004FF0080808FA0CF8A84522D12C4DD5F865
:1010100000C02CEA030CC5F800C005F1040CDCF894
:1010200000509D43CCF80050254D0C35D5F800C03C
:101030002CEA030CC5F800C02D1FD5F800C02CEA1F
:10104000030CC5F800C0D7F8085825EA0A05C7F808
:101050000858056857000323BB409D430560D50829
:1010600000EB8505D5F820C057074FEAD76809FA85
:1010700008F700E00CE02CEA070CC5F820C0C568B2
:101080009D43C5604568A543456084689C43846072
:10109000521C102AFFF46AAFBDE8F08F0030014007
:1010A000000002400004024000080240000C024020
:1010B000001002400014024000180240001C0240D0
:1010C000003C01402DE9F84FDFF8BCA100220125CA
:1010D00003264FF00F090AF1040BAAF1040E00BF1A
:1010E0000B6805FA02F42340A34270D10F7907F090
:1010F0000307012F01D0022F16D187684FEA42085B
:1011000006FA08FC27EA0C07D1F80CC00CFA08FC18
:101110004CEA070CC0F808C04768A7430C79C4F331
:10112000001494403C4344600C79E443A4070AD083
:10113000C4684FEA420C06FA0CF7BC438F6807FA02
:101140000CF72743C7600C7904F00304022C12D17A
:10115000D40800EB840CDCF820405707FF0E09FA96
:1011600007F824EA0804D1F8108008FA07F848EADA
:101170000408CCF8208004684FEA420C06FA0CF709
:10118000BC430F7907F0030707FA0CF72743076002
:101190004C6814F4403F70D03C4C276847F48047BB
:1011A0002760246822F0030704F480440094384C3C
:1011B00007EB040CDCF8084897074FEA177809FAA0
:1011C00008F7BC43334FB84202D1002724E054E073
:1011D000314FB84201D101271EE0304FB84201D152
:1011E000022719E02E4FB84201D1032714E02D4FFA
:1011F000B84201D104270FE02B4FB84201D1052797
:101200000AE02A4FB84201D1062705E0284FB8422C
:1012100001D1072700E0082707FA08F72743CCF891
:101220000878DAF800405746D1F804C09C435FEADA
:10123000CC2C00D51C433C60DBF800405F46D1F865
:1012400004C09C435FEA8C2C00D51C433C60DEF854
:1012500000407746D1F804C09C435FEA8C3C00D53F
:101260001C433C60084F083F3C68D1F804C09C43D5
:101270005FEACC3C00D51C433C60521C102AFFF4B2
:101280002FAFBDE8F88F0000083C01404438024011
:10129000003001400000024000040240000802400B
:1012A000000C0240001002400014024000180240EE
:1012B000001C02400AB1816170470904FBE700008D
:1012C00001488068704700003400002070B50400B9
:1012D00013D021684CF6CC400860216845F2555087
:1012E0000860D4E9000141602168A0688860FFF7C8
:1012F000E7FF054641F601060DE0012070BD00BF85
:10130000FFF7DEFF401BB04205D92068C0688007A8
:1013100001D0032070BD2068C0688007F0D121682B
:101320004AF6AA200860002070BD000002488168CB
:101330000278114481607047340000200B4810B5DA
:10134000016841F400710160016841F4806101604D
:10135000016841F480710160032000F07FF80F20E4
:1013600000F006F800F024F8002010BD003C024018
:1013700070B50D4D04464FF47A712878B1FBF0F04A
:101380000A490968B1FBF0F000F0C0FB48B9102C25
:1013900007D200222146501E00F040F800206C6069
:1013A00070BD012070BD000034000020400000200E
:1013B0000A4808B5016841F480410160006800F402
:1013C000804000900548001F016841F08051016095
:1013D000006800F08050009008BD000044380240D2
:1013E00000280DDB00F01F02012191404009800020
:1013F00000F1E020C0F88011BFF34F8FBFF36F8F73
:101400007047002809DB00F01F02012191404009CC
:10141000800000F1E020C0F800117047F0B40E4BDE
:101420001B680C46C3F30223C3F10705042D00D942
:101430000425191D072901D2002300E0DB1E012627
:1014400006FA05F1491E214099409E40761E16403D
:101450003143F0BC01F07EB90CED00E0064900F02C
:10146000070208684FF6FF03184040EA0220034ACB
:1014700010430860704700000CED00E00000FA0522
:101480002DE9F0470E46050065D0DFF81481D8F845
:101490000000F7B200F00700B04207D288F80070F1
:1014A000D8F8000000F00700B04254D128683D4C45
:1014B000810712D5400703D5206840F4E050206032
:1014C0002878000703D5206840F460402060206839
:1014D000A96820F0F000084320602878C0072DD0CC
:1014E000304968680839012812D0022813D003282F
:1014F00011D00968890700292DDA216821F003013C
:1015000001432160FFF7DCFE814641F2883A0EE09C
:1015100009688903EFE709688901ECE7FFF7D0FE66
:10152000A0EB0901514502D90320BDE8F0872068EE
:10153000696800F00C00B0EB810FEFD1D8F8001013
:10154000404601F00701B14207D90770006800F07A
:101550000700B04201D00120E7E72878400705D511
:101560002068E96820F4E0500843206028780007EC
:1015700006D52068296920F4604040EAC100206057
:1015800000F038F82168084AC1F30311515CC840E3
:101590000649086006480068FFF7EAFE0020C4E735
:1015A000003C02400838024050360008400000204D
:1015B000380000200448054900680968044AC1F35E
:1015C0008221515CC840704740000020083802402A
:1015D000603600080448054900680968044AC1F3F8
:1015E0004231515CC840704740000020083802403A
:1015F00060360008154810B5006810F00C02144859
:1016000013D04110042A0FD0082A0ED10F4C241FEA
:101610002268236802F03F025B0207D52068C0F30E
:101620008810A0FB010106E0084610BD2168C1F347
:101630008811A1FB00010023FEF7C8FD2168C1F35A
:101640000141491C4900B0FBF1F010BD08380240CF
:101650000024F4002DE9F84F04006ED02078DFF864
:101660004C93C007A9F104054AD009F104000168B0
:10167000C1F38101012908D00068C0F3810002286C
:101680000AD1D9F80000400206D52868800337D572
:1016900060680028E1D033E06068B0F5803F10D08A
:1016A000B0F5A02F286810D020F48030286028687A
:1016B00020F4802028606068A8B1FFF701FE06468C
:1016C0000DE0286840F48030F4E740F48020286082
:1016D000F7E700BFFFF7F4FD801B642873D8286884
:1016E0008003F7D50CE0FFF7EBFD064605E000BFF1
:1016F000FFF7E6FD801B6428F0D828688003F7D444
:101700002078DFF8AC8280074FF0000A3ED5A7486A
:10171000001D016811F00C0F08D00068C0F38100B3
:1017200002280BD1D9F80000400207D428688007AE
:1017300016D5E068012800D112E033E1E068B8B1C5
:101740000120C8F80000FFF7BBFD064605E000BF1A
:10175000FFF7B6FD801B0228C0D828688007F7D5A0
:101760002868216920F0F80040EAC10028600DE0F7
:10177000C8F800A0FFF7A4FD064604E0FFF7A0FDAF
:10178000801B02281FD828688007F7D4207800071C
:1017900022D5864F87486169703771B10121016098
:1017A000FFF78EFD064604E0FFF78AFD801B022846
:1017B00009D838688007F7D50EE0C0F800A0FFF719
:1017C0007FFD064605E082E0FFF77AFD801B0228D8
:1017D0007DD838688007F7D42078400768D5DFF8CF
:1017E000CCB100270BF13C0BDBF80000C0000BD4A0
:1017F000DBF8001041F08051CBF80010DBF800005E
:10180000012700F0805000906B4E3068C00510D466
:10181000306840F480703060FFF752FD009005E0C2
:10182000FFF74EFD0099401A022850D83068C005D5
:10183000F6D55E4EA0686C3601280FD005283068BA
:1018400010D020F001003060306820F004003060DB
:10185000A068B8B1FFF734FD00900FE0306840F0A9
:101860000100F4E740F004003060F7E7FFF728FDDF
:101870000099411A41F28830814266D83068800769
:10188000F4D50EE0FFF71CFD009007E0FFF718FD10
:101890000099411A41F28830814256D83068800759
:1018A000F4D42FB1DBF8001021F08051CBF80010F8
:1018B000A069C8B33D49091D0968C1F38101022926
:1018C0004AD00228504607D0C8F8600000E03CE04B
:1018D000FFF7F6FC04463BE04746C8F86000FFF718
:1018E000EFFC064605E000BFFFF7EAFC801B02287C
:1018F0002BD828688001F7D4D4E907010843A16AEE
:101900002E4A490802EB0141626A41EA821108430A
:1019100094F82C1040EA0161C9F8001001203866E3
:10192000FFF7CEFC044606E03EE000BFFFF7C8FC30
:10193000001B022809D828688001F7D534E000BFD1
:10194000FFF7BEFC001B022802D90320BDE8F88F78
:1019500028688001F4D427E00128F7D0D9F80000E6
:10196000E26900F4800191421CD1226A00F03F013B
:10197000914217D147F6C071626A0140B1EB821FF4
:1019800010D1A26A4FF0FF3300F4403103EB520252
:10199000B1EB024F06D194F82C1000F07060B0EB60
:1019A000016F01D00120D1E70020CFE704380240C9
:1019B00000004742800E4742007000400000FFFFD9
:1019C00070B5040009D0606A002540B125616561E9
:1019D000A56294F8510040B10CE0012070BD606830
:1019E000B0F5827FF4D0E561F2E784F850502046EC
:1019F00000F044F8022084F851002068016821F0CA
:101A000040010160A088218900F4827001F4044142
:101A10000843A18901F400610843217C01F002011F
:101A20000843217D01F001010843218B01F400717D
:101A30000843217F01F03801084394F8201001F099
:101A400080010843218D01F400510843216808609A
:101A5000A069042101EA104094F8241001F010015B
:101A60000843216848602068C16921F40061C161B0
:101A70006565012084F85100002070BDF0B587B085
:101A8000044614216846FEF7D9FB1C4920688842A9
:101A900032D11B480024016841F480410160006894
:101AA00000F48040059016481038016841F00401A8
:101AB0000160016801F004010591016841F0020133
:101AC00001600068022500F0020005900C20CDE9BD
:101AD000000502AA0326052782E8D00069460948C6
:101AE000FFF7F0FA6802CDE9000502AA694682E82C
:101AF000D0000548FFF7E6FA07B0F0BD0038004017
:101B000040380240000802400004024010B5401E68
:101B1000B0F1807F01D3012010BD4FF0E02460615F
:101B20000F21601700F016FE0020A0610720206141
:101B3000002010BD704710B504460068406994F855
:101B40004110C0F3C010212911D180B12068143098
:101B500050E8001F21F0800140E80012002AF5D172
:101B6000A06B08B1FEF752FF204600F07CFC206815
:101B7000406994F84210C0F38010222911D180B13D
:101B80002068143050E8001F21F0400140E80012A6
:101B9000002AF5D1E06B08B1FEF738FF204600F0CF
:101BA0003BFC002010BD7047F8B50168044608688A
:101BB000CA684B6910F00F0F4FF0000559D003F0C1
:101BC000010602F49077374365D0C10705D0D105EF
:101BD00003D5616C41F001016164410705D5D90766
:101BE00003D0616C41F002016164810705D5D9071A
:101BF00003D0616C41F004016164010707D502F074
:101C00002001314303D0616C41F008016164616CD3
:101C100000293AD0800604D5900602D5204600F06F
:101C200030FC20684069616CC0F38010090700D463
:101C300060B3204600F0F0FB20684069400621D5E3
:101C40002068143050E8001F21F0400140E80012E5
:101C5000002AF5D1E06BA8B172490165E06BFEF78F
:101C60001EFF002811D0E06B016D01B0BDE8F0400F
:101C7000084783060FD593060DD52046BDE8F840EA
:101C800000F0FFBB2046FFF78EFFF8BD2046FFF7B0
:101C90008AFF6564F8BD266B2023012E7ED1C6061F
:101CA0007CD5D6067AD508684868009048694FF018
:101CB000020640064DD5E26B106840684FF480770D
:101CC0000004000C3AD0A18D814237D9E085D0695B
:101CD000B8422DD020680C3050E8001F21F48071EC
:101CE00040E80012002AF5D12068143050E8001FA7
:101CF00021F0010140E80012002AF5D120681430DB
:101D000050E8001F21F0400140E80012002AF5D100
:101D100084F84230256320680C3050E8001F21F021
:101D2000100140E80012002AF5D1E06BFEF76EFECC
:101D30006663A08DE18D401A81B206E0A18D8142DB
:101D4000A8D1D069B842A5D166632046FFF7F2FE5C
:101D5000F8BDA08DE18D401A81B2E08D0028F7D04A
:101D60000029F5D020680C3050E8002F22F4907242
:101D700040E80027002FF5D12068143050E8002FEC
:101D800022F0010240E80027002FF5D184F842300C
:101D9000256320680C3050E8002F00E006E022F0B8
:101DA000100240E80023002BF3D1CDE705062BD528
:101DB000150629D594F841002128C9D1A068B0F5AD
:101DC000805F01D12069B0B1206A411C2162216885
:101DD00000784860E08C401E0004000CE084B7D11D
:101DE0002068C16821F08001C1602068C16841F0AD
:101DF0004001C160F8BD206A0088C0F30800486057
:101E0000206A801C2062E5E74006F3D55006F1D534
:101E1000CA68204622F04002CA6084F8413000F0CF
:101E200041F9F8BD1D23000870B5040004D094F8F2
:101E30004100002510B106E0012070BD84F840503B
:101E4000204600F057F8242084F841002068C1683B
:101E500021F40051C160204600F074FB2068016944
:101E600021F4904101612068416921F02A0141611A
:101E70002068C16841F40051C1606564202084F885
:101E8000410084F842006563002070BD10B504462F
:101E9000134A0168134891420DD1016821F01001E5
:101EA00001604FF4C0611048FFF758F8E06BFEF78F
:101EB00008FE25200EE00D4A91420FD1016821F065
:101EC00020010160C0210A48FFF748F8E06BFEF7E7
:101ED000F8FD4720BDE81040FFF782BA10BD0000B2
:101EE000001001404438024000000240001401404C
:101EF00000080240F0B587B0064614216846FEF798
:101F00009DF941484049DFF8FCC035680024143988
:101F1000022203230715654535D1056845F01005F4
:101F20000560006800F010000590086840F00100AE
:101F300008600868694600F00100059058028DE8C5
:101F400015000720CDE903303048FFF7BBF8314DCD
:101F50002F4828607804C5E90104C5E903476C618E
:101F6000AC61EC612C6228466C62FEF7ABFE08B1F6
:101F7000FEF73DFCF563002211462520AE63FFF716
:101F80004DFA25203AE0DFF890C0654538D1056864
:101F900045F020050560006800F020000590086805
:101FA00040F0040008600868694600F004000590ED
:101FB000C0208DE815000820CDE903301748FFF751
:101FC00081F8144D12486035183828608005C5E93D
:101FD0000104C5E903476C61AC61EC612C622846E1
:101FE0006C62FEF76FFE08B1FEF701FCF56300229C
:101FF00011464720AE63FFF711FA4720FFF701FAB9
:1020000007B0F0BD0010014044380240000002401B
:1020100040640240BC01002000140140000802405E
:1020200090F84230202B01D00220704721B11AB124
:102030000023036300F00CBB01207047704770471A
:1020400038B5044601681448814223D10868C006A7
:1020500020D508680025486800902046FFF76BFDF2
:102060000E4901200870E06B00684068C0F18101F2
:102070000B480029455406DD084410F8011C0D29C1
:1020800001D100F8015C2046BDE8384081220449B6
:10209000FFF7C6BF38BD000000100140040000205B
:1020A000AC0000207047FEE70D4808B5016841F418
:1020B000800101600068002200F48000009001218E
:1020C0003920FFF7ABF93920FFF79BF900220121F6
:1020D0003A20FFF7A3F9BDE808403A20FFF791B98D
:1020E0003038024030B587B014216846FEF7A6F8B4
:1020F0001D480024016841F010010160016801F0F1
:1021000010010591016841F080010160016801F052
:1021100080010591016841F004010160016801F04E
:1021200004010591016841F002010160016801F0BC
:1021300002010591016841F00101016000680B4D49
:1021400000F001000590012208212846FFF7B2F8AF
:1021500001210820CDE90214CDE900016946284695
:10216000FEF7B0FF07B030BD30380240001002402B
:10217000094810B507490160062141604FF47A71A2
:102180008160FFF7A3F8002803D0BDE81040FEF7F8
:102190002EBB10BD0030004048000020104810B594
:1021A0000E4901604FF4827141600021022281607A
:1021B000C0E9031201224261520282610822C0E991
:1021C0000721416281620A21C162FFF7F9FB002801
:1021D00003D0BDE81040FEF70ABB10BD0038004038
:1021E0005400002010B5114C0F480C2120604FF412
:1021F000E13060600020A060E060C4E90401A061FB
:10220000E0612046FFF710FE08B1FEF7F0FA206803
:10221000C16841F01001C16004498122BDE810404D
:1022200080390248FFF7FCBE001001402C0100205D
:102230000C4810B50A4901604FF4E13141600021BA
:1022400081600C22C160C0E904128161C161FFF7A5
:10225000EBFD002803D0BDE81040FEF7C8BA10BD62
:102260000014014074010020FEE7FEE7704770474C
:10227000FFF75CB830B593B030216846FDF7DEFF5C
:1022800014210CA8FDF7DAFF1E480025016841F073
:1022900080510160006800F0805011901A48016878
:1022A00041F4804101600068022400F480401190F4
:1022B000092000904FF4803001900120CDE9050401
:1022C0008005079008AA0420A82182E813000B903B
:1022D0006846FFF7BFF908B172B6FEE70CA90F20F8
:1022E00081E831004FF4A0500F904FF480501090CF
:1022F00005210CA8FFF7C4F8002801D072B6FEE74C
:1023000013B030BD40380240007000400248016800
:1023100041F470010160704788ED00E010B5806BFA
:102320000021C185FFF73FFC10BD70B5846B2068AC
:10233000406994F84110C0F3C0100025212904D150
:1023400018B1E584204600F08EF82068406994F8C2
:102350004210C0F38010222904D118B1E58520462F
:1023600000F05AF8606C40F0100060642046FFF7FF
:102370001AFC70BD10B50146806B096809684FF002
:102380000002C9052ED4C28501680C3151E8003F16
:1023900023F4807341E80034002CF5D10168143136
:1023A00051E8003F23F0010341E80034002CF5D14F
:1023B0000168143151E8003F23F0400341E8003444
:1023C000002CF5D1202180F84210016B012909D1A0
:1023D00001680C3151E8003F23F0100341E800345C
:1023E000002CF5D14263016B012902D0FFF726FED4
:1023F00010BD818DFFF79EFB10BD10B5806B0121D4
:102400004163016B012902D0FFF719FE10BD818DD8
:102410004908FFF78FFB10BD01680C3151E8002F10
:1024200022F4907241E80023002BF5D101681431A9
:1024300051E8002F22F0010241E80023002BF5D1E2
:10244000016B012909D101680C3151E8002F22F0FC
:10245000100241E80023002BF5D1202180F8421022
:1024600000210163704701680C3151E8002F22F010
:10247000C00241E80023002BF5D1202180F8411053
:10248000704708B590F84210222901D0022008BDFB
:1024900082684FF480539A4201D1016921B1816A67
:1024A0009A421BD04AB10AE00268816A5268C2F3BC
:1024B00008020A80816A891C08E0026972B1026818
:1024C000526802F07F020A70816A491C8162C18DE4
:1024D000491E0904090CC18503D01BE0026852683B
:1024E000F1E70168CA6822F02002CA600168CA6880
:1024F00022F48072CA6001684A6922F001024A61CE
:10250000202180F8421000214163026B012A03D090
:10251000FFF794FD002008BD016301680C3151E80C
:10252000002F22F0100241E80023002BF5D10168B2
:102530000A68D20602D50A6849680091818DFFF7C2
:10254000F9FAE7E770B5044600680169E26821F42A
:102550004051114301612169A068E2690843616942
:10256000114308432168CA6849F20C639A43024345
:10257000CA6020684169A26921F440711143416138
:1025800031492068884202D03049884202D1FFF7A1
:1025900021F801E0FFF70EF8E26900231921642514
:1025A0003226B2F5004F626828D0A0FB0101930FDC
:1025B0009200FDF70BFE0146B0FBF5F06FF018023C
:1025C000504301EB800006EB0010B0FBF5F000F08B
:1025D000F002B1FBF5F002EB0012B1FBF5F06FF089
:1025E0001803584301EB800006EB0010B0FBF5F038
:1025F00000F00F0021681044886070BDA0FB01014D
:1026000092185B41FDF7E2FD0146B0FBF5F00201D7
:10261000B1FBF5F06FF01803584301EB800006EBB7
:10262000C000B0FBF5F000F0F80002EB4002B1FB97
:10263000F5F0584301EB800006EBC000B0FBF5F06D
:1026400000F00700D6E70000001001400014014030
:1026500038B58162044682850020134660642222D8
:1026600084F84220E56B1F4AEA63E56B1E4A2A6440
:10267000E56B1E4AEA64E26B10650A462168E06B6E
:10268000091DFEF789FB30B110206064202084F81A
:102690004200012038BD2068016840680090206930
:1026A00048B120680C3050E8001F41F4807140E8C8
:1026B0000012002AF5D12068143050E8001F41F0C4
:1026C000010140E80012002AF5D12068143050E8DA
:1026D000001F41F0400140E80012002AF5D100201F
:1026E00038BD000075230008FB2300082B230008D9
:1026F00010B50448FFF758FABDE810400148FFF74D
:102700009FBC00002C01002010B50448FFF74CFAD4
:10271000BDE810400148FFF793BC000074010020A1
:10272000FEE700000FB4054B10B503A9044A029858
:1027300000F0F2F810BC5DF814FB000095340008BE
:1027400044000020014B024A00F0E6B8953400082E
:10275000440000200907090E002804DB00F1E020F6
:1027600080F80014704700F00F0000F1E02080F8BE
:10277000141D704702E008C8121F08C1002AFAD1D0
:1027800070477047002001E001C1121F002AFBD1F1
:10279000704700002DE9FF5F82B00021DDE90430C1
:1027A000020DDDF840B0034318D044F61050A2F2F9
:1027B000FF3242431514119801281FD0A5EB0B00DE
:1027C000401C5FEA000A4FF000064E4FDFF83891D8
:1027D000B046504615D5CAF1000413E01198012403
:1027E0004AA3012801D16FEA0B010298119AC0E9AE
:1027F0000031C0E9024206B0BDE8F09FCBF1000015
:10280000DFE704460021404A491842EB0450CDE975
:10281000001012E0E00707D032463B4640464946EA
:10282000FDF7F3FD8046894632463B461046194681
:10283000FDF7EBFD06460F466410002CEAD1DDE9FA
:102840000401DDE90023BAF1000F06DAFDF7DDFD32
:1028500042464B46FDF7D9FD05E0FDF748FE4246EE
:102860004B46FDF744FE04460E460022284BFDF77A
:10287000C5FE03D84FF0FF30014607E00022254B8C
:1028800020463146FDF71AFDFDF7A0FE102409E0B1
:10289000002C0ADB0A220023FDF798FC039B303250
:1028A0001A55641E50EA0102F2D1641C039AC4F165
:1028B00011031444119A012A03D0012208430DD1B7
:1028C0000AE0084304D000204FF0110B119072E78A
:1028D000A3EB0B056D1E0DE05B4504DD4FF0000220
:1028E00005F1010504E003DA4FF00002A5F101054E
:1028F000002AECD002981199C0E90231C0E90045E4
:1029000079E70000000014400000F03F30000000B4
:102910000000F0430000E03F2DE9FF4F95B09A46DC
:10292000884606460025EEE1252877D10024274673
:10293000F94A0121039400E0044316F8013F203BCB
:1029400001FA03F01042F7D130782A2811D06FF045
:102950002F033078A0F13002092A16D8039A44F0E8
:10296000020402EB820203EB42021044761C039045
:10297000EFE758F8042B0392002A03DA504244F49C
:102980000054039044F00204761C30782E2816D1AF
:1029900016F8010F44F004042A280DD06FF02F021E
:1029A0003078A0F13003092B09D807EB870302EB3D
:1029B0004303C718761CF3E758F8047B761C30787D
:1029C0006C280FD006DC4C2817D068280DD06A2858
:1029D00014D104E0742810D07A280FD10DE044F40B
:1029E00000140AE044F4801401E044F440147278C6
:1029F000824202D104F58014761C761C3078662859
:102A00000BD013DC582877D009DC002875D0452876
:102A1000F6D04628F4D047281AD193E118E063286D
:102A200035D0642879D0652812D18BE1702873D015
:102A300008DC6728F1D069286FD06E280DD06F2888
:102A400006D1ACE073282CD0752874D0782853D0E8
:102A50005246179990476D1C54E1C4F30250022866
:102A600009D003280DD0D8F8001004280DD00D602F
:102A700008F1040846E1D8F80010EA17C1E900524D
:102A8000F6E7D8F800100D80F2E70D70F0E718F8BF
:102A9000041B8DF8001000208DF80100EB4601208A
:102AA00003E058F804BB4FF0FF3061074FF000011E
:102AB00002D40DE009F101018946B9420FDA8145DE
:102AC000F8DB1BF809100029F4D108E009F1010135
:102AD00089468142FADB1BF809100029F6D10398D8
:102AE0005346A0EB090721463846179A00F080FAB2
:102AF000284400EB090507E044E008E10DE01BF87D
:102B0000010B524617999047B9F10109F7D2534684
:102B100021463846179AF2E039E00A21C4F30252FE
:102B20004FF0000B0091022A06D058F8040BC11791
:102B3000032A09D00AE023E008F1070020F0070289
:102B4000F2E80201904605E000B2C117042A01D163
:102B500040B2C117002906DA0A460021404261EB63
:102B600002012D2202E0220504D52B228DF804203B
:102B7000012203E0E20701D02022F7E7914657E067
:102B80000A2100E010214FF0000B00910BE0102112
:102B90004FF0000B44F004040827009103E00820E4
:102BA0004FF0000B0090C4F30252022A05D058F8EF
:102BB000040B0021032A08D008E008F1070020F0E8
:102BC0000702F2E80201904603E080B2042A00D135
:102BD000C0B24FF0000922072AD53278702A07D0F8
:102BE000DDF800C08CF0100C5CEA0B0C05D00EE098
:102BF00040228DF80420012208E050EA010306D0AB
:102C000030238DF804308DF8052002229146009B78
:102C100083F0080353EA0B030AD150EA010201D101
:102C2000620705D530228DF804204FF001097F1E80
:102C30003278582A04D039A20C920CAA02920BE0E6
:102C40003BA2F9E75B46009AFDF7C0FA0C9B9B5C40
:102C5000029A521E0292137050EA0102F2D10298B7
:102C600004A9081A00F1200B600702D524F480346F
:102C700000E001275F4502DDA7EB0B0000E000202C
:102C800000EB0B01009003984944401A0390E003C5
:102C900006D453462146179A039800F0A9F9054433
:102CA000002706E001A85246C05D179990476D1CA9
:102CB0007F1C4F45F6DBE0030CD553462146179A9F
:102CC000039800F095F9054404E030205246179926
:102CD00090476D1C0099481E00900029F5DC08E023
:102CE0000298029952460078491C02911799904720
:102CF0006D1CBBF10001ABF1010BF1DC5BE100F0FD
:102D000065F90544761C307800287FF40DAE19B0C3
:102D10002846BDE8F08F0000092801003031323329
:102D20003435363738396162636465660000000007
:102D300030313233343536373839414243444546F1
:102D400000000000600700D4062708F1070020F00B
:102D50000700F0E80223804603F0004C5FEA0C0015
:102D600001D097A009E0200501D596A005E0E00775
:102D700001D095A001E0AFF24C001390307823F021
:102D8000004365280CD006DC452809D046281DD014
:102D900047287FD13BE0662818D067287AD136E0F3
:102DA0000021112F01DB112000E0781CCDE900018A
:102DB00004A90CA8FFF7EEFCDDE90D010C9A4FF019
:102DC000000B07F10109109200914EE04FF0004016
:102DD0000097CDE9011004A90CA8FFF7DBFCDDE9A1
:102DE0000D020C9B0F994FF0000B9146109300922F
:102DF00011B9791C00EB0109B7EB090003D4C0F14C
:102E0000FF3B07F10109A9EB0700019042E0012F08
:102E100000DA01270021112F01DD112000E03846E2
:102E2000CDE9000104A90CA8FFF7B4FCDDE90D0110
:102E30000C9A00914FF0000BB946109221070FD465
:102E4000009A4A4503DA914601E0A9F10109B9F176
:102E5000010F05DD109AA9F10101515C3029F4D070
:102E6000B84202DA10F1040F03DA0121CDE90110B2
:102E700010E0002803DC8344A9EB000102E0411CC0
:102E8000494500DD8946A0EB0B00401C01904FF046
:102E900000400290200705D40198484502DB4FF01E
:102EA000FF30019000208DF84B0002980DF14B0788
:102EB000B0F1004F25D002200C902B200D900298ED
:102EC00000280CDA404202902D200D9007E00A21E4
:102ED0000298FDF7BEF93031029007F8011D0C99F8
:102EE000481E0C900029F2DC02980028EFD1791ED0
:102EF0000D980870307800F0200040F0450007F889
:102F0000020D11A8C01BC01D02901398007800B1DB
:102F1000012000EB0901019801EBE07102980144E6
:102F20000398401A401E0390E00306D453462146FE
:102F3000179A039800F05CF805441398007818B1CC
:102F40005246179990476D1CE00323D553462146FE
:102F5000179A039800F04CF805441BE0BBF1000FF2
:102F600007DB0098584504DD1098179910F80B00FE
:102F700001E0179930205246904701980BF1010B60
:102F8000401E05F10105019004D12E2052461799EB
:102F900090476D1CB9F10001A9F10109DEDC05E0E3
:102FA00017F8010B5246179990476D1C0299481E5D
:102FB00002900029F4DC53462146179A03989EE6B6
:102FC0002D0000002B000000200000002DE9F04142
:102FD000044600251E461746880404D405E03946F9
:102FE0002020B0476D1C641EF9D52846BDE8F0814D
:102FF0002DE9F041044600251E469046C80301D540
:10300000302700E02027880404D505E041463846F3
:10301000B0476D1C641EF9D52846BDE8F08100005C
:1030200001480079704700000C00002010B572B60E
:10303000064C074920680140B1F1005F05D1FDF75A
:10304000AFF86068BDE81040004710BD00000208FE
:103050000000FE2FF8B5194F06221749384600F038
:10306000EBF9154C6079002824D00025042269462C
:103070001348009500F0E0F9009B261FB3F5002FE0
:1030800001D310A208E00E49154A091D012000F0E5
:10309000E1F8009813A220600320316800F002FAE2
:1030A00065710121384600F041F90622024938468F
:1030B00000F0CCF9F8BD00000C00002000C00008B2
:1030C000000006084572726F7220616E64206F6C9A
:1030D000642073697A652069732077726F6E670068
:1030E000000002084572726F722C2072657475724E
:1030F0006E20746F206F6C642076657273696F6EDA
:10310000210000002DE9FC47DFF8D4A0042201A92A
:10311000504600F091F9344D01994FF400200027FA
:10312000304E2C1D814211D927710121304600F00B
:10313000FDF806222146304600F088F92BA2019BBB
:103140000320296800F0AEF9BDE8FC8721688142C0
:1031500000D920602BA20020296800F0A3F9DFF835
:10316000B890DFF8B8804A4641460020236800F056
:1031700071F82BA20020296800F094F94246DFF88C
:103180006080012008F104084146019B00F062F8CC
:1031900028A20020296800F085F92368009329A25D
:1031A0000120296800F07EF90198206042464946D6
:1031B0000220009B00F04EF804226946504600F0C1
:1031C00045F90120277160710146304600F0AEF8E4
:1031D00005490622091D304600F038F9B4E7000021
:1031E0000000060800C00008080000206E65772077
:1031F00073697A652069732077726F6E673A20254C
:103200006400000073746F726520746F2054454D24
:10321000505F41444452000000000A0800000208C8
:1032200075706461746520746865204150505F4119
:103230004444520065786563757465206261636B10
:10324000757000006F6C642073697A652069732063
:10325000256400002DE9F047A2B099468846060093
:10326000174603D0022E01D0012E03D102211046B1
:1032700000F05CF84FEAD9150024DFF888A01CE0C4
:103280001EB1022E01D0012E0BD108EBC4108022FA
:1032900001A900F0D1F807EBC410802201A900F0C9
:1032A000D5F807EBC410009008EBC41316A2002059
:1032B000DAF8001000F0F6F8641CAC42E0DB19F01C
:1032C0007F041BD01EB1022E01D0012E0BD108EBC2
:1032D000C510224601A900F0AFF807EBC510224641
:1032E00001A900F0B3F807EBC510009008EBC51377
:1032F00005A20020DAF8001000F0D4F822B0BDE8F2
:10330000F087000008000020726561642066726F1B
:103310006D203078253038782C20777269746520DC
:10332000746F2030782530387800000030B50D46B5
:10333000A0F100624FF4804187B08A4201D200249C
:1033400043E02D4A02448A4201D201243DE02B4A47
:1033500002448A4201D2022437E0294A02448A42C6
:1033600001D2032431E027490144B1F5803F01D265
:1033700004242AE0244942184FF400318A4201D241
:10338000052422E0214A02448A4201D206241CE09C
:103390001F4A02448A4201D2072416E01D4A024411
:1033A0008A4201D2082410E01B4A02448A4201D218
:1033B00009240AE0194A02448A4201D20A2404E09C
:1033C000174A1044884200D20B24FDF7B1FD0020BB
:1033D00000900221CDE9045101900394694601A8AF
:1033E000FDF712FD012803D10EA00099FFF79AF90D
:1033F000FDF756FD07B030BD00C0FFF70080FFF7B6
:103400000040FFF70000FFF70000FEF70000FCF7A8
:103410000000FAF70000F8F70000F6F70000F4F7F4
:103420000000F2F74572617365204572726F722079
:1034300061742025640D0A0010B5002302E0C45C0D
:10344000CC545B1C9342FAD310BD00002DE9F0412F
:10345000164607460D46FDF76BFD00240BE00023E2
:103460002A5D39191846FDF725FD012802D105A06E
:10347000FFF758F9641CB442F1D3BDE8F041FDF701
:103480000FBD00005772697465204572726F720D2E
:103490000A000000024948600A685206FCD57047DD
:1034A000001001400FB470B50B460F4988B074C9C5
:1034B0008DE8740036C904AE86E8360004A95DF8CC
:1034C000202051F8201009A40AA0FFF72BF90FA91A
:1034D0000E98FFF737F9214609A0FFF723F908B046
:1034E00070BC5DF814FB0000283600081B5B306DD3
:1034F0000000000025735B25735D5B25735D200074
:1035000025730D0A00000000FDF718FFFEF7B2FE5C
:10351000FEF7E8FDFEF7C8FDFEF764FEFEF788FE45
:10352000FEF73CFE1F4C19A201202168FFF7BAFFED
:10353000FFF790FD1CA201202168FFF7B3FFFFF702
:103540006FFDB0B11FA201202168FFF7ABFFFFF7AD
:10355000D9FD23A201202168FFF7A4FF2548FEF72B
:1035600095FC2548FEF792FCFEF702FEFFF75EFD94
:10357000FEE722A201202168FFF794FF1D48FEF715
:1035800085FC1D48FEF782FCF0E700005468697373
:1035900020697320426F6F744C6F616465722063A1
:1035A0006F64650000000020436865636B696E67A7
:1035B0002075706461746520666C6167202E2E2E04
:1035C000000000005570646174696E67206E657755
:1035D0002076657273696F6E202E2E2E000000001B
:1035E000526561647920746F206C61756E63682028
:1035F000415050002C010020740100204E6F2076B5
:10360000657273696F6E20746F2075706461746584
:103610002C20726561647920746F206C61756E6313
:1036200068204150503100007C3600088C3600087C
:1036300084360008943600089C360008AC36000832
:10364000B4360008A436000800061016000610164E
:103650000000000000000000010203040607080942
:1036600000000000010203046D61696E00000000AB
:10367000626F6F746C6F61646572000044454255FF
:10368000470000005741524E00000000494E464F8F
:10369000000000004552524F520000001B5B3930C1
:1036A0006D0000001B5B39316D0000001B5B39327F
:1036B0006D0000001B5B39336D000000DC36000834
:1036C000000000204800000074270008243700088C
:1036D00048000020381200008427000868360008DF
:1036E000000000007036000800000000000000002C
:1036F00000000000000000000000000000000000CA
:1037000001000000000000000000000000000000B8
:103710000100000010000000000000000024F40080
:0437200000000000A5
:040000050800018965
:00000001FF
